:020000040040BA
:1000000008370020352840003128400031284000C2
:100010003128400031284000312840000000000015
:10002000000000000000000000000000A1024000ED
:10003000312840000000000041034000A5034000BB
:10004000312840003128400031284000312840004C
:10005000312840003128400031284000312840003C
:10006000312840003128400031284000312840002C
:10007000312840003128400031284000312840001C
:10008000312840003128400031284000312840000C
:1000900031284000312840003128400031284000FC
:1000A00031284000312840003128400031284000EC
:1000B00031284000312840003128400031284000DC
:1000C00031284000312840003128400031284000CC
:1000D00031284000312840003128400031284000BC
:1000E00031284000312840003128400031284000AC
:1000F000312840003128400010B5054C237833B931
:10010000044B13B10448AFF300800123237010BDEA
:100110005C04002000000000EC3240000C4B43B1B6
:100120000C480D4910B5AFF300800C48036823B9A3
:1001300010BD0A48036833B97047094B002BF7D04C
:10014000BDE810401847064B002BF5D0184700BFFC
:1001500000000000EC32400060040020EC3240005F
:100160000000000000F1080343604FF0FF3282609E
:10017000C36003610023036070470023036170477D
:1001800043684B609A688A609A6851609960086118
:10019000036801330360704730B40D68B5F1FF3F69
:1001A00002D000F1080202E0026904E01A46536836
:1001B0001C68A542FAD253684B6099608A6051600E
:1001C000086103680133036030BC7047036942680B
:1001D000816891608268416851605A68904206D097
:1001E000002202611A68013A1A6018687047826832
:1001F0005A60F5E708480068006880F308884FF007
:10020000000080F3148862B661B6BFF34F8FBFF36E
:100210006F8F00DF00BF000008ED00E0DFF80C008A
:10022000016841F4700101607047000088ED00E052
:1002300000B583B0002301930B4B1B68B3F1FF3F64
:1002400003D0E32109480A4B98474FF0500383F34A
:100250001188BFF36F8FBFF34F8F019B002BFCD032
:1002600003B05DF804FB00BF0000002074304000C4
:10027000E12C40004FF0807340F8043C21F0010174
:1002800040F8081C054B40F80C3C40F8202C6FF05F
:10029000020340F8243C4438704700BF310240005C
:1002A000074B19680868B0E8F04F80F30988BFF37E
:1002B0006F8F4FF0000080F311887047AFF300801C
:1002C0009804002008B54FF0500383F31188BFF362
:1002D0006F8FBFF34F8F094A136801331360012BEF
:1002E00000D008BD064B1B6813F0FF0FF9D040F299
:1002F0009F110448044B9847F3E700BF000000201B
:1003000004ED00E074304000E12C400008B5084BDB
:100310001B683BB1064A1368013B13600BB983F3BA
:10032000118808BD4FF4D3710248034B9847F1E799
:100330000000002074304000E12C4000000000006C
:10034000EFF30980BFF36F8F154B1A681EF0100F83
:1003500008BF20ED108A20E9F04F10602DE9090058
:100360004FF0500080F31188BFF34F8FBFF36F8FB2
:1003700001F076FA4FF0000080F3118809BC19688B
:100380000868B0E8F04F1EF0100F08BFB0EC108AFC
:1003900080F30988BFF36F8F704700BFAFF3008011
:1003A0009804002008B54FF0500383F31188BFF381
:1003B0006F8FBFF34F8F054B984718B14FF08052A6
:1003C000034B1A60002383F3118808BDC915400050
:1003D00004ED00E0084A0023136008490B60084B55
:1003E0001B680849A1FB03139B09013B06490B60ED
:1003F00007231360704700BF10E000E018E000E042
:1004000008000020D34D621014E000E010B582B067
:10041000344B1A68344B9A4218D0324B1A68334B1B
:100420009A4219D0324B1A78D2B20192FF221A7036
:100430001B78DBB28DF803309DF8033003F05003D6
:100440002C4A137007222C4B1A6015E04FF494715C
:100450002A482B4B9847E0E740F229112748284BC0
:100460009847DFE7244A1368013B13609DF8033087
:100470005B00DBB28DF803309DF8033013F0800F82
:10048000F0D11D4B1B68032B04D04FF4AD711B48FA
:100490001B4B9847184A13681B0203F4E063136070
:1004A000019BDBB2124A1370164B1A6842F47002B9
:1004B0001A601A6842F070421A60134B9847002481
:1004C000124B1C60124B9847124A136843F040438A
:1004D0001360114B9847114B9847114B9847204692
:1004E00002B010BD00ED00E071C20F4170C20F41BB
:1004F00000E400E0780400207C0400207430400018
:10050000E12C400020ED00E0D50340000000002079
:100510001D02400034EF00E0F5014000611840008A
:100520003102400008B5EFF305830F2B06D90E4AC0
:100530009B5CDBB20D4A1278934208D30C4B1B68CC
:1005400003F4E0630B4A1268934206D808BD40F2F8
:10055000F2210948094B9847F0E740F2023106487A
:10056000064B9847F2E700BFF0E300E07804002074
:100570000CED00E07C04002074304000E12C4000D1
:1005800010B4134A00E01A4613688342FBD3516843
:100590005418A0420AD041684418A3420BD003600B
:1005A000904200D010605DF8044B704740680144F1
:1005B00051601046EFE7074C2468A34206D05B6801
:1005C0001944416013681B680360E9E70460E7E7CA
:1005D000900400208004002070B505462C4B1B6859
:1005E000B3B12C4B98472C4B1B681D4245D135B1FC
:1005F000083515F0070F02D025F007050835002D46
:100600003DD0264B1B689D423BD8254A146806E026
:100610008B212448244B9847E3E722461C46636815
:100620009D4202D92368002BF7D1194B1B689C42CD
:1006300029D0166808362368136063685B1B102B8B
:1006400015D8626815490B689B1A0B601749096831
:100650008B4201D215490B600F4B1B68134363603B
:1006600000232360124B98477EB1304670BD60195D
:10067000436065600F4B9847E3E70026F2E70026EA
:10068000F0E70026EEE70026ECE70B4B9847ECE797
:1006900080040020AD154000840400208804002060
:1006A00090040020A4304000E12C40008C04002085
:1006B000ED164000810540000D2D4000002833D08C
:1006C00038B50446A0F1080550F8042C174B1B68F8
:1006D0001A4211D054F8083C23B14FF490711448D9
:1006E000144B984754F8043C104A1268134202D045
:1006F00054F8081C31B138BD40F21F110C480D4BA5
:100700009847E7E723EA020344F8043C0A4B98477A
:1007100054F8041C094A13680B4413602846084B1C
:100720009847084B9847E6E7704700BF84040020CD
:10073000A4304000E12C4000AD15400088040020AA
:1007400081054000ED1640002DE9F04180462C4B1C
:100750001B6823B140F293112A482B4B984743461C
:10076000002637461BE0264B1B685BB3244B1B68F7
:100770009D422DD9224A11686319083B23F00703D3
:10078000136000225A601A602A46581B68602B606A
:1007900001B10D6053681F44013608EBC6035C6865
:1007A000E4B11D6815F0070F05D0EB1D23F007031A
:1007B000ED1A2C441D46002ED5D1144B1D6000228D
:1007C0005A60D7E74FF4DA710E480F4B9847CDE7E0
:1007D00040F2B7110B480C4B9847CBE70C4B1F600E
:1007E0000C4B1F602FB14FF000420B4B1A60BDE85D
:1007F000F0814FF4F0710348034B9847F3E700BFD3
:1008000080040020A4304000E12C4000900400202F
:100810008C040020880400208404002010B50446C5
:10082000064B9847A26BE36B9A4204D00024044B1A
:100830009847204610BD0124F9E700BFC5024000DB
:100840000D03400010B50446054B9847A36B23B138
:100850000024044B9847204610BD0124F9E700BF4F
:10086000C50240000D03400070B504461646856B76
:10087000026C5AB903681BB100200135A56370BD35
:100880008068174B98470023A360F6E76EB940686D
:10089000144B9847226C636813446360A2689342C8
:1008A00019D3236863600020E7E7C0680D4B9847C1
:1008B000226C5242E3681344E36021688B4202D207
:1008C000A3681A44E260022E01D00020D5E725B1CA
:1008D000013D0020D1E70020CFE70020CDE700BF99
:1008E000211C4000852D400070B582B001900E465D
:1008F000846C5CB1A26BE36B9A420DD2A26BE36B8A
:100900009A420FD30026304602B070BD40F6453102
:100910001248134B9847EDE740F646310F48104B0D
:100920009847EBE794F845506DB2324601A920464E
:100930000C4B98470646B5F1FF3F04D001356DB228
:1009400084F84550DFE7636A002BDCD004F1240013
:10095000054B98470028D6D00126D4E7D030400078
:10096000E12C400069084000C11A4000026C72B1DD
:1009700010B5C3681344C3608468A34201D30368FD
:10098000C3600C46C1682046014B984710BD7047B4
:10099000852D400038B505461F4B984795F84540D2
:1009A00064B208E06B6ABBB105F124001B4B9847A9
:1009B00078B9013C64B2002C0EDDAB6C002BF1D099
:1009C00000212846164B98470028F2D0154B98472F
:1009D000EFE7144B9847ECE7FF2385F84530124BBF
:1009E00098470D4B984795F8444064B201E0013CAC
:1009F00064B2002C0ADD2B6943B105F11000074BEE
:100A000098470028F3D0074B9847F0E7FF2385F875
:100A10004430054B984738BDC5024000C11A40001C
:100A2000E9084000F51B40000D03400038B50D46B5
:100A30000446D0B11B4B98472168E26B236C03FB43
:100A40000210A0600020A0636160013A02FB031362
:100A5000E360FF2384F8443084F84530D5B9236936
:100A60004BB9114B9847012038BD40F203110F4894
:100A70000F4B9847DEE704F110000E4B9847002813
:100A8000EFD04FF080520C4B1A60BFF34F8FBFF383
:100A90006F8FE6E704F11000084DA84704F1240029
:100AA000A847DEE7C50240000D034000D0304000FB
:100AB000E12C4000C11A400004ED00E06501400057
:100AC00010B5029C0B4649B12260E063236401210A
:100AD0002046034B98470023A36410BD2460F4E72D
:100AE0002D0A4000F0B583B00D461746064690B17A
:100AF000BDB105FB06F04C300B4B9847044638B1AE
:100B000000903B4600F14C0229463046074DA8476D
:100B1000204603B0F0BD4FF4BB710548054B984724
:100B2000E6E70020E7E700BFD9054000C10A400022
:100B3000D0304000E12C4000F0B585B00F46019266
:100B40001E46044668B197B10123B3B1022E1AD0F4
:100B50000123EBB1634B984700BB019B13BB0123FF
:100B60001DE040F2F1216048604B9847EBE7236CB1
:100B70000BB90123E9E70023E7E740F2F2215A48E5
:100B80005A4B9847E2E7E36B012BE2D00023E0E702
:100B900040F2F3215448554B9847DBE701231BB142
:100BA000002558E00023FAE740F2F6214E484F4B6B
:100BB0009847F5E7A56B3246394620464C4B984797
:100BC000A36CB3B1022E11D031462046494B984751
:100BD00038B14FF08052484B1A60BFF34F8FBFF3CC
:100BE0006F8F464B9847012005B0F0BD002DEBD02C
:100BF000F7E7636A53B90028F3D04FF080523E4BB9
:100C00001A60BFF34F8FBFF36F8FEAE704F1240040
:100C10003B4B98470028E4D04FF08052364B1A6087
:100C2000BFF34F8FBFF36F8FDBE7344B9847002044
:100C3000DAE702A8334B9847012519E0002384F82E
:100C4000443021E0002384F8453023E020462E4B39
:100C500098472E4B98472E4B9847A26BE36B9A42CE
:100C6000A8D3022EA6D0019B002BDED0002DE0D011
:100C7000224B9847274B9847254B984794F8443088
:100C80005BB2B3F1FF3FD9D094F845305BB2B3F11A
:100C9000FF3FD7D0194B984701A902A81E4B984790
:100CA000C8B920461D4B98470028CFD0019904F1C0
:100CB00010001B4B98472046134B9847134B9847FF
:100CC0000028C8D14FF080520B4B1A60BFF34F8FF2
:100CD000BFF36F8FBFE720460B4B98470B4B9847EE
:100CE000002081E7011C4000D0304000E12C400092
:100CF00069084000E908400004ED00E00D034000F1
:100D0000C11A4000551B400095094000ED164000F7
:100D1000C5024000AD1540006D1B40001D0840009D
:100D2000391A40002DE9F8430F4691461E46044605
:100D3000E8B117B3012333B3022E2AD001236BB3DA
:100D4000354B9847EFF311884FF0500383F3118828
:100D5000BFF36F8FBFF34F8FA26BE36B9A4223D326
:100D6000022E21D0002088F31188BDE8F88340F2DC
:100D7000C3312A482A4B9847DBE7236C0BB9012380
:100D8000D9E70023D7E74FF471712448244B9847E3
:100D9000D2E7E36B012BD2D00023D0E740F2C5317C
:100DA0001E481F4B9847CBE794F845506DB232462A
:100DB000394620461B4B9847B5F1FF3F05D001351A
:100DC0006DB284F845500120CDE7A36C5BB131468C
:100DD0002046154B9847B0B1B9F1000F15D001204E
:100DE000C9F80000BFE7636A0BB90120BBE704F153
:100DF00024000E4B984750B1B9F1000F09D00120E3
:100E0000C9F80000AFE70120ADE70120ABE7012002
:100E1000A9E70120A7E700BF25054000D03040002A
:100E2000E12C400069084000E9084000C11A400078
:100E3000F0B585B00F460192044648B177B1012361
:100E400093B1514B9847A8B9019BBBB9012312E05C
:100E50004FF4A0614D484E4B9847EFE7236C0BB918
:100E60000123EDE70023EBE740F204514748484BEC
:100E70009847E6E701231BB1002644E00023FAE788
:100E800040F209514148424B9847F5E73946204620
:100E9000404B9847013DA563236923B93E4B9847D2
:100EA000012005B0F0BD04F110003C4B984700282C
:100EB000F4D04FF080523A4B1A60BFF34F8FBFF31C
:100EC0006F8FEBE7344B98470020EAE702A8354BD9
:100ED0009847012621E0002384F8443029E00023CC
:100EE00084F845302BE020462F4B98472F4B9847EE
:100EF00009E020462C4B98472C4B984720462C4B1A
:100F0000984700283DD12B4B9847A56B002DBDD1AC
:100F1000019B002BD6D0002ED8D01F4B9847264BD4
:100F20009847244B984794F844305BB2B3F1FF3FA5
:100F3000D1D094F845305BB2B3F1FF3FCFD0164B20
:100F4000984701A902A81D4B98470028D1D12046F7
:100F5000174B98470028C6D0019904F12400184B7C
:100F600098472046104B9847104B98470028CAD105
:100F70004FF080520A4B1A60BFF34F8FBFF36F8F51
:100F8000C1E700208DE700BF011C4000D0304000C9
:100F9000E12C40006D0940000D034000C11A4000E3
:100FA00004ED00E0551B400095094000ED1640009F
:100FB00045084000C5024000AD1540006D1B4000D3
:100FC000391A400010B5044630B1064B9847A46B5F
:100FD000054B9847204610BD40F28A710348044BE8
:100FE0009847F2E7C50240000D034000D0304000B2
:100FF000E12C40000023072B0CD8074A52F833207D
:101000000AB10133F7E7044A42F8331002EBC30395
:1010100058607047704700BF4006002070B5044616
:101020000D461646124B984794F844305BB2B3F124
:10103000FF3F0DD094F845305BB2B3F1FF3F0BD0CA
:101040000C4B9847A36B5BB120460B4B984770BD88
:10105000002384F84430EDE7002384F84530EFE7BF
:101060003246294604F12400044B9847ECE700BFC0
:10107000C50240000D03400095094000791A400068
:10108000084B1B681B683BB1064B1B68DB68DB68C1
:101090005A68054B1A6070474FF0FF32024B1A60D6
:1010A000704700BF9C0400208805002038B5054625
:1010B000006B024CA0472846A04738BDBD06400043
:1010C00010B5044628B162690A4B9A4207D0002045
:1010D00010BD40F20E710848084B9847F3E7A36A29
:1010E000074A934202D01BB1002010BD002010BD62
:1010F000012010BDA8050020E8304000E12C400090
:10110000900500202DE9F84F81460D4617469A4676
:101110000A9EDDF82C800C9C9200A521206B254BAB
:101120009847236B07F18042013A03EB820727F0CF
:10113000070715B30023132B07D8E95CE21882F8E0
:101140003410EA5C0AB10133F5E7002384F8473034
:10115000072E00D90726E662A6640025E564201D57
:10116000DFF858B0D84704F11800D8472461C6F119
:101170000806A66164622B4609E0002384F8343037
:10118000E6E703F11402002144F822100133022B98
:10119000F7D90023E36584F8603052464946384663
:1011A000054B98472060B8F1000F01D0C8F8004007
:1011B000BDE8F88FB92E4000750240007B01400069
:1011C00070B5002407E004EB840293000C48184437
:1011D0000C4B98470134072CF5D90B4E3046094C7F
:1011E000A0470A4D2846A0470948A0470948A047FC
:1011F0000948A047094B1E60094B1D6070BD00BF28
:10120000A4040020650140005C050020700500205A
:1012100090050020BC050020A80500209C040020AB
:10122000A004002010B50446214B9847214A1368BA
:1012300001331360204B1B68002B31D01F4B1B6800
:101240003BB91D4B1B68DA6AE36A9A4201D81A4B14
:101250001C601B4A136801331360E36A01229A4041
:101260001849086802430A6003EB83039A00211DB2
:1012700015481044154B9847154B98470F4B1B6862
:101280006BB10D4B1B68DA6AE36A9A4207D24FF0E2
:101290008052104B1A60BFF34F8FBFF36F8F10BD9A
:1012A000054B1C601368012BD3D10B4B9847D0E73B
:1012B000C50240004405002098040020A405002039
:1012C0005405002058050020A4040020810140009E
:1012D0000D03400004ED00E0C11140000F4B1B68FE
:1012E000D3B110B50E4B98470E4BDB68DC68201D60
:1012F0000D4B98470D4A1368013B1360074A13686A
:10130000013B13600A4B984720460A4B9847034B12
:101310001B68002BE6D110BD704700BF48050020B8
:10132000C5024000BC050020CD014000440500205E
:101330000D034000AD10400008B5074B9847074B20
:101340001B68012BF9D94FF08052054B1A60BFF38F
:101350004F8FBFF36F8FF0E7DD124000A404002031
:1013600004ED00E070B504460E461D4B1D681D4B94
:10137000186804301C4B984750B91A4B1B68DA6A3E
:10138000012303FA02F219490B6823EA02030B60F6
:10139000B4F1FF3F13D02C44124B1B685C60A54294
:1013A00016D8134B18680F4B19680431114B984726
:1013B000114B1B689C4201D20F4B1C6070BD002E6C
:1013C000E9D0084B196804310C480D4B984770BDA3
:1013D0000C4B1868034B19680431064B984770BDD5
:1013E000D005002098040020CD01400058050020C1
:1013F0009C0400209901400088050020A8050020D9
:1014000081014000A00400202DE9F04385B006468C
:101410000F46154698469000144B984700B38146F6
:101420006420124B98470446B0B1C0F83090CCB15C
:101430000023039302940D9B01930C9B009343465E
:101440002A46394630460A4DA8472046094B984758
:10145000012005B0BDE8F0834846074B9847E6E712
:101460000024E4E74FF0FF30F3E700BFD905400068
:101470000511400025124000BD06400038B5044665
:1014800068B11B4B1B689C4208D03CB1194B984774
:101490002046194B984740B9184B984738BD4FF430
:1014A000E7611748174B9847EBE7251D2846164B71
:1014B0009847E36A01229A401449086802430A6087
:1014C00003EB83039A00294611481044114B9847B7
:1014D000E26A074B1B68DB6A9A42DDD34FF0805209
:1014E0000D4B1A60BFF34F8FBFF36F8FD4E700BF70
:1014F00098040020C5024000C11040000D034000C8
:10150000E8304000E12C4000CD01400058050020AB
:10151000A40400208101400004ED00E010B582B079
:10152000174B019300230093822216491648174C4B
:10153000A047012806D0012807D0B0F1FF3F19D0FD
:1015400002B010BD124B9847F5E74FF0500383F3FC
:101550001188BFF36F8FBFF34F8F4FF0FF320D4BEA
:101560001A6001220C4B1A6000220C4B1A600C4BC3
:101570009847E5E74FF402610A480B4B9847DFE7CD
:101580008405002000314000391340000914400058
:10159000B11D400088050020A4050020D0050020D2
:1015A0000D044000E8304000E12C4000024A13687E
:1015B00001331360704700BF50050020014B1868CD
:1015C000704700BFD0050020F8B5384B1B68002BD2
:1015D00061D1374B1E6801361E607EB9354B1B68E2
:1015E0001B68E3B9334A1168334B186810601960FF
:1015F000324A136801331360314B9847314B1B68F3
:101600009E423ED20027304B1B68DB6A03EB83030C
:101610009A002E4B9B58012B42D9012740E040F6FF
:101620007F212B482B4B9847DCE70127214B1B6878
:101630001B6843B31F4B1B68DB68DC6863689E4212
:1016400026D3251D2846244B9847A36A1BB104F1D5
:101650001800214B9847E36A01229A401F49086805
:1016600002430A6003EB83039A002946174810449B
:101670001B4B9847E26A144B1B68DB6A9A42D4D230
:10168000D4E70027D2E74FF0FF320E4B1A60BAE7DB
:101690000C4A1360B7E7134A13680133136000273D
:1016A000114B1B6803B101273846F8BD50050020D7
:1016B000D00500209C040020A00400208C05002000
:1016C000811040008805002098040020A404002018
:1016D000E8304000E12C4000CD01400058050020DA
:1016E000810140004C050020D405002070B5344B2A
:1016F0001B68002B34D0334B9847314B1A68013AA2
:101700001A601B68002B54D12F4B1B68002B2DD067
:1017100000242E4B1B68002B2AD02C4BDB68DC6886
:1017200004F118002A4EB047251D2846B047E36A49
:1017300001229A402749086802430A6003EB8303A9
:101740009A00294624481044244B9847E26A244BC7
:101750001B68DB6A9A42DCD30122224B1A60D8E76D
:1017600040F685012048214B9847C4E7002421E03A
:101770000CB11F4B98471F4B1C6874B9194B1B6861
:10178000E3B14FF080521C4B1A60BFF34F8FBFF391
:101790006F8F01240EE0013C07D0184B98470028BA
:1017A000F9D001220F4B1A60F5E70022114B1A60A5
:1017B000E4E70024124B9847204670BD0024F9E767
:1017C00050050020C502400044050020900500207F
:1017D000CD01400058050020A404002081014000F4
:1017E00098040020D4050020E8304000E12C40009F
:1017F000811040004C05002004ED00E0C9154000B8
:101800000D03400010B5D8B104460E4B1B688BB9D0
:101810000D4B9847002120460C4B98470C4B98479E
:1018200038B94FF080520B4B1A60BFF34F8FBFF3A4
:101830006F8F10BD40F23C510748084B9847E7E7CF
:101840000020EDE750050020AD1540006513400075
:10185000ED16400004ED00E0E8304000E12C4000CF
:101860002C4B1B68002B35D110B500222A4B1A6077
:101870002A4B1B681B6B1A68B2F1A53F2ED0274B71
:10188000186819683431264B9847264B1C68B4FAFF
:1018900084F4E4B2C4F11F0404EB84029300224AEE
:1018A000D35843B32049A300181982000A44506852
:1018B0004068506023449A0008321144884220D086
:1018C00004EB8404A200184B13445B68DA68134BE2
:1018D0001A6010BD0122104B1A6070475A68B2F1AD
:1018E000A53FCCD19A68B2F1A53FC8D1DB68B3F16E
:1018F000A53FC4D1C9E740F6B7310C480C4B984717
:10190000D0E7416804EB84039A00074B1344596005
:10191000D6E700BF50050020D40500209804002021
:10192000212D400058050020A4040020E83040008C
:10193000E12C400038B504462F4B9847002C2BD0A3
:10194000251D28462D4B984768B9E36A03EB8301B0
:101950008A002B498A5832B901229A4029490B68DA
:1019600023EA02030B60A36A1BB104F11800234BA6
:10197000984729462448254B984794F86030DBB2B5
:10198000012B0CD0224B9847224B1B685BB9224B92
:101990001B689C420ED038BD1F4B1C68D0E700234B
:1019A00084F86030EEE7144B98471C4B9847184B6F
:1019B0009847ECE7174B1B688BB1194B1B6843B971
:1019C0004FF08052174B1A60BFF34F8FBFF36F8FEA
:1019D00038BD40F2E4611448144B9847F0E70A4BD5
:1019E0001A68134B1B689A4202D0124B9847D2E7F1
:1019F0000022094B1A6038BDC5024000CD014000ED
:101A0000A404002058050020A80500208101400002
:101A10000D034000A4050020980400208110400020
:101A20005005002004ED00E0E8304000E12C4000CB
:101A3000440500206118400038B50C46054650B1F9
:101A4000084B196818312846074B98470121204652
:101A5000064B984738BD40F6CE310548054B9847B0
:101A6000EEE700BF98040020990140006513400094
:101A7000E8304000E12C400070B50D4614460646A3
:101A800068B10A4B196818313046094B98470CB1B8
:101A90004FF0FF3521462846064B984770BD40F66B
:101AA000F9310548054B9847EBE700BF9804002043
:101AB0008101400065134000E8304000E12C400007
:101AC00038B5C368DC6824B304F118052846174B01
:101AD0009847174B1B6813BB251D2846134B984787
:101AE000E36A01229A401349086802430A6003EB43
:101AF00083039A00294610481044104B9847E26A25
:101B00000F4B1B68DB6A9A420ED901200D4B1860FF
:101B100038BD40F629410C480C4B9847D4E729467C
:101B20000B48064B9847EAE7002038BDCD0140003E
:101B30005005002058050020A40400208101400029
:101B400098040020D4050020E8304000E12C40003B
:101B500090050020034B1B680360034B1B68436028
:101B6000704700BF8C050020D0050020F8B50C465A
:101B70000546D0B1FCB1184B9847184B19686A68F4
:101B8000881A2368B3F1FF3F22D02F68144E3668BD
:101B9000B74201D091421DD2984212D30023236054
:101BA0000124104B98472046F8BD40F694410E485A
:101BB0000E4B9847DEE740F695410B480B4B984794
:101BC000D9E71B1A23602846094B98470024E8E709
:101BD0000024E6E70124E4E7C5024000D005002028
:101BE0008C0500200D034000E8304000E12C40004F
:101BF000551B40000122014B1A607047D40500209C
:101C0000054B1B6823B1054B1B681BB902207047AD
:101C10000120704700207047A405002050050020D7
:101C2000002845D038B50446234B1B68984204D0A1
:101C300040F6D1712148224B9847E36C4BB1E36CDD
:101C4000013BE364E16AA26C914233D03BB10020D6
:101C500038BD40F6D2711948194B9847EFE7251D5A
:101C60002846184B984768B9E36A03EB83018A005A
:101C700015498A5832B901229A4014490B6823EA5F
:101C800002030B60A36CE362C3F10802A2610124AA
:101C900004FA03F20D49086802430A6003EB830368
:101CA0009A00294608481044094B9847204638BDF9
:101CB00000207047002038BD98040020E830400024
:101CC000E12C4000CD014000A40400205805002074
:101CD00081014000064B1A6813682BB90123036089
:101CE00023B9D368186870470023F8E700207047CD
:101CF000D805002008B54160006191420CD8D21A85
:101D000083699A4201D3012008BD011D094B18685F
:101D1000094B9847002008BD9A4201D2994206D249
:101D2000011D064B1868044B9847002008BD012090
:101D300008BD00BFDC05002099014000D805002047
:101D400070B5104B9847104B1B6813B10F4B984759
:101D500070BD0F4D28460F4EB0470F4C2046B04780
:101D60000E4B1D600E4B1C600022102105200D4BF8
:101D70009847054B18600028E8D00B490B4B984753
:101D8000E4E700BFC50240000C0600200D03400040
:101D9000E005002065014000F4050020D805002082
:101DA000DC050020E50A400008314000F50F400046
:101DB00010B582B00E4B98470E4B1B687BB10E4B93
:101DC00001930723009300234FF482720B490C48C0
:101DD0000C4CA047044624B1204602B010BD00249C
:101DE000F9E740F213110848084B9847F4E700BFA1
:101DF000411D40000C060020100600202C31400040
:101E0000792140000914400010314000E12C4000CD
:101E1000F0B585B00C4616461F46054698B1154BE1
:101E2000186828B3009401960295052C19DC124B12
:101E3000984702280DD000231A4669460D480068CD
:101E40000E4CA04712E04FF4C1710D480D4B98475E
:101E5000E5E700230A9A694606480068074CA04750
:101E600004E000233A466946074CA04705B0F0BDA0
:101E70000020FBE70C060020011C4000390B40004D
:101E800010314000E12C4000250D400070B582B0BB
:101E90001A4B1B681A684AB3DB681E68DC68251D8C
:101EA0002846174B9847236A2046984794F82430D1
:101EB00013F0040FECD0A36933449E4207D2636051
:101EC000246129460D4B18680E4B9847E0E7002126
:101ED00000910B46324620460B4CA0470028D7D134
:101EE0004FF4617109480A4B9847D1E7094A1068D5
:101EF00002490860136002B070BD00BFD805002021
:101F0000CD01400099014000111E400010314000F9
:101F1000E12C4000DC05002038B50546084B984709
:101F20000446084B1B68984205D300232B60054BE1
:101F30001C60204638BD044B984701232B60F6E710
:101F4000BD154000080600208D1E400070B582B00F
:101F500005460E46164B1B68DB68DC68201D154BDA
:101F6000984794F8243013F0040F08D123F00103AC
:101F700084F82430236A2046984702B070BDA169D6
:101F80002B463246294420460B4EB0470028F1D05C
:101F9000002100910B462A462046084DA8470028FC
:101FA000E8D14FF4FC710648064B9847E2E700BFC2
:101FB000D8050020CD014000F51C4000111E400056
:101FC00010314000E12C400070B582B006460C464E
:101FD000174B984701A8174B9847019B2BBB054609
:101FE0000CB9B04218D224B1134B1B681B68D3B98B
:101FF00001242246711B114B1868114B9847114B55
:10200000984738B94FF080520F4B1A60BFF34F8F8B
:10201000BFF36F8F02B070BD0A4B98472946304618
:102020000A4B9847F6E70024E3E7064B9847F1E7A9
:10203000AD154000191F4000DC0500200C060020F3
:102040001D104000ED16400004ED00E04D1F400063
:1020500030B589B002E0049B002B0FDA002204A9FE
:102060003C4B18683C4B9847002870D0049B002BD1
:10207000F1DA07990698059B9847ECE7069C636997
:1020800013B1201D354B984703A8354B984705469B
:10209000049B092BE2D8DFE803F00505052E354C3B
:1020A00005052E3594F8243043F0010384F82430DC
:1020B0000599A0690B462A4601442046294DA847A8
:1020C0000028CBD0236A2046984794F8243013F098
:1020D000040FC3D0A269002100910B460598024469
:1020E0002046214CA0470028B8D140F213311F48A8
:1020F0001F4B9847B2E794F8243023F0010384F88B
:102100002430ABE794F8243043F0010384F8243002
:10211000059BA3613BB1A1692B462A462944204671
:10212000104CA0479AE740F22B311048104B9847CB
:10213000F1E794F8243013F0020F04D023F00103E8
:1021400084F824308AE720460A4B984786E709B08E
:1021500030BD00BF0C060020310E4000CD01400014
:10216000191F4000F51C4000111E400010314000B6
:10217000E12C4000BD06400000B583B001A8044B2F
:1021800098470199034B9847034B9847F6E700BFE0
:10219000D51C4000C91F40005120400010B5092047
:1021A0000E4CA0470A20A0470B20A0470C20A047B8
:1021B0000D20A0470A4B4FF080541C61C3F8A0408B
:1021C0004FF400301861C3F8A000064A02211161E3
:1021D000C2F8A0101C631863116310BDDD27400016
:1021E00000140E4000160E40012808D002280BD023
:1021F00003280ED0094BD86BC0F380507047074BB3
:10220000D86BC0F300707047044BD86BC0F34040EC
:102210007047034BD86BC0F34000704700140E406A
:1022200000160E4008B501280CD0022817D003284C
:1022300022D000292BD04FF48002174B1A63174B82
:10224000984708BD31B14FF08052134B1A63134BBE
:10225000984708BD4FF080520F4B5A63F7E731B1F2
:102260004FF400320C4B1A630C4B984708BD4FF4E7
:102270000032094B5A63F7E729B10222084B1A636F
:10228000064B984708BD0222054B5A63F8E74FF406
:102290008002014B5A63D2E700140E40E92140004E
:1022A00000160E4010B50446064B9847012804D08E
:1022B00001212046044B984710BD00212046024BC7
:1022C000984710BDE92140002522400010B41E4B64
:1022D0004FF080615961C3F8A0104FF080425A61FD
:1022E000C3F8A020194801244461C0F8A0405966F1
:1022F000C3F8901059651962C3F88410186F20F064
:1023000080601867586F20F0806058675A66C3F87D
:1023100090205A651A62C3F88420186F20F080401C
:102320001867586F20F080405867C3F8C010C3F892
:10233000D410C3F8B010C3F8C020C3F8D420C3F839
:10234000B0205DF8044B704700140E40000E0E40A4
:10235000012806D0022809D0074BD86BC0F38000B3
:102360007047064BD86BC0F380607047034BD86B47
:10237000C0F38070704700BF000E0E4000140E4086
:102380002DE9F04383B00468D0F80490C3681E6858
:10239000057C0BE002A9012301F8013D00230A227C
:1023A0002046214FB8476420204B98470120204BFE
:1023B00098470128EED002201D4B9847012811D0E4
:1023C00000201B4B98470128EDD1012D13D0022D81
:1023D00019D0032D1FD03046164B98470020164BBE
:1023E0009847E0E7002302A901F8013D0A222046B0
:1023F0000D4FB847D7E700231A46104909684846E9
:10240000094FB847E7E700231A460D4909684846CF
:10241000054FB847DFE700231A460A4909684846CE
:10242000DFF80480C047D6E7390B400005184000AC
:10243000512340007D144000351940000C0000205D
:10244000180000202400002008B50020034B984706
:102450004FF47A70024B9847F7E700BFA52240007F
:1024600005184000F0B583B004684768057A4FF45A
:10247000FA760AE0012D27D0022D2FD0032D37D078
:102480004FF4E17630462E4B984728462D4B98471F
:1024900020462D4B98470028F4D000220DF107016B
:1024A00020462A4B98470028ECD09DF80730012B96
:1024B000E0D0002BE6D1012D24D0022D2BD0032D0E
:1024C00033D040F22626DDE700231A46204909686A
:1024D0003846204EB0474FF4E176D3E700231A4642
:1024E0001D49096838461B4EB0474FF4E176C9E7ED
:1024F00000231A46194909683846164EB0474FF46A
:10250000E176BFE71A46164909683846114EB047CA
:1025100040F22626B6E700231A46124909683846D3
:102520000C4EB04740F22626ACE700231A460E496F
:1025300009683846074EB04740F22626A2E700BF9A
:1025400005184000A5224000C50F4000310E400094
:1025500010000020390B40001C0000202800002043
:1025600014000020200000202C00002010B58EB0A8
:1025700004462046084B98470028FAD04FF0FF3217
:1025800001A92046054B98470128F2D1322201A922
:102590000348044B9847ECE7C50F4000310E40005C
:1025A00000060E400D26400010B50446124B4FF4B5
:1025B000C0621A66C3F890205A655A62C3F8802038
:1025C000196F21F4C0611967596F21F4C06159670F
:1025D0005A600720094B9847AC23236034232362B9
:1025E0004FF40063636040F20223C4F820315023AB
:1025F0002360002010BD00BF000E0E40DD2740000C
:10260000436913F0020FFBD0C161704738B505462E
:102610000C4603E02846034B9847013421780029F3
:10262000F8D138BD0126400008B50E480E4B98473A
:102630003E2100200D4B98470D4B98470028FBD0BA
:102640000C4B98470C4A0D4B9A620D4B984700284B
:10265000FBD010200B4B98470B4B98470B48024B75
:10266000984708BD000E2707F12940005927400070
:10267000AD274000BD274000013F0F2000040E4061
:10268000CD27400005274000E128400000D8B805CC
:1026900010B54FF40042184B5A600920174CA04760
:1026A0000A20A0470B20A0470C20A0470D20A047E0
:1026B000134B4FF480021A61C3F8A0201A63A3F5EC
:1026C000C06304225A61C3F8A0205A66C3F8902060
:1026D0005A651A62C3F88420196F21F00401196742
:1026E000596F21F004015967C3F8C020C3F8D42002
:1026F000C3F8B02010BD00BF50180E40DD274000C9
:1027000000140E40134A136B23F070031843106338
:102710004FF400630F4A926E12F0080F02D1A3B17A
:10272000013BF7E70B4A136B23F0030343F002036B
:1027300013634FF40063074A926E12F0080F02D140
:102740002BB1013BF7E700207047012070470120C3
:10275000704700BF00040E40D0B9114A136A23F439
:102760005C1323F00303090289B20B4343F45C13A7
:1027700043F0010313620A4B9B6E13F0010FFAD072
:10278000074A136A43F09B7343F480331362704724
:1027900003490B6A034A1A40034B13430B62704709
:1027A00000040E40FCFFC8FE02003701024B986E89
:1027B00000F48030704700BF00040E404FF000521C
:1027C000014B9A62704700BF00040E40024B986EA6
:1027D00000F00200704700BF00040E402F281ED8F2
:1027E0001F280CD8114B9A6901238340934318D0BA
:1027F000012303FA00F00D4B1861002070472038C8
:102800000A4BD3F808210123834093430BD00123C3
:1028100003FA00F0054BC3F80001002070470120C7
:102820007047002070470020704700BF00040E4032
:10283000FEE7000000B583B01E4B1F4A9A4209D044
:102840001C4B1D4A03E011681960043304321B4914
:102850008B42F8D31A4B02E000221A600433194A63
:102860009342F9D3184A194B23F07F039360EFF397
:102870001083B3FA83F35B09019372B6BFF35F8FE2
:102880000022134B1A700199124A136843F4700323
:102890001360BFF34F8FBFF36F8F29B101220C4B31
:1028A0001A70BFF35F8F62B60B4B98470B4B98477C
:1028B000FEE700BF00000020EC3240005C04002076
:1028C0005C0400200407002000ED00E00000400050
:1028D0000400002088ED00E0352D4000E92A40008A
:1028E0003C4B1B6B03F00303012B20D083B1022B65
:1028F00039D0384B1B6B03F07003702B62D0354B13
:102900001A6BC2F3021234490B68D3400B60704754
:10291000324B5B6913F0800F04D04FF400422E4B12
:102920001A60E6E74FF4FA422B4B1A60E1E7294BB5
:102930001B6A13F0807F03D0294A274B1A60D8E71F
:10294000284A254B1A60234B1B6A03F07003102B97
:1029500005D0202BCDD1224A1F4B1A60C9E7224A4D
:102960001D4B1A60C5E71B4B1B6A13F0807F16D006
:102970001B4A194B1A60174B1B6B03F00303022B06
:10298000B7D11448826AC2F30A4213490B6802FBAA
:102990000333826AD2B2B3FBF2F30B60A9E7114AA8
:1029A0000D4B1A600B4B1B6A03F07003102B05D004
:1029B000202BE0D10A4A084B1A60DCE70A4A064B92
:1029C0001A60D8E7044A13680849A1FB03135B089F
:1029D0001360704700040E400800002010180E40DD
:1029E000001BB70000093D0000127A00ABAAAAAA9A
:1029F000144B98420FD9144B984211D9134B98425B
:102A000012D9134B984213D9124B984214D9124A37
:102A1000124B1A6070474FF08062104B1A6070477B
:102A20000F4A0E4B1A6070470E4A0C4B1A607047E3
:102A30000D4A0A4B1A6070474FF00422074B1A6088
:102A4000704700BFFF2C3101FF596202FF869303DC
:102A5000FFB3C404FFE0F50500050004000A0E40C2
:102A600000010004000200040003000400B589B066
:102A7000104BDA1D22F00702C3F1005303F50033B7
:102A800023F00703A3F58063009201934FF0C24344
:102A900002934FF4002303934FF0C6420492059330
:102AA0000023069307936846034B984709B05DF8E7
:102AB00004FB00BF083700204907400010B5064B53
:102AC0009847064B9847064B98470920054CA04766
:102AD0000A20A04710BD00BF2926400091264000D3
:102AE0006D2A4000DD2740002DE9F04F83B05A4B9E
:102AF00098475A4B98475A4B98475A4C20465A4B3E
:102B00009847002259492046594B984700220121F5
:102B10000520584CA047584D28600022012105206F
:102B2000A0476860002201210520A047A86000227C
:102B300032210520A047514B1860D5F800C0DFF8BE
:102B400090A1CAF800C0CAF804004D4E3368CAF814
:102B500008304C4F3B1DCAF80C3001248AF8104055
:102B6000D5F804E0DFF86C91C9F800E0C9F804007A
:102B70007368C9F8083007F10803C9F80C3002225D
:102B800089F81020AB68DFF85081C8F80030C8F829
:102B90000400B168C8F80810C8F80C70032188F860
:102BA0001010394DC5F800C068602C72374DC5F85B
:102BB00000E068602A72DFF824B1CBF80030CBF86F
:102BC00004008BF8081000230193009482223049FE
:102BD0003048314DA8470023019300942F4B8222A7
:102BE0002F493048A84701960094274B82222E494E
:102BF0002E48A847331D01930094244B82222C4970
:102C00002A48A8470836019600945B468222294943
:102C10002648A847284E0197009453468222274908
:102C20003046A8473B1D019300944B46822224491D
:102C30003046A84707F108030193009443468222D7
:102C400020493046A84778681F4CA047B868A0477D
:102C50001E4B9847FEE700BFBD2A40009D21400063
:102C6000CD22400000060E40A9254000343140002E
:102C70000D264000E50A40002C0600203C060020FE
:102C8000200600201406002094060020B406002030
:102C90004431400049244000091440003806002017
:102CA000543140006D2540006431400065244000EF
:102CB000703140007C314000812340008831400069
:102CC000A4314000C0314000351940001D154000BE
:102CD000A006002080060020C0060020D4060020A8
:102CE00082B0002301934FF0500383F31188BFF3A8
:102CF0006F8FBFF34F8F00E000BF019B002BFBD015
:102D0000002383F3118802B07047000008B5DB216F
:102D10000148024B984708BDB4324000E12C400006
:102D20004FF0500383F31188BFF36F8FBFF34F8FC2
:102D3000FEE7000070B50F4E0F4D761BB61018BFA2
:102D4000002405D0013455F8043B9847A642F9D138
:102D50000A4E0B4D761B00F0B7FAB61018BF0024D0
:102D600006D0013455F8043B9847A642F9D170BD0E
:102D700070BD00BFD4324000D4324000DC3240008D
:102D8000D4324000844641EA000313F003036DD1BE
:102D9000403A41D351F8043B40F8043B51F8043B1E
:102DA00040F8043B51F8043B40F8043B51F8043B25
:102DB00040F8043B51F8043B40F8043B51F8043B15
:102DC00040F8043B51F8043B40F8043B51F8043B05
:102DD00040F8043B51F8043B40F8043B51F8043BF5
:102DE00040F8043B51F8043B40F8043B51F8043BE5
:102DF00040F8043B51F8043B40F8043B51F8043BD5
:102E000040F8043B51F8043B40F8043B51F8043BC4
:102E100040F8043B403ABDD2303211D351F8043B64
:102E200040F8043B51F8043B40F8043B51F8043BA4
:102E300040F8043B51F8043B40F8043B103AEDD213
:102E40000C3205D351F8043B40F8043B043AF9D264
:102E5000043208D0D2071CBF11F8013B00F8013B37
:102E600001D30B8803806046704700BF082A13D344
:102E70008B078DD010F003038AD0C3F10403D21A5C
:102E8000DB071CBF11F8013B00F8013B80D331F890
:102E9000023B20F8023B7BE7043AD9D3013A11F810
:102EA000013B00F8013BF9D20B7803704B7843707B
:102EB0008B7883706046704770B4860746D0541E86
:102EC000002A41D0CAB2034602E014F1FF343BD3DA
:102ED00003F8012B9D07F8D1032C2ED9CDB245EA7A
:102EE00005250F2C45EA054519D903F110022646A0
:102EF000103E0F2E42F8105C42F80C5C42F8085C61
:102F000042F8045C02F11002F2D8A4F1100222F09F
:102F10000F0204F00F041032032C13440DD91E4687
:102F20002246043A032A46F8045BFAD8221F22F00C
:102F300003020432134404F003042CB1C9B21C444C
:102F400003F8011B9C42FBD170BC7047144603463A
:102F5000C2E700BF024B13B1024800F005B870474A
:102F600000000000752F4000002301461A46184655
:102F700000F01EB838B50A4C0A4D641BA4100AD0E4
:102F800004F18043013B05EB8305013C55F804390E
:102F90009847002CF9D1BDE8384000F09FB900BF38
:102FA000EC324000E8324000704700BF704700BF7D
:102FB0002DE9F8432C4D0646286898460F46914661
:102FC000FFF7F2FF294B1C68D4F84831002B3ED0A4
:102FD0005A681F2A1CDC02F1010E76B103EB820154
:102FE0000124C1F88890D3F8880194402043022E30
:102FF000C3F88801C1F8088123D00232C3F804E085
:10300000286843F82270FFF7D1FF0020BDE8F8835D
:10301000174B0BB34FF4C870AFF300800346D8B121
:10302000D4F848210260002141600A46C4F84801F2
:103030004FF0010EC0F88811C0F88C11002EDCD0C2
:10304000CCE7D3F88C110C43C3F88C41D5E704F5D9
:10305000A673C4F84831BBE72868FFF7A7FF4FF015
:10306000FF30BDE8F88300BF58040020C4324000A0
:10307000000000002E2E2F7372632F46726565527A
:10308000544F532F706F727461626C652F474343C6
:103090002F41524D5F434D34462F706F72742E6333
:1030A000000000002E2E2F7372632F46726565524A
:1030B000544F532F706F727461626C652F4D656D44
:1030C0004D616E672F686561705F352E630000008B
:1030D0002E2E2F7372632F4672656552544F532FF5
:1030E00071756575652E63002E2E2F7372632F46E2
:1030F00072656552544F532F7461736B732E630066
:1031000049444C4500000000546D7251000000001D
:103110002E2E2F7372632F4672656552544F532FB4
:1031200074696D6572732E6300000000546D722027
:103130005376630054686973206973204C6162336D
:103140000D0A00004C4544302048656172742042ED
:10315000656174004D61696E20554152542054617F
:10316000736B00004C45442031205461736B0000A8
:103170004C45442032205461736B00004C45442080
:1031800033205461736B00004D61696E20436F6E94
:1031900074726F6C205461736B20666F72204C45A3
:1031A000443100004D61696E20436F6E74726F6C24
:1031B000205461736B20666F72204C4544320000CE
:1031C0004D61696E20436F6E74726F6C2054617331
:1031D0006B20666F72204C45443300004C45442000
:1031E00033204953204E4F57204143544956450DF3
:1031F0000A0000004C45442032204953204E4F57CE
:10320000204143544956450D0A0000004C454420D6
:1032100031204953204E4F57204143544956450DC4
:103220000A0000007175657565204C4544332069BE
:103230006E6372656173650D0A00000071756575D6
:1032400065204C45443220696E6372656173650D7B
:103250000A0000007175657565204C454431206990
:103260006E6372656173650D0A00000071756575A6
:1032700065204C4544332064656372656173650D58
:103280000A0000007175657565204C454432206464
:10329000656372656173650D0A000000717565757F
:1032A00065204C4544312064656372656173650D2A
:1032B0000A0000002E2E2F7372632F6D61696E2E2F
:1032C0006300000030000020F8B500BFF8BC08BC67
:1032D0009E467047552F40001D014000F8B500BFC5
:0C32E000F8BC08BC9E467047F900400096
:1032EC00AAAAAAAA0100000000093D000C32400065
:1032FC009C32400054324000F43140008432400093
:10330C003C324000DC3140006C3240002432400042
:10331C00000000001C03002084030020EC030020AC
:10332C000000000000000000000000000000000091
:10333C000000000000000000000000000000000081
:10334C000000000000000000000000000000000071
:10335C000000000000000000000000000000000061
:10336C000000000000000000000000000000000051
:10337C000000000000000000000000000000000041
:10338C000000000000000000000000000000000031
:10339C000000000000000000000000000000000021
:1033AC000000000000000000000000000000000011
:1033BC000000000000000000010000000000000000
:1033CC000E33CDAB34126DE6ECDE05000B000000C5
:1033DC0000000000000000000000000000000000E1
:1033EC0000000000000000000000000000000000D1
:1033FC0000000000000000000000000000000000C1
:10340C0000000000000000000000000000000000B0
:0C373C000000000000000000E00600207B
:04000005004028355A
:00000001FF
