S00D00004C616230332E73726563A5
S214400000503700205D2640005926400059264000C3
S214400010592640005926400059264000000000005E
S214400020000000000000000000000000A1024000A8
S214400030592640000000000041034000A503400050
S214400040592640005926400059264000592640006F
S214400050592640005926400059264000592640005F
S214400060592640005926400059264000592640004F
S214400070592640005926400059264000592640003F
S214400080592640005926400059264000592640002F
S214400090592640005926400059264000592640001F
S2144000A0592640005926400059264000592640000F
S2144000B059264000592640005926400059264000FF
S2144000C059264000592640005926400059264000EF
S2144000D059264000592640005926400059264000DF
S2144000E059264000592640005926400059264000CF
S2144000F0592640005926400010B5054C237833B9A0
S214400100044B13B10448AFF300800123237010BDA5
S214400110A404002000000000383040000C4B43B1DF
S2144001200C480D4910B5AFF300800C48036823B95E
S21440013010BD0A48036833B97047094B002BF7D007
S214400140BDE810401847064B002BF5D0184700BFB7
S2144001500000000038304000A8040020383040003E
S2144001600000000000F1080343604FF0FF32826059
S214400170C360036100230360704700230361704738
S21440018043684B609A688A609A68516099600861D3
S214400190036801330360704730B40D68B5F1FF3F24
S2144001A002D000F1080202E0026904E01A465368F1
S2144001B01C68A542FAD253684B6099608A605160C9
S2144001C0086103680133036030BC704703694268C6
S2144001D0816891608268416851605A68904206D052
S2144001E0002202611A68013A1A60186870478268ED
S2144001F05A60F5E708480068006880F308884FF0C2
S214400200000080F3148862B661B6BFF34F8FBFF329
S2144002106F8F00DF00BF000008ED00E0DFF80C0045
S214400220016841F4700101607047000088ED00E00D
S21440023000B583B0002301930B4B1B68B3F1FF3F1F
S21440024003D0E32109480A4B98474FF0500383F305
S2144002501188BFF36F8FBFF34F8F019B002BFCD0ED
S21440026003B05DF804FB00BF00000020982E40005D
S214400270052B40004FF0807340F8043C21F001010C
S21440028040F8081C054B40F80C3C40F8202C6FF01A
S214400290020340F8243C4438704700BF3102400017
S2144002A0074B19680868B0E8F04F80F30988BFF339
S2144002B06F8F4FF0000080F311887047AFF30080D7
S2144002C0E004002008B54FF0500383F31188BFF3D5
S2144002D06F8FBFF34F8F094A136801331360012BAA
S2144002E000D008BD064B1B6813F0FF0FF9D040F254
S2144002F09F110448044B9847F3E700BF00000020D6
S21440030004ED00E0982E4000052B400008B5084B51
S2144003101B683BB1064A1368013B13600BB983F375
S214400320118808BD4FF4D3710248034B9847F1E754
S21440033000000020982E4000052B400000000000E2
S214400340EFF30980BFF36F8F154B1A681EF0100F3E
S21440035008BF20ED108A20E9F04F10602DE9090013
S2144003604FF0500080F31188BFF34F8FBFF36F8F6D
S21440037001F004FA4FF0000080F3118809BC1968B8
S2144003800868B0E8F04F1EF0100F08BFB0EC108AB7
S21440039080F30988BFF36F8F704700BFAFF30080CC
S2144003A0E004002008B54FF0500383F31188BFF3F4
S2144003B06F8FBFF34F8F054B984718B14FF0805261
S2144003C0034B1A60002383F3118808BDE5144000F0
S2144003D004ED00E0084A0023136008490B60084B10
S2144003E01B680849A1FB03139B09013B06490B60A8
S2144003F007231360704700BF10E000E018E000E0FD
S21440040008000020D34D621014E000E010B582B022
S214400410344B1A68344B9A4218D0324B1A68334BD6
S2144004209A4219D0324B1A78D2B20192FF221A70F1
S2144004301B78DBB28DF803309DF8033003F0500391
S2144004402C4A137007222C4B1A6015E04FF4947117
S2144004502A482B4B9847E0E740F229112748284B7B
S2144004609847DFE7244A1368013B13609DF8033042
S2144004705B00DBB28DF803309DF8033013F0800F3D
S214400480F0D11D4B1B68032B04D04FF4AD711B48B5
S2144004901B4B9847184A13681B0203F4E06313602B
S2144004A0019BDBB2124A1370164B1A6842F4700274
S2144004B01A601A6842F070421A60134B984700243C
S2144004C0124B1C60124B9847124A136843F0404345
S2144004D01360114B9847114B9847114B984720464D
S2144004E002B010BD00ED00E071C20F4170C20F4176
S2144004F000E400E0C0040020C4040020982E400021
S214400500052B400020ED00E0D50340000000002011
S2144005101D02400034EF00E0F50140007D1740002A
S2144005203102400008B5EFF305830F2B06D90E4A7B
S2144005309B5CDBB20D4A1278934208D30C4B1B6887
S21440054003F4E0630B4A1268934206D808BD40F2B3
S214400550F2210948094B9847F0E740F20231064835
S214400560064B9847F2E700BFF0E300E0C0040020E7
S2144005700CED00E0C4040020982E4000052B4000FF
S21440058010B4134A00E01A4613688342FBD35168FE
S2144005905418A0420AD041684418A3420BD00360C6
S2144005A0904200D010605DF8044B704740680144AC
S2144005B051601046EFE7074C2468A34206D05B68BC
S2144005C01944416013681B680360E9E70460E7E785
S2144005D0D8040020C804002070B505462C4B1B6884
S2144005E0B3B12C4B98472C4B1B681D4245D135B1B7
S2144005F0083515F0070F02D025F007050835002D01
S2144006003DD0264B1B689D423BD8254A146806E0E1
S2144006108B212448244B9847E3E722461C466368D0
S2144006209D4202D92368002BF7D1194B1B689C4288
S21440063029D0166808362368136063685B1B102B46
S21440064015D8626815490B689B1A0B6017490968EC
S2144006508B4201D215490B600F4B1B6813436360F6
S21440066000232360124B98477EB1304670BD601918
S214400670436065600F4B9847E3E70026F2E70026A5
S214400680F0E70026EEE70026ECE70B4B9847ECE752
S214400690C8040020C9144000CC040020D004002028
S2144006A0D8040020C82E4000052B4000D40400206B
S2144006B00916400081054000312B4000002833D009
S2144006C038B50446A0F1080550F8042C174B1B68B3
S2144006D01A4211D054F8083C23B14FF49071144894
S2144006E0144B984754F8043C104A1268134202D000
S2144006F054F8081C31B138BD40F21F110C480D4B60
S2144007009847E7E723EA020344F8043C0A4B984735
S21440071054F8041C094A13680B4413602846084BD7
S2144007209847084B9847E6E7704700BFCC04002040
S214400730C82E4000052B4000C9144000D0040020BD
S21440074081054000091640002DE9F04180462C4BBB
S2144007501B6823B140F293112A482B4B98474346D7
S214400760002637461BE0264B1B685BB3244B1B68B2
S2144007709D422DD9224A11686319083B23F007038E
S214400780136000225A601A602A46581B68602B6025
S21440079001B10D6053681F44013608EBC6035C6820
S2144007A0E4B11D6815F0070F05D0EB1D23F00703D5
S2144007B0ED1A2C441D46002ED5D1144B1D60002248
S2144007C05A60D7E74FF4DA710E480F4B9847CDE79B
S2144007D040F2B7110B480C4B9847CBE70C4B1F60C9
S2144007E00C4B1F602FB14FF000420B4B1A60BDE818
S2144007F0F0814FF4F0710348034B9847F3E700BF8E
S214400800C8040020C82E4000052B4000D804002015
S214400810D4040020D0040020CC04002010B50446A8
S214400820064B9847A26BE36B9A4204D00024044BD5
S2144008309847204610BD0124F9E700BFC502400096
S2144008400D03400010B50446054B9847A36B23B1F3
S2144008500024044B9847204610BD0124F9E700BF0A
S214400860C50240000D03400070B504461646856B31
S214400870026C5AB903681BB100200135A56370BDF0
S2144008808068174B98470023A360F6E76EB9406828
S214400890144B9847226C636813446360A268934283
S2144008A019D3236863600020E7E7C0680D4B98477C
S2144008B0226C5242E3681344E36021688B4202D2C2
S2144008C0A3681A44E260022E01D00020D5E725B185
S2144008D0013D0020D1E70020CFE70020CDE700BF54
S2144008E03D1B4000A92B400070B582B001900E46DB
S2144008F0846C5CB1A26BE36B9A420DD2A26BE36B45
S2144009009A420FD30026304602B070BD40F64531BD
S2144009101248134B9847EDE740F646310F48104BC8
S2144009209847EBE794F845506DB2324601A9204609
S2144009300C4B98470646B5F1FF3F04D001356DB2E3
S21440094084F84550DFE7636A002BDCD004F12400CE
S214400950054B98470028D6D00126D4E7F42E400011
S214400960052B400069084000DD194000026C72B15A
S21440097010B5C3681344C3608468A34201D30368B8
S214400980C3600C46C1682046014B984710BD70476F
S214400990A92B400038B505461F4B984795F845406B
S2144009A064B208E06B6ABBB105F124001B4B984764
S2144009B078B9013C64B2002C0EDDAB6C002BF1D054
S2144009C000212846164B98470028F2D0154B9847EA
S2144009D0EFE7144B9847ECE7FF2385F84530124B7A
S2144009E098470D4B984795F8444064B201E0013C67
S2144009F064B2002C0ADD2B6943B105F11000074BA9
S214400A0098470028F3D0074B9847F0E7FF2385F830
S214400A104430054B984738BDC5024000DD194000BC
S214400A20E9084000111B40000D03400038B50D4654
S214400A300446D0B11B4B98472168E26B236C03FBFE
S214400A400210A0600020A0636160013A02FB03131D
S214400A50E360FF2384F8443084F84530D5B92369F1
S214400A604BB9114B9847012038BD40F203110F484F
S214400A700F4B9847DEE704F110000E4B98470028CE
S214400A80EFD04FF080520C4B1A60BFF34F8FBFF33E
S214400A906F8FE6E704F11000084DA84704F12400E4
S214400AA0A847DEE7C50240000D034000F42E400094
S214400AB0052B4000DD19400004ED00E065014000D4
S214400AC010B5029C0B4649B12260E06323640121C5
S214400AD02046034B98470023A36410BD2460F4E7E8
S214400AE02D0A4000F0B583B00D461746064690B135
S214400AF0BDB105FB06F04C300B4B9847044638B169
S214400B0000903B4600F14C0229463046074DA84728
S214400B10204603B0F0BD4FF4BB710548054B9847DF
S214400B20E6E70020E7E700BFD9054000C10A4000DD
S214400B30F42E4000052B4000F0B585B00F460192DC
S214400B401E46044668B197B10123B3B1022E1AD0AF
S214400B500123EBB1634B984700BB019B13BB0123BA
S214400B601DE040F2F1216048604B9847EBE7236C6C
S214400B700BB90123E9E70023E7E740F2F2215A48A0
S214400B805A4B9847E2E7E36B012BE2D00023E0E7BD
S214400B9040F2F3215448554B9847DBE701231BB1FD
S214400BA0002558E00023FAE740F2F6214E484F4B26
S214400BB09847F5E7A56B3246394620464C4B984752
S214400BC0A36CB3B1022E11D031462046494B98470C
S214400BD038B14FF08052484B1A60BFF34F8FBFF387
S214400BE06F8F464B9847012005B0F0BD002DEBD0E7
S214400BF0F7E7636A53B90028F3D04FF080523E4B74
S214400C001A60BFF34F8FBFF36F8FEAE704F12400FB
S214400C103B4B98470028E4D04FF08052364B1A6042
S214400C20BFF34F8FBFF36F8FDBE7344B98470020FF
S214400C30DAE702A8334B9847012519E0002384F8E9
S214400C40443021E0002384F8453023E020462E4BF4
S214400C5098472E4B98472E4B9847A26BE36B9A4289
S214400C60A8D3022EA6D0019B002BDED0002DE0D0CC
S214400C70224B9847274B9847254B984794F8443043
S214400C805BB2B3F1FF3FD9D094F845305BB2B3F1D5
S214400C90FF3FD7D0194B984701A902A81E4B98474B
S214400CA0C8B920461D4B98470028CFD0019904F17B
S214400CB010001B4B98472046134B9847134B9847BA
S214400CC00028C8D14FF080520B4B1A60BFF34F8FAD
S214400CD0BFF36F8FBFE720460B4B98470B4B9847A9
S214400CE0002081E71D1B4000F42E4000052B4000ED
S214400CF069084000E908400004ED00E00D034000AC
S214400D00DD194000711A4000950940000916400060
S214400D10C5024000C9144000891A40001D08400022
S214400D20551940002DE9F8430F4691461E460446A5
S214400D30E8B117B3012333B3022E2AD001236BB395
S214400D40354B9847EFF311884FF0500383F31188E3
S214400D50BFF36F8FBFF34F8FA26BE36B9A4223D3E1
S214400D60022E21D0002088F31188BDE8F88340F297
S214400D70C3312A482A4B9847DBE7236C0BB901233B
S214400D80D9E70023D7E74FF471712448244B98479E
S214400D90D2E7E36B012BD2D00023D0E740F2C53137
S214400DA01E481F4B9847CBE794F845506DB23246E5
S214400DB0394620461B4B9847B5F1FF3F05D00135D5
S214400DC06DB284F845500120CDE7A36C5BB1314647
S214400DD02046154B9847B0B1B9F1000F15D0012009
S214400DE0C9F80000BFE7636A0BB90120BBE704F10E
S214400DF024000E4B984750B1B9F1000F09D001209E
S214400E00C9F80000AFE70120ADE70120ABE70120BD
S214400E10A9E70120A7E700BF25054000F42E4000C3
S214400E20052B400069084000E9084000DD194000F5
S214400E30F0B585B00F460192044648B177B101231C
S214400E4093B1514B9847A8B9019BBBB9012312E017
S214400E504FF4A0614D484E4B9847EFE7236C0BB9D3
S214400E600123EDE70023EBE740F204514748484BA7
S214400E709847E6E701231BB1002644E00023FAE743
S214400E8040F209514148424B9847F5E739462046DB
S214400E90404B9847013DA563236923B93E4B98478D
S214400EA0012005B0F0BD04F110003C4B98470028E7
S214400EB0F4D04FF080523A4B1A60BFF34F8FBFF3D7
S214400EC06F8FEBE7344B98470020EAE702A8354B94
S214400ED09847012621E0002384F8443029E0002387
S214400EE084F845302BE020462F4B98472F4B9847A9
S214400EF009E020462C4B98472C4B984720462C4BD5
S214400F00984700283DD12B4B9847A56B002DBDD167
S214400F10019B002BD6D0002ED8D01F4B9847264B8F
S214400F209847244B984794F844305BB2B3F1FF3F60
S214400F30D1D094F845305BB2B3F1FF3FCFD0164BDB
S214400F40984701A902A81D4B98470028D1D12046B2
S214400F50174B98470028C6D0019904F12400184B37
S214400F6098472046104B9847104B98470028CAD1C0
S214400F704FF080520A4B1A60BFF34F8FBFF36F8F0C
S214400F80C1E700208DE700BF1D1B4000F42E400047
S214400F90052B40006D0940000D034000DD19400060
S214400FA004ED00E0711A4000950940000916400023
S214400FB045084000C5024000C9144000891A400058
S214400FC05519400010B5044630B1064B9847A46BFF
S214400FD0054B9847204610BD40F28A710348044BA3
S214400FE09847F2E7C50240000D034000F42E40004B
S214400FF0052B40000023072B0CD8074A52F8332015
S2144010000AB10133F7E7044A42F8331002EBC30350
S21440101058607047704700BF8806002070B5044689
S2144010200D461646124B984794F844305BB2B3F1DF
S214401030FF3F0DD094F845305BB2B3F1FF3F0BD085
S2144010400C4B9847A36B5BB120460B4B984770BD43
S214401050002384F84430EDE7002384F84530EFE77A
S2144010603246294604F12400044B9847ECE700BF7B
S214401070C50240000D034000950940009519400008
S214401080084B1B681B683BB1064B1B68DB68DB687C
S2144010905A68054B1A6070474FF0FF32024B1A6091
S2144010A0704700BFE4040020D005002038B5054650
S2144010B0006B024CA0472846A04738BDBD064000FE
S2144010C02DE9F84F81460D4617469A460A9EDDF8AA
S2144010D02C800C9C9200A521206B254B9847236BB7
S2144010E007F18042013A03EB820727F0070715B362
S2144010F00023132B07D8E95CE21882F83410EA5C28
S2144011000AB10133F5E7002384F84730072E00D9AB
S2144011100726E662A6640025E564201DDFF858B081
S214401120D84704F11800D8472461C6F10806A661DE
S21440113064622B4609E0002384F83430E6E703F186
S2144011401402002144F822100133022BF7D9002361
S214401150E36584F86030524649463846054B984722
S2144011602060B8F1000F01D0C8F80040BDE8F88F05
S214401170DD2C4000750240007B01400070B5002425
S21440118007E004EB840293000C4818440C4B984745
S2144011900134072CF5D90B4E3046094CA0470A4D72
S2144011A02846A0470948A0470948A0470948A047FD
S2144011B0094B1E60094B1D6070BD00BFEC0400204B
S2144011C065014000A4050020B8050020D805002091
S2144011D004060020F0050020E4040020E804002077
S2144011E010B50446214B9847214A136801331360D3
S2144011F0204B1B68002B31D01F4B1B683BB91D4B47
S2144012001B68DA6AE36A9A4201D81A4B1C601B4A8A
S214401210136801331360E36A01229A40184908684C
S21440122002430A6003EB83039A00211D15481044CD
S214401230154B9847154B98470F4B1B686BB10D4B9A
S2144012401B68DA6AE36A9A4207D24FF08052104B24
S2144012501A60BFF34F8FBFF36F8F10BD054B1C60F6
S2144012601368012BD3D10B4B9847D0E7C5024000FB
S2144012708C050020E0040020EC0500209C050020A2
S214401280A0050020EC040020810140000D03400032
S21440129004ED00E07D1140000F4B1B68D3B110B544
S2144012A00E4B98470E4BDB68DC68201D0D4B98476D
S2144012B00D4A1368013B1360074A1368013B1360ED
S2144012C00A4B984720460A4B9847034B1B68002B0F
S2144012D0E6D110BD704700BF90050020C502400013
S2144012E004060020CD0140008C0500200D03400080
S2144012F0AD10400008B5074B9847074B1B68012BBD
S214401300F9D94FF08052054B1A60BFF34F8FBFF3A9
S2144013106F8FF0E799124000EC04002004ED00E0E7
S21440132070B504460E461D4B1D681D4B18680430AC
S2144013301C4B984750B91A4B1B68DA6A012303FACC
S21440134002F219490B6823EA02030B60B4F1FF3F2F
S21440135013D02C44124B1B685C60A54216D8134B26
S21440136018680F4B19680431114B9847114B1B688E
S2144013709C4201D20F4B1C6070BD002EE9D0084B3A
S214401380196804310C480D4B984770BD0C4B1868D3
S214401390034B19680431064B984770BD1806002069
S2144013A0E0040020CD014000A0050020E404002019
S2144013B099014000D0050020F00500208101400042
S2144013C0E80400202DE9F04385B006460F46154652
S2144013D098469000144B984700B381466420124BC1
S2144013E098470446B0B1C0F83090CCB10023039380
S2144013F002940D9B01930C9B009343462A46394624
S21440140030460A4DA8472046094B9847012005B06C
S214401410BDE8F0834846074B9847E6E70024E4E7F4
S2144014204FF0FF30F3E700BFD9054000C110400041
S214401430E1114000BD06400010B582B0174B019345
S21440144000230093822216491648174CA0470128CD
S21440145006D0012807D0B0F1FF3F19D002B010BD2A
S214401460124B9847F5E74FF0500383F31188BFF3CC
S2144014706F8FBFF34F8F4FF0FF320D4B1A60012234
S2144014800C4B1A6000220C4B1A600C4B9847E5E751
S2144014904FF402610A480B4B9847DFE7CC05002023
S2144014A0242F4000F5124000C5134000CD1C4000DC
S2144014B0D0050020EC050020180600200D04400052
S2144014C00C2F4000052B4000024A1368013313607E
S2144014D0704700BF98050020014B1868704700BF52
S2144014E018060020F8B5384B1B68002B61D1374BE7
S2144014F01E6801361E607EB9354B1B681B68E3B913
S214401500334A1168334B186810601960324A1368C2
S21440151001331360314B9847314B1B689E423ED295
S2144015200027304B1B68DB6A03EB83039A002E4B85
S2144015309B58012B42D9012740E040F67F212B489B
S2144015402B4B9847DCE70127214B1B681B6843B3AE
S2144015501F4B1B68DB68DC6863689E4226D3251DEC
S2144015602846244B9847A36A1BB104F11800214B28
S2144015709847E36A01229A401F49086802430A6076
S21440158003EB83039A002946174810441B4B9847A1
S214401590E26A144B1B68DB6A9A42D4D2D4E700272F
S2144015A0D2E74FF0FF320E4B1A60BAE70C4A136090
S2144015B0B7E7134A1368013313600027114B1B68C3
S2144015C003B101273846F8BD9805002018060020CC
S2144015D0E4040020E8040020D405002081104000E8
S2144015E0D0050020E0040020EC0400200C2F400032
S2144015F0052B4000CD014000A005002081014000A1
S214401600940500201C06002070B5344B1B68002B48
S21440161034D0334B9847314B1A68013A1A601B68EE
S214401620002B54D12F4B1B68002B2DD000242E4B63
S2144016301B68002B2AD02C4BDB68DC6804F11800B2
S2144016402A4EB047251D2846B047E36A01229A40F5
S2144016502749086802430A6003EB83039A00294639
S21440166024481044244B9847E26A244B1B68DB6AA4
S2144016709A42DCD30122224B1A60D8E740F6850115
S2144016802048214B9847C4E7002421E00CB11F4B6B
S21440169098471F4B1C6874B9194B1B68E3B14FF051
S2144016A080521C4B1A60BFF34F8FBFF36F8F0124DD
S2144016B00EE0013C07D0184B98470028F9D001228D
S2144016C00F4B1A60F5E70022114B1A60E4E700243E
S2144016D0124B9847204670BD0024F9E79805002035
S2144016E0C50240008C050020D8050020CD014000F2
S2144016F0A0050020EC04002081014000E00400200A
S2144017001C0600200C2F4000052B40008110400096
S2144017109405002004ED00E0E51440000D03400071
S21440172010B5D8B104460E4B1B688BB90D4B984785
S214401730002120460C4B98470C4B984738B94FF041
S21440174080520B4B1A60BFF34F8FBFF36F8F10BDA5
S21440175040F23C510748084B9847E7E70020EDE742
S21440176098050020C9144000211340000916400087
S21440177004ED00E00C2F4000052B40002C4B1B686E
S214401780002B35D110B500222A4B1A602A4B1B6815
S2144017901B6B1A68B2F1A53F2ED0274B1868196804
S2144017A03431264B9847264B1C68B4FA84F4E4B28E
S2144017B0C4F11F0404EB84029300224AD35843B377
S2144017C02049A300181982000A44506840685060B7
S2144017D023449A0008321144884220D004EB840403
S2144017E0A200184B13445B68DA68134B1A6010BDAE
S2144017F00122104B1A6070475A68B2F1A53FCCD10F
S2144018009A68B2F1A53FC8D1DB68B3F1A53FC4D111
S214401810C9E740F6B7310C480C4B9847D0E74168CB
S21440182004EB84039A00074B13445960D6E700BF85
S214401830980500201C060020E0040020452B4000B0
S214401840A0050020EC0400200C2F4000052B400093
S21440185038B504462F4B9847002C2BD0251D2846DC
S2144018602D4B984768B9E36A03EB83018A002B49FE
S2144018708A5832B901229A4029490B6823EA020362
S2144018800B60A36A1BB104F11800234B9847294606
S2144018902448254B984794F86030DBB2012B0CD097
S2144018A0224B9847224B1B685BB9224B1B689C42D5
S2144018B00ED038BD1F4B1C68D0E7002384F860303C
S2144018C0EEE7144B98471C4B9847184B9847ECE765
S2144018D0174B1B688BB1194B1B6843B94FF08052AE
S2144018E0174B1A60BFF34F8FBFF36F8F38BD40F270
S2144018F0E4611448144B9847F0E70A4B1A68134BB8
S2144019001B689A4202D0124B9847D2E70022094BF6
S2144019101A6038BDC5024000CD014000EC040020EE
S214401920A0050020F0050020810140000D03400086
S214401930EC050020E00400208110400098050020BF
S21440194004ED00E00C2F4000052B40008C050020E5
S2144019507D17400038B50C46054650B1084B19680F
S21440196018312846074B984701212046064B984792
S21440197038BD40F6CE310548054B9847EEE700BFE8
S214401980E004002099014000211340000C2F400045
S214401990052B400070B50D461446064668B10A4B06
S2144019A0196818313046094B98470CB14FF0FF354F
S2144019B021462846064B984770BD40F6F931054803
S2144019C0054B9847EBE700BFE0040020810140004C
S2144019D0211340000C2F4000052B400038B5C3684B
S2144019E0DC6824B304F118052846174B9847174B74
S2144019F01B6813BB251D2846134B9847E36A0122F4
S214401A009A401349086802430A6003EB83039A002E
S214401A10294610481044104B9847E26A0F4B1B6803
S214401A20DB6A9A420ED901200D4B186038BD40F64D
S214401A3029410C480C4B9847D4E729460B48064B9F
S214401A409847EAE7002038BDCD01400098050020C1
S214401A50A0050020EC04002081014000E0040020A6
S214401A601C0600200C2F4000052B4000D805002007
S214401A70034B1B680360034B1B684360704700BF03
S214401A80D405002018060020F8B50C460546D0B10F
S214401A90FCB1184B9847184B19686A68881A23682F
S214401AA0B3F1FF3F22D02F68144E3668B74201D0BC
S214401AB091421DD2984212D3002323600124104B3A
S214401AC098472046F8BD40F694410E480E4B98473E
S214401AD0DEE740F695410B480B4B9847D9E71B1A73
S214401AE023602846094B98470024E8E70024E6E7A9
S214401AF00124E4E7C502400018060020D405002073
S214401B000D0340000C2F4000052B4000711A40008A
S214401B100122014B1A6070471C060020054B1B68CB
S214401B2023B1054B1B681BB9022070470120704744
S214401B3000207047EC05002098050020002845D07E
S214401B4038B50446234B1B68984204D040F6D17102
S214401B502148224B9847E36C4BB1E36C013BE3646E
S214401B60E16AA26C914233D03BB1002038BD40F6CA
S214401B70D2711948194B9847EFE7251D2846184B50
S214401B80984768B9E36A03EB83018A0015498A5887
S214401B9032B901229A4014490B6823EA02030B60CB
S214401BA0A36CE362C3F10802A261012404FA03F2C3
S214401BB00D49086802430A6003EB83039A002946EE
S214401BC008481044094B9847204638BD00207047C7
S214401BD0002038BDE00400200C2F4000052B4000BC
S214401BE0CD014000EC040020A0050020810140000B
S214401BF0064B1A6813682BB90123036023B9D368D0
S214401C00186870470023F8E7002070472006002039
S214401C1008B54160006191420CD8D21A83699A4255
S214401C2001D3012008BD011D094B1868094B984790
S214401C30002008BD9A4201D2994206D2011D064BA9
S214401C401868044B9847002008BD012008BD00BF17
S214401C5024060020990140002006002070B5104B55
S214401C609847104B1B6813B10F4B984770BD0F4DEC
S214401C7028460F4EB0470F4C2046B0470E4B1D60CF
S214401C800E4B1C600022102105200D4B9847054B3B
S214401C9018600028E8D00B490B4B9847E4E700BF94
S214401CA0C5024000540600200D03400028060020D0
S214401CB0650140003C060020200600202406002047
S214401CC0E50A40002C2F4000F50F400010B582B0CA
S214401CD00E4B98470E4B1B687BB10E4B0193072368
S214401CE0009300234FF482720B490C480C4CA047DB
S214401CF0044624B1204602B010BD0024F9E740F265
S214401D0013110848084B9847F4E700BF5D1C400095
S214401D105406002058060020502F400095204000D2
S214401D20C5134000342F4000052B4000F0B585B069
S214401D300C4616461F46054698B1154B186828B3FC
S214401D40009401960295052C19DC124B9847022800
S214401D500DD000231A4669460D4800680E4CA04731
S214401D6012E04FF4C1710D480D4B9847E5E700234C
S214401D700A9A694606480068074CA04704E00023D4
S214401D803A466946074CA04705B0F0BD0020FBE741
S214401D90540600201D1B4000390B4000342F4000E5
S214401DA0052B4000250D400070B582B01A4B1B68CD
S214401DB01A684AB3DB681E68DC68251D2846174B40
S214401DC09847236A2046984794F8243013F0040F27
S214401DD0ECD0A36933449E4207D26360246129460F
S214401DE00D4B18680E4B9847E0E7002100910B46D4
S214401DF0324620460B4CA0470028D7D14FF461719D
S214401E0009480A4B9847D1E7094A106802490860D2
S214401E10136002B070BD00BF20060020CD01400018
S214401E20990140002D1D4000342F4000052B4000F6
S214401E302406002038B50546084B98470446084B0C
S214401E401B68984205D300232B60054B1C60204638
S214401E5038BD044B984701232B60F6E7D914400061
S214401E6050060020A91D400070B582B005460E46BB
S214401E70164B1B68DB68DC68201D154B984794F8AA
S214401E80243013F0040F08D123F0010384F82430E3
S214401E90236A2046984702B070BDA1692B46324659
S214401EA0294420460B4EB0470028F1D0002100912F
S214401EB00B462A462046084DA8470028E8D14FF44E
S214401EC0FC710648064B9847E2E700BF2006002014
S214401ED0CD014000111C40002D1D4000342F400015
S214401EE0052B400070B582B006460C46174B984707
S214401EF001A8174B9847019B2BBB05460CB9B0422F
S214401F0018D224B1134B1B681B68D3B90124224650
S214401F10711B114B1868114B9847114B984738B9AD
S214401F204FF080520F4B1A60BFF34F8FBFF36F8F47
S214401F3002B070BD0A4B9847294630460A4B984730
S214401F40F6E70024E3E7064B9847F1E7C91440005C
S214401F50351E400024060020540600201D10400078
S214401F600916400004ED00E0691E400030B589B017
S214401F7002E0049B002B0FDA002204A93C4B1868B1
S214401F803C4B9847002870D0049B002BF1DA079909
S214401F900698059B9847ECE7069C636913B1201D9D
S214401FA0354B984703A8354B98470546049B092B65
S214401FB0E2D8DFE803F00505052E354C05052E353D
S214401FC094F8243043F0010384F824300599A0693E
S214401FD00B462A4601442046294DA8470028CBD028
S214401FE0236A2046984794F8243013F0040FC3D051
S214401FF0A269002100910B46059802442046214CD8
S214402000A0470028B8D140F213311F481F4B9847CD
S214402010B2E794F8243023F0010384F82430ABE789
S21440202094F8243043F0010384F82430059BA361E0
S2144020303BB1A1692B462A4629442046104CA0476E
S2144020409AE740F22B311048104B9847F1E794F846
S214402050243013F0020F04D023F0010384F8243018
S2144020608AE720460A4B984786E709B030BD00BF4E
S21440207054060020310E4000CD014000351E400081
S214402080111C40002D1D4000342F4000052B400001
S214402090BD06400000B583B001A8044B984701999F
S2144020A0034B9847034B9847F6E700BFF11B4000A9
S2144020B0E51E40006D1F400010B509200E4CA0479D
S2144020C00A20A0470B20A0470C20A0470D20A04781
S2144020D00A4B4FF080541C61C3F8A0404FF40030C8
S2144020E01861C3F8A000064A02211161C2F8A01088
S2144020F01C631863116310BD0526400000140E4093
S21440210000160E40012808D002280BD003280ED017
S214402110094BD86BC0F380507047074BD86BC0F361
S21440212000707047044BD86BC0F340407047034B79
S214402130D86BC0F34000704700140E4000160E40A7
S21440214008B501280CD0022817D0032822D0002931
S2144021502BD04FF48002174B1A63174B984708BD95
S21440216031B14FF08052134B1A63134B984708BD5A
S2144021704FF080520F4B5A63F7E731B14FF40032BD
S2144021800C4B1A630C4B984708BD4FF40032094B72
S2144021905A63F7E729B10222084B1A63064B984761
S2144021A008BD0222054B5A63F8E74FF48002014B04
S2144021B05A63D2E700140E400521400000160E4038
S2144021C010B50446064B9847012804D00121204606
S2144021D0044B984710BD00212046024B984710BD3F
S2144021E0052140004121400010B41E4B4FF0806155
S2144021F05961C3F8A0104FF080425A61C3F8A0203E
S214402200194801244461C0F8A0405966C3F89010AC
S21440221059651962C3F88410186F20F080601867FB
S214402220586F20F0806058675A66C3F890205A6509
S2144022301A62C3F88420186F20F080401867586FE1
S21440224020F080405867C3F8C010C3F8D410C3F8D5
S214402250B010C3F8C020C3F8D420C3F8B0205DF84F
S214402260044B704700140E40000E0E40012806D066
S214402270022809D0074BD86BC0F380007047064B46
S214402280D86BC0F380607047034BD86BC0F3807048
S214402290704700BF000E0E4000140E4070B582B06E
S2144022A0046846680FE05CB100231A460DF107014A
S2144022B02046134DA84700231A4612493046A847E1
S2144022C06420114B98470120104B98470128EAD0CC
S2144022D002200E4B9847012803D000200B4B98470E
S2144022E0EEE7002CECD0002301220DF1070120463A
S2144022F0034DA84700231A4605493046A847DFE75E
S214402300390B40000C000020211740006D22400091
S2144023104000002008B50020034B98474FF47A70E1
S214402320024B9847F7E700BFC12140002117400005
S21440233070B582B00468067A4FF4FA7504E04FF43C
S214402340E17528460D4B984730460D4B984720463A
S2144023500C4B98470028F4D000220DF10701204688
S214402360094B98470028ECD09DF80730012BE6D063
S214402370002BE6D140F22625E3E700BF21174000B8
S214402380C1214000C50F4000310E400010B58EB050
S21440239004462046084B98470028FAD04FF0FF32B4
S2144023A001A92046054B98470128F2D1322201A9BF
S2144023B00348044B9847ECE7C50F4000310E4000F9
S2144023C000060E403124400010B50446124B4FF430
S2144023D0C0621A66C3F890205A655A62C3F88020D5
S2144023E0196F21F4C0611967596F21F4C0615967AC
S2144023F05A600720094B9847AC2323603423236256
S2144024004FF40063636040F20223C4F82031502347
S2144024102360002010BD00BF000E0E400526400081
S21440242000E0C161436913F0020FFAD07047000024
S214402430F8B507460E461546002404E0315D38469A
S214402440024B98470134AC42F8DBF8BD21244000EB
S21440245008B50E480E4B98473E2100200D4B984736
S2144024600D4B98470028FBD00C4B98470C4A0D4B19
S2144024709A620D4B98470028FBD010200B4B98478C
S2144024800B4B98470B48024B984708BD000E270752
S2144024901928400081254000D5254000E52540000C
S2144024A0013F0F2000040E40F52540002D2540003A
S2144024B00927400000D8B80510B54FF40042184B25
S2144024C05A600920174CA0470A20A0470B20A04777
S2144024D00C20A0470D20A047134B4FF480021A61F2
S2144024E0C3F8A0201A63A3F5C06304225A61C3F858
S2144024F0A0205A66C3F890205A651A62C3F8842012
S214402500196F21F004011967596F21F004015967CA
S214402510C3F8C020C3F8D420C3F8B02010BD00BF15
S21440252050180E400526400000140E40134A136B08
S21440253023F07003184310634FF400630F4A926E03
S21440254012F0080F02D1A3B1013BF7E70B4A136B19
S21440255023F0030343F0020313634FF40063074A78
S214402560926E12F0080F02D12BB1013BF7E7002024
S2144025707047012070470120704700BF00040E409E
S214402580D0B9114A136A23F45C1323F003030902FB
S21440259089B20B4343F45C1343F0010313620A4BC6
S2144025A09B6E13F0010FFAD0074A136A43F09B73F1
S2144025B043F480331362704703490B6A034A1A4058
S2144025C0034B13430B62704700040E40FCFFC8FEEB
S2144025D002003701024B986E00F48030704700BF0F
S2144025E000040E404FF00052014B9A62704700BF05
S2144025F000040E40024B986E00F00200704700BF89
S21440260000040E402F281ED81F280CD8114B9A695C
S21440261001238340934318D0012303FA00F00D4B67
S21440262018610020704720380A4BD3F80821012350
S214402630834093430BD0012303FA00F0054BC3F8C5
S214402640000100207047012070470020704700209E
S214402650704700BF00040E40FEE7000000B583B0A0
S2144026601E4B1F4A9A4209D01C4B1D4A03E0116874
S2144026701960043304321B498B42F8D31A4B02E0EC
S21440268000221A600433194A9342F9D3184A194B68
S21440269023F07F039360EFF31083B3FA83F35B0971
S2144026A0019372B6BFF35F8F0022134B1A700199E5
S2144026B0124A136843F470031360BFF34F8FBFF39F
S2144026C06F8F29B101220C4B1A70BFF35F8F62B631
S2144026D00B4B98470B4B9847FEE700BF0000002087
S2144026E038304000A4040020A40400204C070020FA
S2144026F000ED00E0000040000400002088ED00E00F
S214402700592B4000112940003C4B1B6B03F0030340
S214402710012B20D083B1022B39D0384B1B6B03F0F2
S2144027207003702B62D0354B1A6BC2F302123449D9
S2144027300B68D3400B607047324B5B6913F0800FD9
S21440274004D04FF400422E4B1A60E6E74FF4FA42AC
S2144027502B4B1A60E1E7294B1B6A13F0807F03D0AE
S214402760294A274B1A60D8E7284A254B1A60234B3C
S2144027701B6A03F07003102B05D0202BCDD1224AC4
S2144027801F4B1A60C9E7224A1D4B1A60C5E71B4B10
S2144027901B6A13F0807F16D01B4A194B1A60174BE2
S2144027A01B6B03F00303022BB7D11448826AC2F3B3
S2144027B00A4213490B6802FB0333826AD2B2B3FB68
S2144027C0F2F30B60A9E7114A0D4B1A600B4B1B6ADC
S2144027D003F07003102B05D0202BE0D10A4A084B9B
S2144027E01A60DCE70A4A064B1A60D8E7044A1368C0
S2144027F00849A1FB03135B081360704700040E40B2
S2144028000800002010180E40001BB70000093D00CD
S21440281000127A00ABAAAAAA144B98420FD9144BBE
S214402820984211D9134B984212D9134B984213D958
S214402830124B984214D9124A124B1A6070474FF006
S2144028408062104B1A6070470F4A0E4B1A607047F2
S2144028500E4A0C4B1A6070470D4A0A4B1A60704776
S2144028604FF00422074B1A60704700BFFF2C31011F
S214402870FF596202FF869303FFB3C404FFE0F505E9
S21440288000050004000A0E40000100040002000497
S2144028900003000400B589B0104BDA1D22F0070291
S2144028A0C3F1005303F5003323F00703A3F5806319
S2144028B0009201934FF0C24302934FF400230393D8
S2144028C04FF0C6420492059300230693079368464A
S2144028D0034B984709B05DF804FB00BF5037002013
S2144028E04907400010B5064B9847064B9847064B9D
S2144028F098470920054CA0470A20A04710BD00BFB6
S21440290051244000B9244000952840000526400048
S2144029102DE9F04F83B0594B9847594B9847594B40
S2144029209847594C2046594B98470C2258492046C0
S214402930584B9847002201210520574CA047574E38
S2144029403060002201210520A0477060002201214E
S2144029500520A047B060002232210520A047504BFA
S2144029601860D6F800E0DFF88CA1CAF800E0CAF894
S21440297004004C4F3B68CAF808304B4D6B68CAF8A9
S2144029800C304FF0000B8AF810B07268DFF8689190
S214402990C9F80020C9F804007B68C9F80830AB685D
S2144029A0C9F80C30012489F81040B368DFF84C8130
S2144029B0C8F80030C8F80400B968C8F80810296894
S2144029C0C8F80C10022188F81010384EC6F800E0FF
S2144029D0706086F808B0364E326070603472354AA1
S2144029E0136050601172CDF804B000945B468222AA
S2144029F031493248324EB047CDF804B00094314B9E
S214402A00822231493148B047DFF8F4B0019700944C
S214402A10264B82222E495846B0473B1D01930094D0
S214402A20234B82222B495846B047083701970094DB
S214402A30204B822228495846B047284F019500949B
S214402A405346822226493846B0472B1D01930094B0
S214402A504B46822223493846B04705F10803019386
S214402A6000944346822220493846B04768681F4C47
S214402A70A047A868A0471E4B9847FEE7E5284000B9
S214402A80B9204000E921400000060E40C92340001E
S214402A90582F400031244000E50A400074060020CC
S214402AA084060020680600205C060020DC06002025
S214402AB0FC0600201C070020682F4000152340001D
S214402AC0C513400080060020782F40008D2340002C
S214402AD0882F4000942F4000A02F40009D224000A9
S214402AE0AC2F4000C82F4000E42F40005118400053
S214402AF039144000E8060020C806002008070020D9
S214402B003123400082B0002301934FF0500383F3FB
S214402B101188BFF36F8FBFF34F8F00E000BF019B5C
S214402B20002BFBD0002383F3118802B070470000CF
S214402B3008B5D9210148024B984708BD00304000EF
S214402B40052B40004FF0500383F31188BFF36F8F7F
S214402B50BFF34F8FFEE7000070B50F4E0F4D761B4C
S214402B60B61018BF002405D0013455F8043B9847EA
S214402B70A642F9D10A4E0B4D761B00F04BFAB61022
S214402B8018BF002406D0013455F8043B9847A642A7
S214402B90F9D170BD70BD00BF2030400020304000ED
S214402BA02830400020304000844641EA000313F0BD
S214402BB003036DD1403A41D351F8043B40F8043BFF
S214402BC051F8043B40F8043B51F8043B40F8043BC2
S214402BD051F8043B40F8043B51F8043B40F8043BB2
S214402BE051F8043B40F8043B51F8043B40F8043BA2
S214402BF051F8043B40F8043B51F8043B40F8043B92
S214402C0051F8043B40F8043B51F8043B40F8043B81
S214402C1051F8043B40F8043B51F8043B40F8043B71
S214402C2051F8043B40F8043B51F8043B40F8043B61
S214402C3051F8043B40F8043B403ABDD2303211D301
S214402C4051F8043B40F8043B51F8043B40F8043B41
S214402C5051F8043B40F8043B51F8043B40F8043B31
S214402C60103AEDD20C3205D351F8043B40F8043B01
S214402C70043AF9D2043208D0D2071CBF11F8013BFF
S214402C8000F8013B01D30B8803806046704700BFC5
S214402C90082A13D38B078DD010F003038AD0C3F1D4
S214402CA00403D21ADB071CBF11F8013B00F8013BB6
S214402CB080D331F8023B20F8023B7BE7043AD9D375
S214402CC0013A11F8013B00F8013BF9D20B7803704A
S214402CD04B7843708B7883706046704770B4860735
S214402CE046D0541E002A41D0CAB2034602E014F130
S214402CF0FF343BD303F8012B9D07F8D1032C2ED984
S214402D00CDB245EA05250F2C45EA054519D903F10C
S214402D1010022646103E0F2E42F8105C42F80C5C1D
S214402D2042F8085C42F8045C02F11002F2D8A4F1C2
S214402D30100222F00F0204F00F041032032C13444A
S214402D400DD91E462246043A032A46F8045BFAD8B2
S214402D50221F22F003020432134404F003042CB171
S214402D60C9B21C4403F8011B9C42FBD170BC70479F
S214402D7014460346C2E700BF024B13B1024800F0B8
S214402D8005B8704700000000992D4000002301461A
S214402D901A46184600F01EB838B50A4C0A4D641B51
S214402DA0A4100AD004F18043013B05EB8305013CA7
S214402DB055F804399847002CF9D1BDE8384000F062
S214402DC033B900BF3830400034304000704700BF51
S214402DD0704700BF2DE9F8432C4D064628689846B4
S214402DE00F469146FFF7F2FF294B1C68D4F848314E
S214402DF0002B3ED05A681F2A1CDC02F1010E76B129
S214402E0003EB82010124C1F88890D3F888019440EE
S214402E102043022EC3F88801C1F8088123D002322D
S214402E20C3F804E0286843F82270FFF7D1FF00207B
S214402E30BDE8F883174B0BB34FF4C870AFF3008070
S214402E400346D8B1D4F848210260002141600A46C2
S214402E50C4F848014FF0010EC0F88811C0F88C1134
S214402E60002EDCD0CCE7D3F88C110C43C3F88C4151
S214402E70D5E704F5A673C4F84831BBE72868FFF7E2
S214402E80A7FF4FF0FF30BDE8F88300BFA004002046
S214402E9010304000000000002E2E2F7372632F4625
S214402EA072656552544F532F706F727461626C65D1
S214402EB02F4743432F41524D5F434D34462F706F4B
S214402EC072742E63000000002E2E2F7372632F46FE
S214402ED072656552544F532F706F727461626C65A1
S214402EE02F4D656D4D616E672F686561705F352E3D
S214402EF0630000002E2E2F7372632F467265655254
S214402F00544F532F71756575652E63002E2E2F73A3
S214402F1072632F4672656552544F532F7461736BBC
S214402F20732E630049444C4500000000546D7251B6
S214402F30000000002E2E2F7372632F467265655276
S214402F40544F532F74696D6572732E6300000000F2
S214402F50546D7220537663005468697320697320F9
S214402F604C616233000000004C45443020486561A7
S214402F7072742042656174004D61696E20554152FD
S214402F8054205461736B00004C45442031205461FA
S214402F90736B00004C45442032205461736B000034
S214402FA04C45442033205461736B00004D61696E7C
S214402FB020436F6E74726F6C205461736B20666F23
S214402FC072204C45443100004D61696E20436F6E5F
S214402FD074726F6C205461736B20666F72204C4520
S214402FE0443200004D61696E20436F6E74726F6CA0
S214402FF0205461736B20666F72204C45443300004A
S2144030002E2E2F7372632F6D61696E2E6300000043
S21440301078000020F8B500BFF8BC08BC9E46704754
S214403020792D40001D014000F8B500BFF8BC08BC33
S20C4030309E467047F90040007F
S214403038AAAAAAAA0100000000093D007175657594
S21440304865204C454431206465637265617365004C
S2144030580000000000000000000000000000000023
S2144030680000000000000000000000000000000013
S2144030787175657565204C45443120696E63726587
S21440308861736500000000000000000000000000BA
S21440309800000000000000000000000000000000E3
S2144030A8000000000000000000000000640300204C
S2144030B8CC0300203404002000000000000000007C
S2144030C800000000000000000000000000000000B3
S2144030D800000000000000000000000000000000A3
S2144030E80000000000000000000000000000000093
S2144030F80000000000000000000000000000000083
S2144031080000000000000000000000000000000072
S2144031180000000000000000000000000000000062
S2144031280000000000000000000000000000000052
S2144031380000000000000000000000000000000042
S2144031480000000000000000000000000000000032
S21440315801000000000000000E33CDAB34126DE6CF
S214403168ECDE05000B000000000000000000000038
S2144031780000000000000000000000000000000002
S21440318800000000000000000000000000000000F2
S21440319800000000000000000000000000000000E2
S2144031A800000000000000000000000000000000D2
S2084034D8280700205C
S80440265D38
