S00D00004C616230362E73726563A2
S21440000020370020452C4000412C4000412C400029
S214400010412C4000412C4000412C40000000000094
S214400020000000000000000000000000A1064000A4
S214400030412C40000000000041074000A50740005A
S214400040412C4000412C4000412C4000412C4000B7
S214400050412C4000412C4000412C4000E12940000A
S214400060412C40004D0440006104400075044000AF
S214400070890440009D044000412C4000412C400033
S214400080412C4000412C4000412C4000412C400077
S214400090412C4000412C4000412C4000412C400067
S2144000A0412C4000412C4000412C4000412C400057
S2144000B0412C4000412C4000412C4000412C400047
S2144000C0412C4000412C4000412C4000412C400037
S2144000D0412C4000412C4000412C4000412C400027
S2144000E0412C4000412C4000412C4000412C400017
S2144000F0412C4000412C400010B5054C237833B9C4
S214400100044B13B10448AFF300800123237010BDA5
S2144001104C04002000000000603540000C4B43B10A
S2144001200C480D4910B5AFF300800C48036823B95E
S21440013010BD0A48036833B97047094B002BF7D007
S214400140BDE810401847064B002BF5D0184700BFB7
S214400150000000006035400050040020603540003C
S214400160000000000AB90166704741667047C0F853
S214400170841053004FF40042B2FBF3F2013AC2F34C
S2144001800D02C0F88C2070474264B1F1C05F39D090
S21440019013D8B1F1006F25D0B1F1805F0AD1036F5B
S2144001A013430367416F436F21EA02010B404367E5
S2144001B0426070470029FBD17047B1F1205F20D0E4
S2144001C009D8B1F1005FF3D1036F13430367436F60
S2144001D013434367ECE7B1F1405F12D0B1F1605F83
S2144001E00FD0E5E710B4046F016FD3431C402140A5
S2144001F00167446F416F23400B40436742605DF8A0
S214400200044B7047016F036F21EA02010B400367FE
S214400210436F13434367CBE712F0100F12D0C0F87A
S214400220B01012F0200F07D0C0F8D41012F0400FD4
S21440023005D0C0F8C0107047C0F8D010F6E7C0F838
S214400240C4107047C0F8B4107047016470474164EA
S2144002507047000070B504460D4616460D4B98474D
S21440026006F00102294620460B4B984716F00A0F27
S21440027009D0256216F0020F07D116F0080F06D0F7
S214400280C4F8845003E06562F4E7C4F880506561C2
S214400290256070BD4F02400065014000F8B5044639
S2144002A00D4616461F46094B9847069A294620464D
S2144002B0074B98472FB125652EB9656325612560A4
S2144002C0F8BD6565F8E72563F8E700BF4F024000D4
S2144002D06501400070B582B0044615461E46B1F131
S2144002E0005F14D00AD9B1F1405F23D0B1F1605F0E
S2144002F020D0B1F1205F17D0002013E0B1F1805F2D
S21440030005D0B1F1C05F02D0B1F1006FF4D12A46FA
S2144003102046104B984706F00102294620460E4BD1
S2144003209847012002B070BD1A4629460B4B9847A5
S2144003300120F7E706F001030093C6F38003B1F10E
S214400340605F14BF0022012229462046044CA04785
S2144003500120E7E789014000650140005502400062
S2144003609D024000C06C7047806C70472DE9F0419C
S21440037007460E46164B984705463846154B98474F
S214400380054022D1144B1B6823B1144B1B680BB19C
S21440039038469847BDE8F0810134062CF2D8002D47
S2144003A0F0D023010E4AD058B042F5D102EB0413E8
S2144003B059680D42F0D002EB0418D8F80C30984734
S2144003C0D8F8043025EA0305E6E70024E7E700BF4F
S2144003D0650340006903400098060020DC040020C6
S2144003E068040020F8B5164C2768062F26D8002447
S2144003F001E00134E4B2A446A7420AD3114E2501D7
S21440040006EB050E75598D42F3D1DEF80450954241
S214400410EFD1CEF80010CEF80420CEF8083006997A
S214400420CEF80C100137BC4505D011461A46064B8F
S21440043098470020F8BD02490F60F6E70120F8BD56
S214400440D8040020680400201902400008B509219D
S2144004500148024B984708BD000E0E406D03400011
S21440046008B50A210148024B984708BD00100E40C7
S2144004706D03400008B50B210148024B984708BD64
S21440048000120E406D03400008B50C210148024B97
S214400490984708BD00140E406D03400008B50D2176
S2144004A00148024B984708BD00160E406D034000B9
S2144004B0F8B506460C461546224B984707464FF079
S2144004C0FF313046204B98473046204B9847002C0B
S2144004D00CDB630904F01F0101228A4020331C49CB
S2144004E041F82320BFF34F8FBFF36F8F002C08DBFC
S2144004F0630904F01F0101228A406033144941F821
S2144005002320002C17DB2D01EDB204F1604303F5E8
S214400510614383F80053002C08DB620904F01F0493
S214400520012303FA04F40A4B43F822403946304686
S214400530084B9847F8BD04F00F022D01EDB2064B6C
S2144005409D54E8E7690340004F02400065034000C1
S21440055000E100E04B02400014ED00E000F108032B
S21440056043604FF0FF328260C36003610023036044
S214400570704700230361704743684B609A688A60FF
S2144005809A68516099600861036801330360704758
S21440059030B40D68B5F1FF3F02D000F1080202E02A
S2144005A0026904E01A4653681C68A542FAD25368AA
S2144005B04B6099608A60516008610368013303604C
S2144005C030BC7047036942688168916082684168C0
S2144005D051605A68904206D0002202611A68013A79
S2144005E01A601868704782685A60F5E708480068DD
S2144005F0006880F308884FF0000080F3148862B6E5
S21440060061B6BFF34F8FBFF36F8F00DF00BF0000B0
S21440061008ED00E0DFF80C00016841F4700101606D
S2144006207047000088ED00E000B583B000230193DA
S2144006300B4B1B68B3F1FF3F03D0E32109480A4B3D
S21440064098474FF0500383F31188BFF36F8FBFF383
S2144006504F8F019B002BFCD003B05DF804FB00BF1E
S21440066000000020B4334000213040004FF080733B
S21440067040F8043C21F0010140F8081C054B40F8C6
S2144006800C3C40F8202C6FF0020340F8243C4438E1
S214400690704700BF29064000000000000000000030
S2144006A0074B19680868B0E8F04F80F30988BFF335
S2144006B06F8F4FF0000080F311887047AFF30080D3
S2144006C00005002008B54FF0500383F31188BFF3B0
S2144006D06F8FBFF34F8F094A136801331360012BA6
S2144006E000D008BD064B1B6813F0FF0FF9D040F250
S2144006F09F110448044B9847F3E700BF00000020D2
S21440070004ED00E0B43340002130400008B5084B0B
S2144007101B683BB1064A1368013B13600BB983F371
S214400720118808BD4FF4D3710248034B9847F1E750
S21440073000000020B433400021304000000000009C
S214400740EFF30980BFF36F8F154B1A681EF0100F3A
S21440075008BF20ED108A20E9F04F10602DE909000F
S2144007604FF0500080F31188BFF34F8FBFF36F8F69
S21440077001F0F2F94FF0000080F3118809BC1968C7
S2144007800868B0E8F04F1EF0100F08BFB0EC108AB3
S21440079080F30988BFF36F8F704700BFAFF30080C8
S2144007A00005002008B54FF0500383F31188BFF3CF
S2144007B06F8FBFF34F8F054B984718B14FF080525D
S2144007C0034B1A60002383F3118808BDC11840000C
S2144007D004ED00E0084A0023136008490B60084B0C
S2144007E01B680849A1FB03139B09013B06490B60A4
S2144007F007231360704700BF10E000E018E000E0F9
S21440080008000020D34D621014E000E010B582B01E
S214400810344B1A68344B9A4218D0324B1A68334BD2
S2144008209A4219D0324B1A78D2B20192FF221A70ED
S2144008301B78DBB28DF803309DF8033003F050038D
S2144008402C4A137007222C4B1A6015E04FF4947113
S2144008502A482B4B9847E0E740F229112748284B77
S2144008609847DFE7244A1368013B13609DF803303E
S2144008705B00DBB28DF803309DF8033013F0800F39
S214400880F0D11D4B1B68032B04D04FF4AD711B48B1
S2144008901B4B9847184A13681B0203F4E063136027
S2144008A0019BDBB2124A1370164B1A6842F4700270
S2144008B01A601A6842F070421A60134B9847002438
S2144008C0124B1C60124B9847124A136843F0404341
S2144008D01360114B9847114B9847114B9847204649
S2144008E002B010BD00ED00E071C20F4170C20F4172
S2144008F000E400E0E0040020E4040020B4334000BC
S2144009002130400020ED00E0D507400000000020E8
S2144009101506400034EF00E0ED054000591B40004E
S2144009202906400008B5EFF305830F2B06D90E4A7B
S2144009309B5CDBB20D4A1278934208D30C4B1B6883
S21440094003F4E0630B4A1268934206D808BD40F2AF
S214400950F2210948094B9847F0E740F20231064831
S214400960064B9847F2E700BFF0E300E0E0040020C3
S2144009700CED00E0E4040020B43340002130400099
S21440098010B4134A00E01A4613688342FBD35168FA
S2144009905418A0420AD041684418A3420BD00360C2
S2144009A0904200D010605DF8044B704740680144A8
S2144009B051601046EFE7074C2468A34206D05B68B8
S2144009C01944416013681B680360E9E70460E7E781
S2144009D0F8040020E804002070B505462C4B1B6840
S2144009E0B3B12C4B98472C4B1B681D4245D135B1B3
S2144009F0083515F0070F02D025F007050835002DFD
S214400A003DD0264B1B689D423BD8254A146806E0DD
S214400A108B212448244B9847E3E722461C466368CC
S214400A209D4202D92368002BF7D1194B1B689C4284
S214400A3029D0166808362368136063685B1B102B42
S214400A4015D8626815490B689B1A0B6017490968E8
S214400A508B4201D215490B600F4B1B6813436360F2
S214400A6000232360124B98477EB1304670BD601914
S214400A70436065600F4B9847E3E70026F2E70026A1
S214400A80F0E70026EEE70026ECE70B4B9847ECE74E
S214400A90E8040020A5184000EC040020F0040020E4
S214400AA0F8040020E433400021304000F4040020E5
S214400AB0E5194000810940004D304000002833D001
S214400AC038B50446A0F1080550F8042C174B1B68AF
S214400AD01A4211D054F8083C23B14FF49071144890
S214400AE0144B984754F8043C104A1268134202D0FC
S214400AF054F8081C31B138BD40F21F110C480D4B5C
S214400B009847E7E723EA020344F8043C0A4B984731
S214400B1054F8041C094A13680B4413602846084BD3
S214400B209847084B9847E6E7704700BFEC0400201C
S214400B30E433400021304000A5184000F004002077
S214400B4081094000E51940002DE9F04180462C4BD4
S214400B501B6823B140F293112A482B4B98474346D3
S214400B60002637461BE0264B1B685BB3244B1B68AE
S214400B709D422DD9224A11686319083B23F007038A
S214400B80136000225A601A602A46581B68602B6021
S214400B9001B10D6053681F44013608EBC6035C681C
S214400BA0E4B11D6815F0070F05D0EB1D23F00703D1
S214400BB0ED1A2C441D46002ED5D1144B1D60002244
S214400BC05A60D7E74FF4DA710E480F4B9847CDE797
S214400BD040F2B7110B480C4B9847CBE70C4B1F60C5
S214400BE00C4B1F602FB14FF000420B4B1A60BDE814
S214400BF0F0814FF4F0710348034B9847F3E700BF8A
S214400C00E8040020E433400021304000F80400208F
S214400C10F4040020F0040020EC04002010B5044644
S214400C20064B9847A26BE36B9A4204D00024044BD1
S214400C309847204610BD0124F9E700BFC50640008E
S214400C400D07400010B50446054B9847A36B23B1EB
S214400C500024044B9847204610BD0124F9E700BF06
S214400C60C50640000D07400070B504461646856B25
S214400C70026C5AB903681BB100200135A56370BDEC
S214400C808068174B98470023A360F6E76EB9406824
S214400C90144B9847226C636813446360A26893427F
S214400CA019D3236863600020E7E7C0680D4B984778
S214400CB0226C5242E3681344E36021688B4202D2BE
S214400CC0A3681A44E260022E01D00020D5E725B181
S214400CD0013D0020D1E70020CFE70020CDE700BF50
S214400CE0151E4000C530400070B582B001900E46DB
S214400CF0846C5CB1A26BE36B9A420DD2A26BE36B41
S214400D009A420FD30026304602B070BD40F64531B9
S214400D101248134B9847EDE740F646310F48104BC4
S214400D209847EBE794F845506DB2324601A9204605
S214400D300C4B98470646B5F1FF3F04D001356DB2DF
S214400D4084F84550DFE7636A002BDCD004F12400CA
S214400D50054B98470028D6D00126D4E710344000EB
S214400D6021304000690C4000B51C4000026C72B156
S214400D7010B5C3681344C3608468A34201D30368B4
S214400D80C3600C46C1682046014B984710BD70476B
S214400D90C530400038B505461F4B984795F8454046
S214400DA064B208E06B6ABBB105F124001B4B984760
S214400DB078B9013C64B2002C0EDDAB6C002BF1D050
S214400DC000212846164B98470028F2D0154B9847E6
S214400DD0EFE7144B9847ECE7FF2385F84530124B76
S214400DE098470D4B984795F8444064B201E0013C63
S214400DF064B2002C0ADD2B6943B105F11000074BA5
S214400E0098470028F3D0074B9847F0E7FF2385F82C
S214400E104430054B984738BDC5064000B51C4000D9
S214400E20E90C4000E91D40000D07400038B50D466E
S214400E300446D0B11B4B98472168E26B236C03FBFA
S214400E400210A0600020A0636160013A02FB031319
S214400E50E360FF2384F8443084F84530D5B92369ED
S214400E604BB9114B9847012038BD40F203110F484B
S214400E700F4B9847DEE704F110000E4B98470028CA
S214400E80EFD04FF080520C4B1A60BFF34F8FBFF33A
S214400E906F8FE6E704F11000084DA84704F12400E0
S214400EA0A847DEE7C50640000D0740001034400066
S214400EB021304000B51C400004ED00E05D054000D8
S214400EC038B51D46049C0B4659B12260E063236446
S214400ED001212046044B984784F850500023A364D1
S214400EE038BD2460F2E700BF2D0E4000F0B583B059
S214400EF00D461746064690B1BDB105FB06F0543088
S214400F000B4B9847044638B100903B4600F15402DC
S214400F1029463046074DA847204603B0F0BD4FF45B
S214400F20BB710548054B9847E6E70020E7E700BF5A
S214400F30D9094000C10E4000103440002130400026
S214400F40F0B585B00F4601921E46044668B197B18B
S214400F500123B3B1022E1AD00123EBB1634B98475D
S214400F6000BB019B13BB01231DE040F2F12160480A
S214400F70604B9847EBE7236C0BB90123E9E7002366
S214400F80E7E740F2F2215A485A4B9847E2E7E36BCC
S214400F90012BE2D00023E0E740F2F3215448554BC2
S214400FA09847DBE701231BB1002558E00023FAE70A
S214400FB040F2F6214E484F4B9847F5E7A56B324630
S214400FC0394620464C4B9847A36CB3B1022E11D0FD
S214400FD031462046494B984738B14FF08052484BEF
S214400FE01A60BFF34F8FBFF36F8F464B9847012071
S214400FF005B0F0BD002DEBD0F7E7636A53B9002883
S214401000F3D04FF080523E4B1A60BFF34F8FBFF382
S2144010106F8FEAE704F124003B4B98470028E4D062
S2144010204FF08052364B1A60BFF34F8FBFF36F8F2F
S214401030DBE7344B98470020DAE702A8334B984763
S214401040012519E0002384F8443021E0002384F889
S214401050453023E020462E4B98472E4B98472E4B44
S2144010609847A26BE36B9A42A8D3022EA6D0019B68
S214401070002BDED0002DE0D0224B9847274B9847D8
S214401080254B984794F844305BB2B3F1FF3FD9D034
S21440109094F845305BB2B3F1FF3FD7D0194B984731
S2144010A001A902A81E4B9847C8B920461D4B984731
S2144010B00028CFD0019904F110001B4B98472046DA
S2144010C0134B9847134B98470028C8D14FF080528F
S2144010D00B4B1A60BFF34F8FBFF36F8FBFE72046AF
S2144010E00B4B98470B4B9847002081E7F51D400077
S2144010F01034400021304000690C4000E90C4000AC
S21440110004ED00E00D074000B51C4000491D4000BE
S214401110950D4000E5194000C5064000A518400062
S214401120611D40001D0C40002D1C40002DE9F84379
S2144011300F4691461E460446E8B117B3012333B323
S214401140022E2AD001236BB3354B9847EFF3118814
S2144011504FF0500383F31188BFF36F8FBFF34F8F69
S214401160A26BE36B9A4223D3022E21D0002088F351
S2144011701188BDE8F88340F2C3312A482A4B984785
S214401180DBE7236C0BB90123D9E70023D7E74FF4FD
S21440119071712448244B9847D2E7E36B012BD2D099
S2144011A00023D0E740F2C5311E481F4B9847CBE797
S2144011B094F845506DB23246394620461B4B984708
S2144011C0B5F1FF3F05D001356DB284F8455001209A
S2144011D0CDE7A36C5BB131462046154B9847B0B17E
S2144011E0B9F1000F15D00120C9F80000BFE7636AC7
S2144011F00BB90120BBE704F124000E4B984750B1D1
S214401200B9F1000F09D00120C9F80000AFE701206E
S214401210ADE70120ABE70120A9E70120A7E700BF23
S214401220250940001034400021304000690C400041
S214401230E90C4000B51C4000F0B585B00F46019261
S214401240044648B177B1012393B1514B9847A8B9AA
S214401250019BBBB9012312E04FF4A0614D484E4BB1
S2144012609847EFE7236C0BB90123EDE70023EBE744
S21440127040F204514748484B9847E6E701231BB1E4
S214401280002644E00023FAE740F209514148424B29
S2144012909847F5E739462046404B9847013DA563B9
S2144012A0236923B93E4B9847012005B0F0BD04F1B1
S2144012B010003C4B98470028F4D04FF080523A4BF1
S2144012C01A60BFF34F8FBFF36F8FEBE7344B9847EF
S2144012D00020EAE702A8354B9847012621E0002384
S2144012E084F8443029E0002384F845302BE020463B
S2144012F02F4B98472F4B984709E020462C4B984752
S2144013002C4B984720462C4B984700283DD12B4BDA
S2144013109847A56B002DBDD1019B002BD6D0002E43
S214401320D8D01F4B9847264B9847244B984794F85D
S21440133044305BB2B3F1FF3FD1D094F845305BB256
S214401340B3F1FF3FCFD0164B984701A902A81D4BDB
S21440135098470028D1D12046174B98470028C6D03A
S214401360019904F12400184B98472046104B9847A3
S214401370104B98470028CAD14FF080520A4B1A604B
S214401380BFF34F8FBFF36F8FC1E700208DE700BFDD
S214401390F51D400010344000213040006D0D4000E7
S2144013A00D074000B51C400004ED00E0491D40001C
S2144013B0950D4000E5194000450C4000C50640002C
S2144013C0A5184000611D40002D1C40000023072B3F
S2144013D00CD8074A52F833200AB10133F7E7044ADB
S2144013E042F8331002EBC30358607047704700BFA3
S2144013F09C06002070B504460D461646124B98478C
S21440140094F844305BB2B3F1FF3F0DD094F84530CA
S2144014105BB2B3F1FF3F0BD00C4B9847A36B5BB16D
S21440142020460B4B984770BD002384F84430EDE7C8
S214401430002384F84530EFE73246294604F124007D
S214401440044B9847ECE700BFC50640000D07400038
S214401450950D40006D1C4000084B1B681B683BB157
S214401460064B1B68DB68DB685A68054B1A6070479A
S2144014704FF0FF32024B1A60704700BF0405002051
S214401480F005002038B50546006B024CA0472846BC
S214401490A04738BDBD0A40002DE9F84F81460D46AD
S2144014A017469A460A9EDDF82C800C9C9200A52191
S2144014B0206B254B9847236B07F18042013A03EB9C
S2144014C0820727F0070715B30023132B07D8E95CDC
S2144014D0E21882F83410EA5C0AB10133F5E70023DB
S2144014E084F84730072E00D90726E6622665002591
S2144014F06565201DDFF858B0D84704F11800D84776
S2144015002461C6F10806A66164622B4609E0002302
S21440151084F83430E6E703F11602002144F822103E
S2144015200133022BF7D90023636684F868305246AD
S21440153049463846054B98472060B8F1000F01D021
S214401540C8F80040BDE8F88FF93140006D0640000D
S2144015507305400070B5002407E004EB8402930056
S2144015600C4818440C4B98470134072CF5D90B4EC1
S2144015703046094CA0470A4D2846A0470948A04790
S2144015800948A0470948A047094B1E60094B1D6003
S21440159070BD00BF0C0500205D054000C40500205E
S2144015A0D8050020F805002024060020100600205C
S2144015B0040500200805002010B50446224B984735
S2144015C0224A136801331360214B1B68002B32D02C
S2144015D0204B1B683BB91E4B1B68DA6AE36A9A428B
S2144015E001D81B4B1C601C4A136801331360A3646C
S2144015F0E36A01229A401949086802430A6003EBED
S21440160083039A00211D16481044164B9847164BE4
S2144016109847104B1B686BB10D4B1B68DA6AE36A40
S2144016209A4207D24FF08052104B1A60BFF34F8F4A
S214401630BFF36F8F10BD064B1C601368012BD2D1D1
S2144016400B4B9847CFE700BFC5064000AC050020CF
S214401650000500200C060020BC050020C005002028
S2144016600C050020790540000D07400004ED00E021
S214401670551540000F4B1B68D3B110B50E4B98471D
S2144016800E4BDB68DC68201D0D4B98470D4A1368EF
S214401690013B1360074A1368013B13600A4B9847A7
S2144016A020460A4B9847034B1B68002BE6D110BDDB
S2144016B0704700BFB0050020C50640002406002045
S2144016C0C5054000AC0500200D07400085144000CD
S2144016D008B5074B9847074B1B68012BF9D94FF0C5
S2144016E08052054B1A60BFF34F8FBFF36F8FF0E702
S2144016F0751640000C05002004ED00E070B5044669
S2144017000E461D4B1D681D4B186804301C4B9847F1
S21440171050B91A4B1B68DA6A012303FA02F21949D8
S2144017200B6823EA02030B60B4F1FF3F13D02C444E
S214401730124B1B685C60A54216D8134B18680F4BBB
S21440174019680431114B9847114B1B689C4201D2D3
S2144017500F4B1C6070BD002EE9D0084B1968043151
S2144017600C480D4B984770BD0C4B1868034B1968D6
S2144017700431064B984770BD38060020000500200F
S214401780C5054000C0050020040500209105400026
S214401790F0050020100600207905400008050020CE
S2144017A02DE9F04385B006460F461546984690000C
S2144017B0144B984700B381466C20124B984704461A
S2144017C0B0B1C0F83090CCB10023039302940D9B87
S2144017D001930C9B009343462A46394630460A4DB1
S2144017E0A8472046094B9847012005B0BDE8F0833E
S2144017F04846074B9847E6E70024E4E74FF0FF30BB
S214401800F3E700BFD909400099144000B9154000DD
S214401810BD0A400010B582B0174B019300230093D9
S214401820822216491648174CA047012806D00128A0
S21440183007D0B0F1FF3F19D002B010BD124B984709
S214401840F5E74FF0500383F31188BFF36F8FBFF374
S2144018504F8F4FF0FF320D4B1A6001220C4B1A602F
S21440186000220C4B1A600C4B9847E5E74FF4026198
S2144018700A480B4B9847DFE7EC0500204034400011
S214401880D1164000A117400079204000F005002006
S2144018900C060020380600200D0840002834400082
S2144018A021304000024A136801331360704700BF7E
S2144018B0B8050020014B1868704700BF3806002066
S2144018C0F8B5384B1B68002B61D1374B1E68013684
S2144018D01E607EB9354B1B681B68E3B9334A1168F6
S2144018E0334B186810601960324A1368013313602E
S2144018F0314B9847314B1B689E423ED20027304BB7
S2144019001B68DB6A03EB83039A002E4B9B58012B24
S21440191042D9012740E040F67F212B482B4B984781
S214401920DCE70127214B1B681B6843B31F4B1B6832
S214401930DB68DC6863689E4226D3251D2846244B18
S2144019409847A36A1BB104F11800214B9847E36AF5
S21440195001229A401F49086802430A6003EB83034A
S2144019609A002946174810441B4B9847E26A144B86
S2144019701B68DB6A9A42D4D2D4E70027D2E74FF0FE
S214401980FF320E4B1A60BAE70C4A1360B7E7134AA9
S2144019901368013313600027114B1B6803B10127FE
S2144019A03846F8BDB805002038060020040500205B
S2144019B008050020F405002059144000F0050020DA
S2144019C0000500200C05002028344000213040004F
S2144019D0C5054000C005002079054000B40500203C
S2144019E03C06002070B5344B1B68002B34D0334B7C
S2144019F09847314B1A68013A1A601B68002B54D13D
S214401A002F4B1B68002B2DD000242E4B1B68002B21
S214401A102AD02C4BDB68DC6804F118002A4EB0470D
S214401A20251D2846B047E36A01229A4027490868A0
S214401A3002430A6003EB83039A0029462448104475
S214401A40244B9847E26A244B1B68DB6A9A42DCD3F5
S214401A500122224B1A60D8E740F685012048214BE8
S214401A609847C4E7002421E00CB11F4B98471F4B12
S214401A701C6874B9194B1B68E3B14FF080521C4B7D
S214401A801A60BFF34F8FBFF36F8F01240EE0013C07
S214401A9007D0184B98470028F9D001220F4B1A6000
S214401AA0F5E70022114B1A60E4E70024124B9847F2
S214401AB0204670BD0024F9E7B8050020C506400062
S214401AC0AC050020F8050020C5054000C0050020F4
S214401AD00C05002079054000000500203C0600204B
S214401AE0283440002130400059144000B4050020FE
S214401AF004ED00E0C11840000D07400010B5D8B115
S214401B0004460E4B1B688BB90D4B98470021204668
S214401B100C4B98470C4B984738B94FF080520B4BBC
S214401B201A60BFF34F8FBFF36F8F10BD40F23C512A
S214401B300748084B9847E7E70020EDE7B805002040
S214401B40A5184000FD164000E519400004ED00E0F1
S214401B5028344000213040002C4B1B68002B35D1E8
S214401B6010B500222A4B1A602A4B1B681B6B1A685A
S214401B70B2F1A53F2ED0274B186819683431264B52
S214401B809847264B1C68B4FA84F4E4B2C4F11F04A8
S214401B9004EB84029300224AD35843B32049A3005F
S214401BA0181982000A4450684068506023449A00DE
S214401BB008321144884220D004EB8404A200184B1B
S214401BC013445B68DA68134B1A6010BD0122104B51
S214401BD01A6070475A68B2F1A53FCCD19A68B2F104
S214401BE0A53FC8D1DB68B3F1A53FC4D1C9E740F6ED
S214401BF0B7310C480C4B9847D0E7416804EB840358
S214401C009A00074B13445960D6E700BFB80500203A
S214401C103C0600200005002061304000C005002042
S214401C200C050020283440002130400038B50C46D2
S214401C30054650B1084B196818312846074B984757
S214401C4001212046064B984738BD40F6CE31054820
S214401C50054B9847EEE700BF000500209105400081
S214401C60FD164000283440002130400070B50D4637
S214401C701446064668B10A4B196818313046094B77
S214401C8098470CB14FF0FF3521462846064B9847FB
S214401C9070BD40F6F9310548054B9847EBE700BF65
S214401CA00005002079054000FD164000283440001D
S214401CB02130400038B5C368DC6824B304F1180509
S214401CC02846174B9847174B1B6813BB251D2846BD
S214401CD0134B9847E36A01229A4013490868024327
S214401CE00A6003EB83039A00294610481044104BC1
S214401CF09847E26A0F4B1B68DB6A9A420ED901206E
S214401D000D4B186038BD40F629410C480C4B98479F
S214401D10D4E729460B48064B9847EAE7002038BDEB
S214401D20C5054000B8050020C00500200C05002071
S214401D3079054000000500203C060020283440007D
S214401D4021304000F8050020034B1B680360034B1E
S214401D501B684360704700BFF4050020380600202B
S214401D60F8B50C460546D0B1FCB1184B9847184B11
S214401D7019686A68881A2368B3F1FF3F22D02F6833
S214401D80144E3668B74201D091421DD2984212D3C3
S214401D90002323600124104B98472046F8BD40F6A8
S214401DA094410E480E4B9847DEE740F695410B4867
S214401DB00B4B9847D9E71B1A23602846094B984790
S214401DC00024E8E70024E6E70124E4E7C5064000EF
S214401DD038060020F40500200D0740002834400057
S214401DE021304000491D40000122014B1A607047D7
S214401DF03C060020054B1B6823B1054B1B681BB9EE
S214401E000220704701207047002070470C060020D3
S214401E10B8050020002845D038B50446234B1B683B
S214401E20984204D040F6D1712148224B9847636DC2
S214401E304BB1636D013B6365E16A226D914233D0DD
S214401E403BB1002038BD40F6D2711948194B98472F
S214401E50EFE7251D2846184B984768B9E36A03EB19
S214401E6083018A0015498A5832B901229A4014499A
S214401E700B6823EA02030B60236DE362C3F108029A
S214401E80A261012404FA03F20D49086802430A607D
S214401E9003EB83039A00294608481044094B9847A9
S214401EA0204638BD00207047002038BD0005002081
S214401EB02834400021304000C50540000C05002075
S214401EC0C005002079054000F8B50E460446C8B166
S214401ED0274B9847EFF311854FF0500383F3118853
S214401EE0BFF36F8FBFF34F8F94F86830DBB2022298
S214401EF084F86820626E01326266012B08D085F352
S214401F001188F8BD41F263311A481B4B9847DFE70A
S214401F10A36A23B141F289311648174B9847174BAD
S214401F201B68FBB9271D3846154B9847E36A0122C4
S214401F309A401449086802430A6003EB83039A00F8
S214401F40394611481044114B9847E26A104B1B68BB
S214401F50DB6A9A42D3D90EB10123336001220D4B7E
S214401F601A60CCE704F118010B48084B9847ECE799
S214401F70250940002834400021304000B8050020A4
S214401F80C5054000C00500200C050020790540002E
S214401F90000500203C060020F8050020064B1A6885
S214401FA013682BB90123036023B9D36818687047B8
S214401FB00023F8E7002070474006002008B541603F
S214401FC0006191420CD8D21A83699A4201D301200B
S214401FD008BD011D094B1868094B9847002008BDED
S214401FE09A4201D2994206D2011D064B1868044B0C
S214401FF09847002008BD012008BD00BF44060020C9
S214402000910540004006002070B5104B9847104B95
S2144020101B6813B10F4B984770BD0F4D28460F4EA7
S214402020B0470F4C2046B0470E4B1D600E4B1C6011
S2144020300022102105200D4B9847054B18600028BC
S214402040E8D00B490B4B9847E4E700BFC506400075
S214402050740600200D074000480600205D0540003D
S2144020605C0600204006002044060020ED0E40009E
S21440207048344000CD13400010B582B00E4B984710
S2144020800E4B1B687BB10E4B019307230093002336
S2144020904FF482720B490C480C4CA047044624B1BE
S2144020A0204602B010BD0024F9E740F2131108485C
S2144020B0084B9847F4E700BF09204000740600200C
S2144020C0780600206C34400041244000A1174000B0
S2144020D05034400021304000F0B585B00C461646DE
S2144020E01F46054698B1154B186828B300940196CC
S2144020F00295052C19DC124B984702280DD0002378
S2144021001A4669460D4800680E4CA04712E04FF448
S214402110C1710D480D4B9847E5E700230A9A69467A
S21440212006480068074CA04704E000233A46694644
S214402130074CA04705B0F0BD0020FBE77406002022
S214402140F51D4000410F4000503440002130400013
S2144021502D11400070B582B01A4B1B681A684AB3FE
S214402160DB681E68DC68251D2846174B9847236A9F
S2144021702046984794F8283013F0040FECD0A36913
S21440218033449E4207D26360246129460D4B18684B
S2144021900E4B9847E0E7002100910B46324620461A
S2144021A00B4CA0470028D7D14FF4617109480A4B21
S2144021B09847D1E7094A106802490860136002B0A0
S2144021C070BD00BF40060020C50540009105400098
S2144021D0D9204000503440002130400044060020C2
S2144021E038B50546084B98470446084B1B68984246
S2144021F005D300232B60054B1C60204638BD044B9E
S214402200984701232B60F6E7B5184000700600207B
S2144022105521400070B582B005460E46164B1B68E9
S214402220DB68DC68201D154B984794F8283013F07F
S214402230040F08D123F0010384F82830236A20468F
S214402240984702B070BDA1692B46324629442046C5
S2144022500B4EB0470028F1D0002100910B462A468D
S2144022602046084DA8470028E8D14FF4FC710648A0
S214402270064B9847E2E700BF40060020C5054000F1
S214402280BD1F4000D920400050344000213040005F
S21440229070B582B006460C46174B984701A8174BB8
S2144022A09847019B2BBB05460CB9B04218D224B1C7
S2144022B0134B1B681B68D3B901242246711B114B74
S2144022C01868114B9847114B984738B94FF08052D1
S2144022D00F4B1A60BFF34F8FBFF36F8F02B070BDC6
S2144022E00A4B9847294630460A4B9847F6E700245B
S2144022F0E3E7064B9847F1E7A5184000E121400088
S2144023004406002074060020F5134000E5194000FE
S21440231004ED00E01522400030B589B002E0049B91
S214402320002B0FDA002204A93C4B18683C4B984718
S214402330002870D0049B002BF1DA07990698059B7D
S2144023409847ECE7069C636913B1201D354B9847C8
S21440235003A8354B98470546049B092BE2D8DFE88F
S21440236003F00505052E354C05052E3594F8283026
S21440237043F0010384F828300599A0690B462A46A5
S21440238001442046294DA8470028CBD0236A204642
S214402390984794F8283013F0040FC3D0A269002160
S2144023A000910B46059802442046214CA047002841
S2144023B0B8D140F213311F481F4B9847B2E794F804
S2144023C0283023F0010384F82830ABE794F828300F
S2144023D043F0010384F82830059BA3613BB1A16913
S2144023E02B462A4629442046104CA0479AE740F2FE
S2144023F02B311048104B9847F1E794F8283013F0EB
S214402400020F04D023F0010384F828308AE72046E0
S2144024100A4B984786E709B030BD00BF74060020D7
S21440242039124000C5054000E1214000BD1F400074
S214402430D92040005034400021304000BD0A4000C2
S21440244000B583B001A8044B98470199034B9847C1
S214402450034B9847F6E700BF9D1F4000912240007F
S2144024601923400010B509200E4CA0470A20A0476B
S2144024700B20A0470C20A0470D20A0470A4B4FF04A
S21440248080541C61C3F8A0404FF400301861C3F874
S214402490A000064A02211161C2F8A0105C6358638E
S2144024A0516310BDED2B400000140E4000160E4048
S2144024B0012808D002280BD003280ED0094BD86B31
S2144024C0C0F380507047074BD86BC0F3007070471E
S2144024D0044BD86BC0F340407047034BD86BC0F3F7
S2144024E04000704700140E4000160E4008B5012804
S2144024F00CD0022817D0032822D000292BD04FF426
S2144025008002174B1A63174B984708BD31B14FF0FE
S2144025108052134B1A63134B984708BD4FF08052B6
S2144025200F4B5A63F7E731B14FF400320C4B1A6346
S2144025300C4B984708BD4FF40032094B5A63F7E7F7
S21440254029B10222084B1A63064B984708BD02225F
S214402550054B5A63F8E74FF48002014B5A63D2E7C3
S21440256000140E40B124400000160E4010B504463C
S214402570064B9847012804D001212046044B984733
S21440258010BD00212046024B984710BDB1244000A4
S214402590ED24400000B583B000230193092815D0F0
S2144025A00C2819D00C281ED001A9124B1868124BC3
S2144025B09847019B3BB14FF08052104B1A60BFF3D7
S2144025C04F8FBFF36F8F03B05DF804FB0429E7D14C
S2144025D01A460B4B1A60E7E7B1F1806FE2D17A22D8
S2144025E0074B1A60E0E7B1F1804FDDD17E22044B05
S2144025F01A60D9E788060020C91E400004ED00E0B6
S2144026007C0600202DE9F04F83B0484C4FF08066A2
S2144026106661C4F8A0604FF080456561C4F8A0507C
S2144026200123434A5361C2F8A0306666C4F89060FE
S21440263066652662C4F88460236F23F08063236750
S214402640636F23F0806363676566C4F89050656582
S2144026502562C4F88450236F23F080432367636F5A
S21440266023F080436367C4F8C060C4F8D460C4F8FD
S214402670B060C4F8C050C4F8D450C4F8B050792301
S21440268004224FF020512A48DFF8B0B0D8470A223B
S21440269004212748DFF8A8A0D047DFF8A890CDF857
S2144026A000907923042209212148224FB847052269
S2144026B009211F48DFF89080C04704211C481E4B64
S2144026C09847792332464FF020512046D8470A2271
S2144026D031462046D047CDF80090792332460C212B
S2144026E02046B84705220C212046C04731462046A2
S2144026F0114B984779232A464FF020512046D84719
S2144027000A2229462046D047CDF8009079232A460B
S2144027100C212046B84705220C212046C0472946B2
S2144027202046054B984703B0BDE8F08F00140E4096
S214402730000E0E40E50340004B024000D50240002C
S2144027406F01400095254000B1044000012806D0A6
S214402750022809D0074BD86BC0F380007047064B61
S214402760D86BC0F380607047034BD86BC0F3807063
S214402770704700BF000E0E4000140E4038B5046887
S2144027800CE0224B1B68002B25DD00221F4B1A60F5
S21440279013461F49096820461E4DA84701201E4B78
S2144027A098470128EDD002201B4B9847012816D0A9
S2144027B00020194B98470128F0D1144B1B68002B7A
S2144027C01FDD0022114B1A60134614490968204643
S2144027D0104DA847E2E701330C4A1360DEE70B4B87
S2144027E01B68002B09DD0022084B1A6013460C4973
S2144027F009682046074DA847D0E70133034A1360CF
S214402800CCE70133014A1360C8E700BF80060020CA
S21440281010000020410F40004D27400018000020C7
S2144028201400002008B50020034B98474FF47A70F8
S214402830024B9847F7E700BF6D254000FD1A400061
S21440284038B50546054C4FF0FF3221462846044B26
S21440285098472078034B9847F4E700BF840600204B
S214402860391240006D25400010B58EB044684FF0D8
S214402870FF3201A92046044B9847322201A903485B
S214402880034B9847F3E700BF3912400000060E405E
S214402890C5294000F0B58FB04568066800248DF81D
S2144028A037402AE00120244B984700231A4601A9C6
S2144028B03046224FB8471FE001201F4B9847002361
S2144028C01A4601A930461D4FB84715E001201A4B5D
S2144028D0984700231A4601A93046184FB8470BE0E0
S2144028E000231A4601A93046144FB8470022144B1D
S2144028F019681448144B984701344FF0FF320DF1D5
S21440290037012846114B98479DF837308DF80430EC
S2144029100EAA224402F8343C312BC3D0322BCBD003
S214402920332BD3D0752BDBD000231A4601A9304673
S214402930024FB847E0E700BF6D254000410F40001A
S2144029400C00002000060E40C52940003912400009
S21440295010B50446154B4FF4C0621A66C3F8902073
S2144029605A655A62C3F88020196F21F4C06119670E
S214402970596F21F4C06159675A6007200C4B98473D
S214402980AC232360342323624FF40063636040F239
S2144029900223C4F82031502222600123A360054B55
S2144029A083F8072380221A60002010BD000E0E40D8
S2144029B0ED2B400000E100E0436913F0020FFBD02E
S2144029C0C161704738B505460C4603E02846034BC0
S2144029D09847013421780029F8D138BDB9294000FC
S2144029E010B582B000238DF807300F4B5B6913F0AB
S2144029F0010F01D102B010BD0B4B9B698DF807301B
S214402A0000236A460DF1070108480068084CA047B5
S214402A10009B002BEED04FF08052064B1A60BFF35F
S214402A204F8FBFF36F8FE5E700060E40E4060020A9
S214402A302D11400004ED00E008B50E480E4B9847B7
S214402A403E2100200D4B98470D4B98470028FBD061
S214402A500C4B98470C4A0D4B9A620D4B98470028F2
S214402A60FBD010200B4B98470B4B98470B48024B1C
S214402A70984708BD000E2707012E4000692B4000EE
S214402A80BD2B4000CD2B4000013F0F2000040E40E0
S214402A90DD2B4000152B4000F12C400000D8B80537
S214402AA010B54FF40042184B5A600920174CA04707
S214402AB00A20A0470B20A0470C20A0470D20A04787
S214402AC0134B4FF480021A61C3F8A0201A63A3F593
S214402AD0C06304225A61C3F8A0205A66C3F8902007
S214402AE05A651A62C3F88420196F21F004011967E9
S214402AF0596F21F004015967C3F8C020C3F8D420A9
S214402B00C3F8B02010BD00BF50180E40ED2B40005B
S214402B1000140E40134A136B23F0700318431063DF
S214402B204FF400630F4A926E12F0080F02D1A3B121
S214402B30013BF7E70B4A136B23F0030343F0020312
S214402B4013634FF40063074A926E12F0080F02D1E7
S214402B502BB1013BF7E7002070470120704701206A
S214402B60704700BF00040E40D0B9114A136A23F4E0
S214402B705C1323F00303090289B20B4343F45C134E
S214402B8043F0010313620A4B9B6E13F0010FFAD019
S214402B90074A136A43F09B7343F4803313627047CB
S214402BA003490B6A034A1A40034B13430B627047B0
S214402BB000040E40FCFFC8FE02003701024B986E30
S214402BC000F48030704700BF00040E404FF00052C3
S214402BD0014B9A62704700BF00040E40024B986E4D
S214402BE000F00200704700BF00040E402F281ED899
S214402BF01F280CD8114B9A6901238340934318D061
S214402C00012303FA00F00D4B18610020704720386E
S214402C100A4BD3F808210123834093430BD001236A
S214402C2003FA00F0054BC3F800010020704701206E
S214402C307047002070470020704700BF00040E40D9
S214402C40FEE7000000B583B01E4B1F4A9A4209D0EB
S214402C501C4B1D4A03E011681960043304321B49BB
S214402C608B42F8D31A4B02E000221A600433194A0A
S214402C709342F9D3184A194B23F07F039360EFF33E
S214402C801083B3FA83F35B09019372B6BFF35F8F89
S214402C900022134B1A700199124A136843F47003CA
S214402CA01360BFF34F8FBFF36F8F29B101220C4BD8
S214402CB01A70BFF35F8F62B60B4B98470B4B984723
S214402CC0FEE700BF00000020603540004C040020B6
S214402CD04C0400201C07002000ED00E000004000EF
S214402CE00400002088ED00E075304000F92E4000DA
S214402CF03C4B1B6B03F00303012B20D083B1022B0C
S214402D0039D0384B1B6B03F07003702B62D0354BB9
S214402D101A6BC2F3021234490B68D3400B607047FB
S214402D20324B5B6913F0800F04D04FF400422E4BB9
S214402D301A60E6E74FF4FA422B4B1A60E1E7294B5C
S214402D401B6A13F0807F03D0294A274B1A60D8E7C6
S214402D50284A254B1A60234B1B6A03F07003102B3E
S214402D6005D0202BCDD1224A1F4B1A60C9E7224AF4
S214402D701D4B1A60C5E71B4B1B6A13F0807F16D0AD
S214402D801B4A194B1A60174B1B6B03F00303022BAD
S214402D90B7D11448826AC2F30A4213490B6802FB51
S214402DA00333826AD2B2B3FBF2F30B60A9E7114A4F
S214402DB00D4B1A600B4B1B6A03F07003102B05D0AB
S214402DC0202BE0D10A4A084B1A60DCE70A4A064B39
S214402DD01A60D8E7044A13680849A1FB03135B0846
S214402DE01360704700040E400800002010180E4084
S214402DF0001BB70000093D0000127A00ABAAAAAA41
S214402E00144B98420FD9144B984211D9134B984201
S214402E1012D9134B984213D9124B984214D9124ADE
S214402E20124B1A6070474FF08062104B1A60704722
S214402E300F4A0E4B1A6070470E4A0C4B1A6070478A
S214402E400D4A0A4B1A6070474FF00422074B1A602F
S214402E50704700BFFF2C3101FF596202FF86930383
S214402E60FFB3C404FFE0F50500050004000A0E4069
S214402E7000010004000200040003000400B589B00D
S214402E80104BDA1D22F00702C3F1005303F500335E
S214402E9023F00703A3F58063009201934FF0C243EB
S214402EA002934FF4002303934FF0C64204920593D7
S214402EB00023069307936846034B984709B05DF88E
S214402EC004FB00BF20370020490B400010B5064BDE
S214402ED09847064B9847064B98470920054CA0470D
S214402EE00A20A04710BD00BF392A4000A12A400052
S214402EF07D2E4000ED2B40002DE9F04182B02C4B5A
S214402F0098472C4B98472C4B98472C4C20462C4B9C
S214402F10984700222B4920462B4B984700223221C7
S214402F2014202A4CA0472A4D286000220121142054
S214402F30A047284F3860002204210520A047DFF82C
S214402F40DC80C8F80000244E3B6873602B68336012
S214402F500023019301220092822220492048214CDE
S214402F60A047214B0193032700972B6882221F49D5
S214402F701F48A0471F4B01930423009333468222E9
S214402F801D491E48A047D8F800301D4A019202222B
S214402F90009282221B491C48A0472B681B4A01927C
S214402FA0009782221A491B48A0471B4B9847FEE7CA
S214402FB0CD2E4000652440000526400000060E4009
S214402FC05129400074344000C5294000ED0E4000B1
S214402FD0EC060020E4060020DC0600208434400096
S214402FE025284000A1174000940600209434400055
S214402FF06928400090060020A034400095284000F4
S2144030008C060020AC344000412840008806002052
S214403010BC3440007D27400015184000E8060020DC
S21440302082B0002301934FF0500383F31188BFF31F
S2144030306F8FBFF34F8F00E000BF019B002BFBD08C
S214403040002383F3118802B07047000008B5A4211E
S2144030500148024B984708BD2835400021304000C3
S2144030604FF0500383F31188BFF36F8FBFF34F8F3A
S214403070FEE7000070B50F4E0F4D761BB61018BF1A
S214403080002405D0013455F8043B9847A642F9D1B0
S2144030900A4E0B4D761B00F051FAB61018BF0024AE
S2144030A006D0013455F8043B9847A642F9D170BD86
S2144030B070BD00BF483540004835400050354000A0
S2144030C048354000844641EA000313F003036DD1BF
S2144030D0403A41D351F8043B40F8043B51F8043B96
S2144030E040F8043B51F8043B40F8043B51F8043B9D
S2144030F040F8043B51F8043B40F8043B51F8043B8D
S21440310040F8043B51F8043B40F8043B51F8043B7C
S21440311040F8043B51F8043B40F8043B51F8043B6C
S21440312040F8043B51F8043B40F8043B51F8043B5C
S21440313040F8043B51F8043B40F8043B51F8043B4C
S21440314040F8043B51F8043B40F8043B51F8043B3C
S21440315040F8043B403ABDD2303211D351F8043BDC
S21440316040F8043B51F8043B40F8043B51F8043B1C
S21440317040F8043B51F8043B40F8043B103AEDD28B
S2144031800C3205D351F8043B40F8043B043AF9D2DC
S214403190043208D0D2071CBF11F8013B00F8013BAF
S2144031A001D30B8803806046704700BF082A13D3BC
S2144031B08B078DD010F003038AD0C3F10403D21AD4
S2144031C0DB071CBF11F8013B00F8013B80D331F808
S2144031D0023B20F8023B7BE7043AD9D3013A11F888
S2144031E0013B00F8013BF9D20B7803704B784370F3
S2144031F08B7883706046704770B4860746D0541EFE
S214403200002A41D0CAB2034602E014F1FF343BD351
S21440321003F8012B9D07F8D1032C2ED9CDB245EAF1
S21440322005250F2C45EA054519D903F11002264617
S214403230103E0F2E42F8105C42F80C5C42F8085CD8
S21440324042F8045C02F11002F2D8A4F1100222F017
S2144032500F0204F00F041032032C13440DD91E46FF
S2144032602246043A032A46F8045BFAD8221F22F084
S21440327003020432134404F003042CB1C9B21C44C4
S21440328003F8011B9C42FBD170BC704714460346B2
S214403290C2E700BF024B13B1024800F005B87047C2
S2144032A000000000B5324000002301461A4618468A
S2144032B000F01EB838B50A4C0A4D641BA4100AD05C
S2144032C004F18043013B05EB8305013C55F8043986
S2144032D09847002CF9D1BDE8384000F039B900BF16
S2144032E0603540005C354000704700BF704700BF07
S2144032F02DE9F8432C4D0646286898460F469146D9
S214403300FFF7F2FF294B1C68D4F84831002B3ED01B
S2144033105A681F2A1CDC02F1010E76B103EB8201CB
S2144033200124C1F88890D3F8880194402043022EA7
S214403330C3F88801C1F8088123D00232C3F804E0FC
S214403340286843F82270FFF7D1FF0020BDE8F883D5
S214403350174B0BB34FF4C870AFF300800346D8B199
S214403360D4F848210260002141600A46C4F848016A
S2144033704FF0010EC0F88811C0F88C11002EDCD03A
S214403380CCE7D3F88C110C43C3F88C41D5E704F551
S214403390A673C4F84831BBE72868FFF7A7FF4FF08D
S2144033A0FF30BDE8F88300BF4804002038354000B1
S2144033B0000000002E2E2F7372632F4672656552F2
S2144033C0544F532F706F727461626C652F4743433E
S2144033D02F41524D5F434D34462F706F72742E63AB
S2144033E0000000002E2E2F7372632F4672656552C2
S2144033F0544F532F706F727461626C652F4D656DBC
S2144034004D616E672F686561705F352E6300000002
S2144034102E2E2F7372632F4672656552544F532F6C
S21440342071756575652E63002E2E2F7372632F4659
S21440343072656552544F532F7461736B732E6300DD
S21440344049444C4500000000546D72510000000095
S2144034502E2E2F7372632F4672656552544F532F2C
S21440346074696D6572732E6300000000546D72209F
S2144034705376630054686973206973204C616236E2
S2144034800D0A00004C454430204865617274204265
S21440349065617400546865205458205461736B000D
S2144034A0546865205258205461736B0054686520F8
S2144034B04C4544205461736B0000000042757474A0
S2144034C06F6E205461736B000D0A436861640D0A89
S2144034D0000000000D0A4C616220303520962049DD
S2144034E06E746572727570747320696E204672656C
S2144034F06552544F530D0A000D0A4353542033343B
S2144035003720962052544F530D0A00000D0A486546
S2144035106C6C6F204672656552544F5320576F72DD
S2144035206C640D0A000000002E2E2F7372632F6D00
S21440353061696E2E6300000020000020F8B500BFD1
S214403540F8BC08BC9E467047953240001D014000BE
S214403550F8B500BFF8BC08BC9E467047F90040006E
S214403560AAAAAAAA0100000000093D00C8344000EB
S214403570F8344000D43440000C35400000000000D1
S214403580000000000C03002074030020DC03002031
S21440359000000000000000000000000000000000E6
S2144035A000000000000000000000000000000000D6
S2144035B000000000000000000000000000000000C6
S2144035C000000000000000000000000000000000B6
S2144035D000000000000000000000000000000000A6
S2144035E00000000000000000000000000000000096
S2144035F00000000000000000000000000000000086
S2144036000000000000000000000000000000000075
S2144036100000000000000000000000000000000065
S2144036200000000000000000010000000000000054
S2144036300E33CDAB34126DE6ECDE05000B00000019
S2144036400000000000000000000000000000000035
S2144036500000000000000000000000000000000025
S2144036600000000000000000000000000000000015
S2144036700000000000000000000000000000000005
S2104039A00000000000000000F8060020B8
S804402C454A
