:020000040040BA
:10000000E83C0020513040004D3040004D30400071
:100010004D3040004D3040004D30400000000000A9
:100020000000000000000000000000006107400028
:100030004D3040000000000001084000650840000D
:100040004D3040004D3040004D3040004D304000BC
:100050004D3040004D3040004D304000ED2D40000F
:100060004D3040004D0440006104400075044000E4
:10007000890440009D0440004D3040004D30400058
:100080004D3040004D3040004D3040004D3040007C
:100090004D3040004D3040004D3040004D3040006C
:1000A0004D3040004D3040004D3040004D3040005C
:1000B0004D3040004D3040004D3040004D3040004C
:1000C0004D3040004D3040004D3040004D3040003C
:1000D0004D3040004D3040004D3040004D3040002C
:1000E0004D3040004D3040004D3040004D3040001C
:1000F0004D3040004D30400010B5054C237833B9E9
:10010000044B13B10448AFF300800123237010BDEA
:10011000D8090020000000001C8440000C4B43B1B3
:100120000C480D4910B5AFF300800C48036823B9A3
:1001300010BD0A48036833B97047094B002BF7D04C
:10014000BDE810401847064B002BF5D0184700BFFC
:10015000000000001C844000DC0900201C844000DA
:10016000000000000AB90166704741667047C0F898
:10017000841053004FF40042B2FBF3F2013AC2F391
:100180000D02C0F88C2070474264B1F1C05F39D0D5
:1001900013D8B1F1006F25D0B1F1805F0AD1036FA0
:1001A00013430367416F436F21EA02010B4043672A
:1001B000426070470029FBD17047B1F1205F20D029
:1001C00009D8B1F1005FF3D1036F13430367436FA5
:1001D00013434367ECE7B1F1405F12D0B1F1605FC8
:1001E0000FD0E5E710B4046F016FD3431C402140EA
:1001F0000167446F416F23400B40436742605DF8E5
:10020000044B7047016F036F21EA02010B40036743
:10021000436F13434367CBE712F0100F12D0C0F8BF
:10022000B01012F0200F07D0C0F8D41012F0400F19
:1002300005D0C0F8C0107047C0F8D010F6E7C0F87D
:10024000C4107047C0F8B41070470164704741642F
:100250007047000070B504460D4616460D4B984792
:1002600006F00102294620460B4B984716F00A0F6C
:1002700009D0256216F0020F07D116F0080F06D03C
:10028000C4F8845003E06562F4E7C4F88050656107
:10029000256070BD4F02400065014000F8B504467E
:1002A0000D4616461F46094B9847069A2946204692
:1002B000074B98472FB125652EB9656325612560E9
:1002C000F8BD6565F8E72563F8E700BF4F02400019
:1002D0006501400070B582B0044615461E46B1F176
:1002E000005F14D00AD9B1F1405F23D0B1F1605F53
:1002F00020D0B1F1205F17D0002013E0B1F1805F72
:1003000005D0B1F1C05F02D0B1F1006FF4D12A463F
:100310002046104B984706F00102294620460E4B16
:100320009847012002B070BD1A4629460B4B9847EA
:100330000120F7E706F001030093C6F38003B1F153
:10034000605F14BF0022012229462046044CA047CA
:100350000120E7E7890140006501400055024000A7
:100360009D024000C06C7047806C70472DE9F041E1
:1003700007460E46164B984705463846154B984794
:10038000054022D1144B1B6823B1144B1B680BB1E1
:1003900038469847BDE8F0810134062CF2D8002D8C
:1003A000F0D023010E4AD058B042F5D102EB04132D
:1003B00059680D42F0D002EB0418D8F80C30984779
:1003C000D8F8043025EA0305E6E70024E7E700BF94
:1003D0006503400069034000600C0020680A0020AB
:1003E000F4090020F8B5164C2768062F26D80024FB
:1003F00001E00134E4B2A446A7420AD3114E25011C
:1004000006EB050E75598D42F3D1DEF80450954286
:10041000EFD1CEF80010CEF80420CEF808300699BF
:10042000CEF80C100137BC4505D011461A46064BD4
:1004300098470020F8BD02490F60F6E70120F8BD9B
:10044000640A0020F40900201902400008B50921BF
:100450000148024B984708BD000E0E406D03400056
:1004600008B50A210148024B984708BD00100E400C
:100470006D03400008B50B210148024B984708BDA9
:1004800000120E406D03400008B50C210148024BDC
:10049000984708BD00140E406D03400008B50D21BB
:1004A0000148024B984708BD00160E406D034000FE
:1004B000F8B506460C461546224B984707464FF0BE
:1004C000FF313046204B98473046204B9847002C50
:1004D0000CDB630904F01F0101228A4020331C4910
:1004E00041F82320BFF34F8FBFF36F8F002C08DB41
:1004F000630904F01F0101228A406033144941F866
:100500002320002C17DB2D01EDB204F1604303F52D
:10051000614383F80053002C08DB620904F01F04D8
:10052000012303FA04F40A4B43F8224039463046CB
:10053000084B9847F8BD04F00F022D01EDB2064BB1
:100540009D54E8E7690340004F0240006503400006
:1005500000E100E04B02400014ED00E038B5054634
:10056000084C0FCC28606960AA60EB6007CC28615A
:100570006961AA612388AB8305F11D00024B98478E
:10058000002038BDE87E40000522400038B50A460C
:10059000094B1B6853B1084C25682B685968074BF9
:1005A00098476B6823602BB1012038BD0449024B8A
:1005B0001960F0E7002038BD6C0A0020DD384000EB
:1005C0000400002038B5054690B108200E4B98472E
:1005D000044690B1B4B10D4B984725600023636089
:1005E0000B4B1A6854601C600A4B9847012038BDB9
:1005F00070210948094B9847E7E774210648074BE3
:100600009847E7E7002038BD990A40008507400079
:1006100000000020CD074000087F400075344000F6
:1006200000F1080343604FF0FF328260C360036152
:1006300000230360704700230361704743684B60E9
:100640009A688A609A68516099600861036801330A
:100650000360704730B40D68B5F1FF3F02D000F180
:10066000080202E0026904E01A4653681C68A542C9
:10067000FAD253684B6099608A60516008610368E0
:100680000133036030BC7047036942688168916040
:100690008268416851605A68904206D00022026127
:1006A0001A68013A1A601868704782685A60F5E75C
:1006B00008480068006880F308884FF0000080F365
:1006C000148862B661B6BFF34F8FBFF36F8F00DF40
:1006D00000BF000008ED00E0DFF80C00016841F405
:1006E000700101607047000088ED00E000B583B044
:1006F000002301930B4B1B68B3F1FF3F03D0E321B1
:1007000009480A4B98474FF0500383F31188BFF311
:100710006F8FBFF34F8F019B002BFCD003B05DF8B0
:1007200004FB00BF0C000020787F400075344000BF
:100730004FF0807340F8043C21F0010140F8081CA0
:10074000054B40F80C3C40F8202C6FF0020340F8B9
:10075000243C4438704700BFED0640000000000014
:10076000074B19680868B0E8F04F80F30988BFF3B9
:100770006F8F4FF0000080F311887047AFF3008057
:10078000900A002008B54FF0500383F31188BFF39F
:100790006F8FBFF34F8F094A136801331360012B2A
:1007A00000D008BD064B1B6813F0FF0FF9D040F2D4
:1007B0009F110448044B9847F3E700BF0C0000204A
:1007C00004ED00E0787F40007534400008B5084B28
:1007D0001B683BB1064A1368013B13600BB983F3F6
:1007E000118808BD4FF4D3710248034B9847F1E7D5
:1007F0000C000020787F40007534400000000000AD
:10080000EFF30980BFF36F8F154B1A681EF0100FBE
:1008100008BF20ED108A20E9F04F10602DE9090093
:100820004FF0500080F31188BFF34F8FBFF36F8FED
:1008300001F05EFA4FF0000080F3118809BC1968DE
:100840000868B0E8F04F1EF0100F08BFB0EC108A37
:1008500080F30988BFF36F8F704700BFAFF300804C
:10086000900A002008B54FF0500383F31188BFF3BE
:100870006F8FBFF34F8F054B984718B14FF08052E1
:10088000034B1A60002383F3118808BD591A4000F6
:1008900004ED00E0084A0023136008490B60084B90
:1008A0001B680849A1FB03139B09013B06490B6028
:1008B00007231360704700BF10E000E018E000E07D
:1008C00014000020D34D621014E000E010B582B097
:1008D000344B1A68344B9A4218D0324B1A68334B57
:1008E0009A4219D0324B1A78D2B20192FF221A7072
:1008F0001B78DBB28DF803309DF8033003F0500312
:100900002C4A137007222C4B1A6015E04FF4947197
:100910002A482B4B9847E0E740F229112748284BFB
:100920009847DFE7244A1368013B13609DF80330C2
:100930005B00DBB28DF803309DF8033013F0800FBD
:10094000F0D11D4B1B68032B04D04FF4AD711B4835
:100950001B4B9847184A13681B0203F4E0631360AB
:10096000019BDBB2124A1370164B1A6842F47002F4
:100970001A601A6842F070421A60134B98470024BC
:10098000124B1C60124B9847124A136843F04043C5
:100990001360114B9847114B9847114B98472046CD
:1009A00002B010BD00ED00E071C20F4170C20F41F6
:1009B00000E400E0700A0020740A0020787F400004
:1009C0007534400020ED00E0950840000C00002048
:1009D000D906400034EF00E0B1064000F11C4000B1
:1009E000ED06400008B5EFF305830F2B06D90E4A3C
:1009F0009B5CDBB20D4A1278934208D30C4B1B6808
:100A000003F4E0630B4A1268934206D808BD40F233
:100A1000F2210948094B9847F0E740F202310648B5
:100A2000064B9847F2E700BFF0E300E0700A0020B1
:100A30000CED00E0740A0020787F4000753440001F
:100A400010B4134A00E01A4613688342FBD351687E
:100A50005418A0420AD041684418A3420BD0036046
:100A6000904200D010605DF8044B7047406801442C
:100A700051601046EFE7074C2468A34206D05B683C
:100A80001944416013681B680360E9E70460E7E705
:100A9000880A0020780A002070B505462C4B1B6898
:100AA000B3B12C4B98472C4B1B681D4245D135B137
:100AB000083515F0070F02D025F007050835002D81
:100AC0003DD0264B1B689D423BD8254A146806E062
:100AD0008B212448244B9847E3E722461C46636851
:100AE0009D4202D92368002BF7D1194B1B689C4209
:100AF00029D0166808362368136063685B1B102BC7
:100B000015D8626815490B689B1A0B60174909686C
:100B10008B4201D215490B600F4B1B681343636076
:100B200000232360124B98477EB1304670BD601998
:100B3000436065600F4B9847E3E70026F2E7002625
:100B4000F0E70026EEE70026ECE70B4B9847ECE7D2
:100B5000780A00203D1A40007C0A0020800A00200C
:100B6000880A0020A87F400075344000840A0020D5
:100B70007D1B4000410A4000A1344000002833D0D2
:100B800038B50446A0F1080550F8042C174B1B6833
:100B90001A4211D054F8083C23B14FF49071144814
:100BA000144B984754F8043C104A1268134202D080
:100BB00054F8081C31B138BD40F21F110C480D4BE0
:100BC0009847E7E723EA020344F8043C0A4B9847B6
:100BD00054F8041C094A13680B4413602846084B58
:100BE0009847084B9847E6E7704700BF7C0A00200B
:100BF000A87F4000753440003D1A4000800A002064
:100C0000410A40007D1B40002DE9F04180462C4BFD
:100C10001B6823B140F293112A482B4B9847434657
:100C2000002637461BE0264B1B685BB3244B1B6832
:100C30009D422DD9224A11686319083B23F007030E
:100C4000136000225A601A602A46581B68602B60A5
:100C500001B10D6053681F44013608EBC6035C68A0
:100C6000E4B11D6815F0070F05D0EB1D23F0070355
:100C7000ED1A2C441D46002ED5D1144B1D600022C8
:100C80005A60D7E74FF4DA710E480F4B9847CDE71B
:100C900040F2B7110B480C4B9847CBE70C4B1F6049
:100CA0000C4B1F602FB14FF000420B4B1A60BDE898
:100CB000F0814FF4F0710348034B9847F3E700BF0E
:100CC000780A0020A87F400075344000880A002080
:100CD000840A0020800A00207C0A002010B5044607
:100CE000064B9847A26BE36B9A4204D00024044B56
:100CF0009847204610BD0124F9E700BF8507400052
:100D0000CD07400010B50446054B9847A36B23B1AF
:100D10000024044B9847204610BD0124F9E700BF8A
:100D200085074000CD07400070B504461646856B28
:100D3000026C5AB903681BB100200135A56370BD70
:100D40008068174B98470023A360F6E76EB94068A8
:100D5000144B9847226C636813446360A268934203
:100D600019D3236863600020E7E7C0680D4B9847FC
:100D7000226C5242E3681344E36021688B4202D242
:100D8000A3681A44E260022E01D00020D5E725B105
:100D9000013D0020D1E70020CFE70020CDE700BFD4
:100DA000512140001935400070B582B001900E46C7
:100DB000846C5CB1A26BE36B9A420DD2A26BE36BC5
:100DC0009A420FD30026304602B070BD40F645313E
:100DD0001248134B9847EDE740F646310F48104B49
:100DE0009847EBE794F845506DB2324601A920468A
:100DF0000C4B98470646B5F1FF3F04D001356DB264
:100E000084F84550DFE7636A002BDCD004F124004E
:100E1000054B98470028D6D00126D4E7D47F400060
:100E200075344000290D40004D1E4000026C72B127
:100E300010B5C3681344C3608468A34201D3036838
:100E4000C3600C46C1682046014B984710BD7047EF
:100E50001935400038B505461F4B984795F8454071
:100E600064B208E06B6ABBB105F124001B4B9847E4
:100E700078B9013C64B2002C0EDDAB6C002BF1D0D4
:100E800000212846164B98470028F2D0154B98476A
:100E9000EFE7144B9847ECE7FF2385F84530124BFA
:100EA00098470D4B984795F8444064B201E0013CE7
:100EB00064B2002C0ADD2B6943B105F11000074B29
:100EC00098470028F3D0074B9847F0E7FF2385F8B1
:100ED0004430054B984738BD850740004D1E400003
:100EE000A90D4000811F4000CD07400038B50D46D8
:100EF0000446D0B11B4B98472168E26B236C03FB7F
:100F00000210A0600020A0636160013A02FB03139D
:100F1000E360FF2384F8443084F84530D5B9236971
:100F20004BB9114B9847012038BD40F203110F48CF
:100F30000F4B9847DEE704F110000E4B984700284E
:100F4000EFD04FF080520C4B1A60BFF34F8FBFF3BE
:100F50006F8FE6E704F11000084DA84704F1240064
:100F6000A847DEE785074000CD074000D47F40005A
:100F7000753440004D1E400004ED00E021064000A5
:100F800038B51D46049C0B4659B12260E0632364CA
:100F900001212046044B984784F850500023A36455
:100FA00038BD2460F2E700BFED0E4000F0B583B01D
:100FB0000D461746064690B1BDB105FB06F054300C
:100FC0000B4B9847044638B100903B4600F1540261
:100FD00029463046074DA847204603B0F0BD4FF4E0
:100FE000BB710548054B9847E6E70020E7E700BFDF
:100FF000990A4000810F4000D47F400075344000C2
:10100000F0B585B00F4601921E46044668B197B10F
:101010000123B3B1022E1AD00123EBB1634B9847E1
:1010200000BB019B13BB01231DE040F2F12160488E
:10103000604B9847EBE7236C0BB90123E9E70023EA
:10104000E7E740F2F2215A485A4B9847E2E7E36B50
:10105000012BE2D00023E0E740F2F3215448554B46
:101060009847DBE701231BB1002558E00023FAE78E
:1010700040F2F6214E484F4B9847F5E7A56B3246B4
:10108000394620464C4B9847A36CB3B1022E11D081
:1010900031462046494B984738B14FF08052484B73
:1010A0001A60BFF34F8FBFF36F8F464B98470120F5
:1010B00005B0F0BD002DEBD0F7E7636A53B9002807
:1010C000F3D04FF080523E4B1A60BFF34F8FBFF307
:1010D0006F8FEAE704F124003B4B98470028E4D0E7
:1010E0004FF08052364B1A60BFF34F8FBFF36F8FB4
:1010F000DBE7344B98470020DAE702A8334B9847E8
:10110000012519E0002384F8443021E0002384F80D
:10111000453023E020462E4B98472E4B98472E4BC8
:101120009847A26BE36B9A42A8D3022EA6D0019BEC
:10113000002BDED0002DE0D0224B9847274B98475C
:10114000254B984794F844305BB2B3F1FF3FD9D0B8
:1011500094F845305BB2B3F1FF3FD7D0194B9847B5
:1011600001A902A81E4B9847C8B920461D4B9847B5
:101170000028CFD0019904F110001B4B984720465E
:10118000134B9847134B98470028C8D14FF0805213
:101190000B4B1A60BFF34F8FBFF36F8FBFE7204633
:1011A0000B4B98470B4B9847002081E731214000BB
:1011B000D47F400075344000290D4000A90D400047
:1011C00004ED00E0CD0740004D1E4000E11E400050
:1011D000550E40007D1B4000850740003D1A400031
:1011E000F91E4000DD0C4000C51D40002DE9F8430C
:1011F0000F4691461E460446E8B117B3012333B3A8
:10120000022E2AD001236BB3354B9847EFF3118898
:101210004FF0500383F31188BFF36F8FBFF34F8FED
:10122000A26BE36B9A4223D3022E21D0002088F3D5
:101230001188BDE8F88340F2C3312A482A4B984709
:10124000DBE7236C0BB90123D9E70023D7E74FF481
:1012500071712448244B9847D2E7E36B012BD2D01D
:101260000023D0E740F2C5311E481F4B9847CBE71B
:1012700094F845506DB23246394620461B4B98478C
:10128000B5F1FF3F05D001356DB284F8455001201E
:10129000CDE7A36C5BB131462046154B9847B0B102
:1012A000B9F1000F15D00120C9F80000BFE7636A4B
:1012B0000BB90120BBE704F124000E4B984750B155
:1012C000B9F1000F09D00120C9F80000AFE70120F3
:1012D000ADE70120ABE70120A9E70120A7E700BFA8
:1012E000E5094000D47F400075344000290D4000DE
:1012F000A90D40004D1E4000F0B585B00F4601928B
:10130000044648B177B1012393B1514B9847A8B92E
:10131000019BBBB9012312E04FF4A0614D484E4B35
:101320009847EFE7236C0BB90123EDE70023EBE7C8
:1013300040F204514748484B9847E6E701231BB168
:10134000002644E00023FAE740F209514148424BAD
:101350009847F5E739462046404B9847013DA5633D
:10136000236923B93E4B9847012005B0F0BD04F135
:1013700010003C4B98470028F4D04FF080523A4B75
:101380001A60BFF34F8FBFF36F8FEBE7344B984773
:101390000020EAE702A8354B9847012621E0002308
:1013A00084F8443029E0002384F845302BE02046BF
:1013B0002F4B98472F4B984709E020462C4B9847D6
:1013C0002C4B984720462C4B984700283DD12B4B5F
:1013D0009847A56B002DBDD1019B002BD6D0002EC8
:1013E000D8D01F4B9847264B9847244B984794F8E2
:1013F00044305BB2B3F1FF3FD1D094F845305BB2DB
:10140000B3F1FF3FCFD0164B984701A902A81D4B5F
:1014100098470028D1D12046174B98470028C6D0BE
:10142000019904F12400184B98472046104B984727
:10143000104B98470028CAD14FF080520A4B1A60CF
:10144000BFF34F8FBFF36F8FC1E700208DE700BF61
:1014500031214000D47F4000753440002D0E400003
:10146000CD0740004D1E400004ED00E0E11E4000AD
:10147000550E40007D1B4000050D400085074000D3
:101480003D1A4000F91E4000C51D40000023072BF7
:101490000CD8074A52F833200AB10133F7E7044A5F
:1014A00042F8331002EBC30358607047704700BF27
:1014B000640C002070B504460D461646124B984742
:1014C00094F844305BB2B3F1FF3F0DD094F845304F
:1014D0005BB2B3F1FF3F0BD00C4B9847A36B5BB1F2
:1014E00020460B4B984770BD002384F84430EDE74D
:1014F000002384F84530EFE73246294604F1240002
:10150000044B9847ECE700BF85074000CD0740003B
:10151000550E4000051E4000002301E0013001335C
:101520000278A52AFAD0C3F38F007047084B1B68D6
:101530001B683BB1064B1B68DB68DB685A68054BD0
:101540001A6070474FF0FF32024B1A60704700BFBD
:10155000940A0020800B002038B50546006B024C31
:10156000A0472846A04738BD7D0B40002DE9F84F25
:1015700081460D4617469A460A9EDDF82C800C9C43
:101580009200A521206B254B9847236B07F18042E1
:10159000013A03EB820727F0070715B30023132B4B
:1015A00007D8E95CE21882F83410EA5C0AB101332A
:1015B000F5E7002384F84730072E00D90726E662B6
:1015C000266500256565201DDFF858B0D84704F171
:1015D0001800D8472461C6F10806A66164622B464C
:1015E00009E0002384F83430E6E703F11602002115
:1015F00044F822100133022BF7D90023636684F8E4
:101600006830524649463846054B98472060B8F145
:10161000000F01D0C8F80040BDE8F88F4D364000FB
:10162000310740003706400070B5002407E004EBA6
:10163000840293000C4818440C4B98470134072C43
:10164000F5D90B4E3046094CA0470A4D2846A04715
:101650000948A0470948A0470948A047094B1E6010
:10166000094B1D6070BD00BF9C0A00202106400090
:10167000540B0020680B0020880B0020B40B0020C6
:10168000A00B0020940A0020980A002010B5044600
:10169000224B9847224A136801331360214B1B6881
:1016A000002B32D0204B1B683BB91E4B1B68DA6AFB
:1016B000E36A9A4201D81B4B1C601C4A1368013331
:1016C0001360A364E36A01229A401949086802433F
:1016D0000A6003EB83039A00211D16481044164B41
:1016E0009847164B9847104B1B686BB10D4B1B6806
:1016F000DA6AE36A9A4207D24FF08052104B1A60BE
:10170000BFF34F8FBFF36F8F10BD064B1C60136884
:10171000012BD2D10B4B9847CFE700BF8507400084
:101720003C0B0020900A00209C0B00204C0B00205A
:10173000500B00209C0A00203D064000CD074000D1
:1017400004ED00E0291640000F4B1B68D3B110B523
:101750000E4B98470E4BDB68DC68201D0D4B9847FD
:101760000D4A1368013B1360074A1368013B13607D
:101770000A4B984720460A4B9847034B1B68002B9F
:10178000E6D110BD704700BF400B00208507400028
:10179000B40B0020890640003C0B0020CD07400020
:1017A0005915400008B5074B9847074B1B68012B9C
:1017B000F9D94FF08052054B1A60BFF34F8FBFF33A
:1017C0006F8FF0E7491740009C0A002004ED00E00D
:1017D00070B504460E461D4B1D681D4B186804303D
:1017E0001C4B984750B91A4B1B68DA6A012303FA5D
:1017F00002F219490B6823EA02030B60B4F1FF3FC0
:1018000013D02C44124B1B685C60A54216D8134BB6
:1018100018680F4B19680431114B9847114B1B681E
:101820009C4201D20F4B1C6070BD002EE9D0084BCA
:10183000196804310C480D4B984770BD0C4B186863
:10184000034B19680431064B984770BDC80B002044
:10185000900A002089064000500B0020940A0020C6
:1018600055064000800B0020A00B00203D064000E4
:10187000980A002010B50446074B98472046074BAE
:10188000984702E02023235401301228FAD900237C
:101890002354204410BD00BF3537400001384000BC
:1018A0002DE9F04385B006460F4615469846900050
:1018B000144B984700B381466C20124B984704465E
:1018C000B0B1C0F83090CCB10023039302940D9BCB
:1018D00001930C9B009343462A46394630460A4DF5
:1018E000A8472046094B9847012005B0BDE8F08382
:1018F0004846074B9847E6E70024E4E74FF0FF30FF
:10190000F3E700BF990A40006D1540008D164000B6
:101910007D0B4000F8B50546C8B11B4B1B689D42C6
:101920002AD01A4B98476C69194B1E68194B1F68CF
:10193000194B9847B44221D0BC4221D0174B9C424E
:101940000BD0174B9C421DD0A4B10120F8BD4FF421
:10195000AD611448144B9847DFE7AB6A0BB1022026
:10196000F8BD95F86830DBB2012B01D00320F8BD3B
:101970000220F8BD0420F8BD0020F8BD0220F8BD0B
:101980000220F8BD0420F8BD900A00208507400021
:10199000940A0020980A0020CD074000A00B0020E8
:1019A000B40B0020EC7F40007534400010B582B0CD
:1019B000174B019300230093822216491648174CB7
:1019C000A047012806D0012807D0B0F1FF3F19D069
:1019D00002B010BD124B9847F5E74FF0500383F368
:1019E0001188BFF36F8FBFF34F8F4FF0FF320D4B56
:1019F0001A6001220C4B1A6000220C4B1A600C4B2F
:101A00009847E5E74FF402610A480B4B9847DFE738
:101A10007C0B002014804000A5174000A118400056
:101A200085244000800B00209C0B0020C80B002068
:101A3000CD084000EC7F400075344000024A136836
:101A400001331360704700BF480B0020014B18683A
:101A5000704700BFC80B0020F8B5384B1B68002B3F
:101A600061D1374B1E6801361E607EB9354B1B684D
:101A70001B68E3B9334A1168334B1868106019606A
:101A8000324A136801331360314B9847314B1B685E
:101A90009E423ED20027304B1B68DB6A03EB830378
:101AA0009A002E4B9B58012B42D9012740E040F66B
:101AB0007F212B482B4B9847DCE70127214B1B68E4
:101AC0001B6843B31F4B1B68DB68DC6863689E427E
:101AD00026D3251D2846244B9847A36A1BB104F141
:101AE0001800214B9847E36A01229A401F49086871
:101AF00002430A6003EB83039A0029461748104407
:101B00001B4B9847E26A144B1B68DB6A9A42D4D29B
:101B1000D4E70027D2E74FF0FF320E4B1A60BAE746
:101B20000C4A1360B7E7134A1368013313600027A8
:101B3000114B1B6803B101273846F8BD480B002044
:101B4000C80B0020940A0020980A0020840B002073
:101B50002D154000800B0020900A00209C0A0020D8
:101B6000EC7F40007534400089064000500B002097
:101B70003D064000440B0020CC0B002070B5344BD8
:101B80001B68002B34D0334B9847314B1A68013A0D
:101B90001A601B68002B54D12F4B1B68002B2DD0D3
:101BA00000242E4B1B68002B2AD02C4BDB68DC68F2
:101BB00004F118002A4EB047251D2846B047E36AB5
:101BC00001229A402749086802430A6003EB830315
:101BD0009A00294624481044244B9847E26A244B33
:101BE0001B68DB6A9A42DCD30122224B1A60D8E7D9
:101BF00040F685012048214B9847C4E7002421E0A6
:101C00000CB11F4B98471F4B1C6874B9194B1B68CC
:101C1000E3B14FF080521C4B1A60BFF34F8FBFF3FC
:101C20006F8F01240EE0013C07D0184B9847002825
:101C3000F9D001220F4B1A60F5E70022114B1A6010
:101C4000E4E70024124B9847204670BD0024F9E7D2
:101C5000480B0020850740003C0B0020880B00202B
:101C600089064000500B00209C0A00203D064000E1
:101C7000900A0020CC0B0020EC7F4000753440001F
:101C80002D154000440B002004ED00E0591A4000DF
:101C9000CD07400010B5D8B104460E4B1B688BB978
:101CA0000D4B9847002120460C4B98470C4B98470A
:101CB00038B94FF080520B4B1A60BFF34F8FBFF310
:101CC0006F8F10BD40F23C510748084B9847E7E73B
:101CD0000020EDE7480B00203D1A4000D1174000DE
:101CE0007D1B400004ED00E0EC7F400075344000B7
:101CF0002C4B1B68002B35D110B500222A4B1A60E3
:101D00002A4B1B681B6B1A68B2F1A53F2ED0274BDC
:101D1000186819683431264B9847264B1C68B4FA6A
:101D200084F4E4B2C4F11F0404EB84029300224A59
:101D3000D35843B32049A300181982000A445068BD
:101D40004068506023449A0008321144884220D0F1
:101D500004EB8404A200184B13445B68DA68134B4D
:101D60001A6010BD0122104B1A6070475A68B2F118
:101D7000A53FCCD19A68B2F1A53FC8D1DB68B3F1D9
:101D8000A53FC4D1C9E740F6B7310C480C4B984782
:101D9000D0E7416804EB84039A00074B1344596071
:101DA000D6E700BF480B0020CC0B0020900A002093
:101DB000B5344000500B00209C0A0020EC7F40000E
:101DC0007534400038B50C46054650B1084B1968CB
:101DD00018312846074B984701212046064B984763
:101DE00038BD40F6CE310548054B9847EEE700BFB9
:101DF000900A002055064000D1174000EC7F4000BB
:101E00007534400070B50D461446064668B10A4B5D
:101E1000196818313046094B98470CB14FF0FF351F
:101E200021462846064B984770BD40F6F9310548D3
:101E3000054B9847EBE700BF900A00203D064000A5
:101E4000D1174000EC7F40007534400038B5C368BE
:101E5000DC6824B304F118052846174B9847174B44
:101E60001B6813BB251D2846134B9847E36A0122C4
:101E70009A401349086802430A6003EB83039A00FF
:101E8000294610481044104B9847E26A0F4B1B68D4
:101E9000DB6A9A420ED901200D4B186038BD40F61E
:101EA00029410C480C4B9847D4E729460B48064B70
:101EB0009847EAE7002038BD89064000480B00201B
:101EC000500B00209C0A00203D064000900A002094
:101ED000CC0B0020EC7F400075344000880B0020C4
:101EE000034B1B680360034B1B684360704700BFD4
:101EF000840B0020C80B0020F8B50C460546D0B175
:101F0000FCB1184B9847184B19686A68881A2368FF
:101F1000B3F1FF3F22D02F68144E3668B74201D08C
:101F200091421DD2984212D3002323600124104B0A
:101F300098472046F8BD40F694410E480E4B98470E
:101F4000DEE740F695410B480B4B9847D9E71B1A43
:101F500023602846094B98470024E8E70024E6E779
:101F60000124E4E785074000C80B0020840B002013
:101F7000CD074000EC7F400075344000E11E40007A
:101F80000122014B1A607047CC0B002070B50C4643
:101F900016460546D0B1256005F134026260EA6A52
:101FA00022612A6BE261AA6CA2602A6D6261002242
:101FB000A261052B19D0124A1268954209D02373E9
:101FC000032B09D0B6B90023238470BD0C4A1568D1
:101FD000E1E700232373F5E70A4B9847AB6A0BB19F
:101FE00002232373084B9847ECE72846074B984792
:101FF0002073E7E7286B064B9847208470BD00BF2D
:10200000900A00203D1A40007D1B40001519400039
:10201000191540002DE9F84F0B6843B34B685B6816
:102020004B6001F108094B4507D090460D46074625
:102030004B68D3F80CA0002411E05B684B60F4E718
:102040006B68DE6804EBC4039900434601223944FF
:102050003046DFF824B0D8470134B24508D06B6869
:102060005B686B609945EBD15B686B60E8E70024C7
:102070002046BDE8F88F00BF8D1F4000F8B5074629
:102080000C461646214B9847214B1B68A3423BD870
:1020900008250024013D04EBC403980005EB8502EC
:1020A000930001221B49194438441B4B98470444B0
:1020B000002DEFD104EBC4039800184B19680222DD
:1020C0003844154DA847044404EBC4039800144B4E
:1020D000196802223844A847044404EBC40398005A
:1020E000042210493844A847044404EBC403980070
:1020F00003220D493844A84704440EB1002333603D
:102100000A4B98472046F8BD0024F9E73D1A4000E5
:102110003C0B00209C0A002015204000940A00205F
:10212000980A0020B40B0020A00B00207D1B40006B
:10213000054B1B6823B1054B1B681BB90220704778
:1021400001207047002070479C0B0020480B0020A6
:10215000002845D038B50446234B1B68984204D06C
:1021600040F6D1712148224B9847636D4BB1636DA6
:10217000013B6365E16A226D914233D03BB100209F
:1021800038BD40F6D2711948194B9847EFE7251D25
:102190002846184B984768B9E36A03EB83018A0025
:1021A00015498A5832B901229A4014490B6823EA2A
:1021B00002030B60236DE362C3F10802A2610124F4
:1021C00004FA03F20D49086802430A6003EB830333
:1021D0009A00294608481044094B9847204638BDC4
:1021E00000207047002038BD900A0020EC7F40009E
:1021F00075344000890640009C0A0020500B0020E6
:102200003D0640002DE9F04383B0054600230370EE
:10221000284B1C681B6803EBC3039800264B9847A8
:10222000002844D0074600222146244B9847804688
:10223000002623E04FF058090DE04FF042090AE074
:102240004FF0530907E04FF0440904E04FF0000954
:1022500001E04FF0520961682846194B984705463E
:102260002369228CA168019100924A461549164CB7
:10227000A0472846154B984705440136464513D2DA
:1022800006EBC6039C003C44237B042BDED801A252
:1022900052F823F035224000532240003B224000F8
:1022A00041224000472240003846094B984703B07E
:1022B000BDE8F0833C0B0020990A40007D204000DF
:1022C0007518400004804000E936400001384000A5
:1022D0007D0B4000F8B50E460446C8B1274B984721
:1022E000EFF311854FF0500383F31188BFF36F8F25
:1022F000BFF34F8F94F86830DBB2022284F8682075
:10230000626E01326266012B08D085F31188F8BD38
:1023100041F263311A481B4B9847DFE7A36A23B1A8
:1023200041F289311648174B9847174B1B68FBB988
:10233000271D3846154B9847E36A01229A401449F5
:10234000086802430A6003EB83039A003946114888
:102350001044114B9847E26A104B1B68DB6A9A42A3
:10236000D3D90EB10123336001220D4B1A60CCE7A3
:1023700004F118010B48084B9847ECE7E5094000C9
:10238000EC7F400075344000480B00208906400077
:10239000500B00209C0A00203D064000900A0020BF
:1023A000CC0B0020880B0020064B1A6813682BB951
:1023B0000123036023B9D368186870470023F8E746
:1023C00000207047D00B002008B5416000619142A9
:1023D0000CD8D21A83699A4201D3012008BD011D8D
:1023E000094B1868094B9847002008BD9A4201D252
:1023F000994206D2011D064B1868044B98470020ED
:1024000008BD012008BD00BFD40B002055064000C8
:10241000D00B002070B5104B9847104B1B6813B1C0
:102420000F4B984770BD0F4D28460F4EB0470F4CCD
:102430002046B0470E4B1D600E4B1C600022102141
:1024400005200D4B9847054B18600028E8D00B4934
:102450000B4B9847E4E700BF85074000040C0020C1
:10246000CD074000D80B002021064000EC0B0020D7
:10247000D00B0020D40B0020AD0F40001C8040008A
:102480008D14400010B582B00E4B98470E4B1B6860
:102490007BB10E4B01930723009300234FF482720C
:1024A0000B490C480C4CA047044624B1204602B00E
:1024B00010BD0024F9E740F213110848084B984773
:1024C000F4E700BF15244000040C0020080C002095
:1024D000408040004D284000A1184000248040006A
:1024E00075344000F0B585B00C4616461F460546CB
:1024F00098B1154B186828B3009401960295052CE5
:1025000019DC124B984702280DD000231A46694661
:102510000D4800680E4CA04712E04FF4C1710D4801
:102520000D4B9847E5E700230A9A6946064800687C
:10253000074CA04704E000233A466946074CA047F1
:1025400005B0F0BD0020FBE7040C00203121400065
:10255000011040002480400075344000ED1140001F
:1025600070B582B01A4B1B681A684AB3DB681E68E4
:10257000DC68251D2846174B9847236A2046984754
:1025800094F8283013F0040FECD0A36933449E4232
:1025900007D26360246129460D4B18680E4B98479B
:1025A000E0E7002100910B46324620460B4CA04745
:1025B0000028D7D14FF4617109480A4B9847D1E7F9
:1025C000094A106802490860136002B070BD00BF7C
:1025D000D00B00208906400055064000E52440004D
:1025E0002480400075344000D40B002038B50546E7
:1025F000084B98470446084B1B68984205D30023B4
:102600002B60054B1C60204638BD044B98470123C6
:102610002B60F6E74D1A4000000C002061254000B9
:1026200070B582B005460E46164B1B68DB68DC6849
:10263000201D154B984794F8283013F0040F08D14B
:1026400023F0010384F82830236A2046984702B01B
:1026500070BDA1692B463246294420460B4EB04737
:102660000028F1D0002100910B462A462046084D53
:10267000A8470028E8D14FF4FC710648064B98475C
:10268000E2E700BFD00B002089064000C9234000CC
:10269000E5244000248040007534400070B582B0CD
:1026A00006460C46174B984701A8174B9847019BC5
:1026B0002BBB05460CB9B04218D224B1134B1B6892
:1026C0001B68D3B901242246711B114B1868114BAA
:1026D0009847114B984738B94FF080520F4B1A600A
:1026E000BFF34F8FBFF36F8F02B070BD0A4B984797
:1026F000294630460A4B9847F6E70024E3E7064BA5
:102700009847F1E73D1A4000ED254000D40B00202A
:10271000040C0020B51440007D1B400004ED00E0D7
:102720002126400030B589B002E0049B002B0FDA6F
:10273000002204A93C4B18683C4B9847002870D0F5
:10274000049B002BF1DA07990698059B9847ECE764
:10275000069C636913B1201D354B984703A8354B80
:1027600098470546049B092BE2D8DFE803F00505EE
:10277000052E354C05052E3594F8283043F001031D
:1027800084F828300599A0690B462A460144204662
:10279000294DA8470028CBD0236A2046984794F8B3
:1027A000283013F0040FC3D0A269002100910B461A
:1027B000059802442046214CA0470028B8D140F299
:1027C00013311F481F4B9847B2E794F8283023F085
:1027D000010384F82830ABE794F8283043F0010374
:1027E00084F82830059BA3613BB1A1692B462A469A
:1027F00029442046104CA0479AE740F22B3110485C
:10280000104B9847F1E794F8283013F0020F04D0EA
:1028100023F0010384F828308AE720460A4B9847C2
:1028200086E709B030BD00BF040C0020F91240005B
:1028300089064000ED254000C9234000E524400002
:1028400024804000753440007D0B400000B583B00B
:1028500001A8044B98470199034B9847034B9847AD
:10286000F6E700BFA92340009D2640002527400031
:1028700010B509200E4CA0470A20A0470B20A04706
:102880000C20A0470D20A0470A4B4FF080541C613C
:10289000C3F8A0404FF400301861C3F8A000064A06
:1028A00002211161C2F8A0105C635863516310BD2E
:1028B000F92F400000140E4000160E40012808D0E9
:1028C00002280BD003280ED0094BD86BC0F38050E0
:1028D0007047074BD86BC0F300707047044BD86B40
:1028E000C0F340407047034BD86BC0F340007047C3
:1028F00000140E4000160E4008B501280CD0022826
:1029000017D0032822D000292BD04FF48002174B78
:102910001A63174B984708BD31B14FF08052134BE3
:102920001A63134B984708BD4FF080520F4B5A6300
:10293000F7E731B14FF400320C4B1A630C4B984758
:1029400008BD4FF40032094B5A63F7E729B1022260
:10295000084B1A63064B984708BD0222054B5A6381
:10296000F8E74FF48002014B5A63D2E700140E409F
:10297000BD28400000160E4010B50446064B98478F
:10298000012804D001212046044B984710BD0021A6
:102990002046024B984710BDBD284000F928400052
:1029A00000B583B000230193092815D00C2819D055
:1029B0000C281ED001A9124B1868124B9847019B96
:1029C0003BB14FF08052104B1A60BFF34F8FBFF3F3
:1029D0006F8F03B05DF804FB0429E7D11A460B4B57
:1029E0001A60E7E7B1F1806FE2D17A22074B1A60F3
:1029F000E0E7B1F1804FDDD17E22044B1A60D9E7C8
:102A00001C0C0020D522400004ED00E00C0C00203E
:102A10002DE9F04F83B0484C4FF080666661C4F8F2
:102A2000A0604FF080456561C4F8A0500123434A7F
:102A30005361C2F8A0306666C4F89060666526628D
:102A4000C4F88460236F23F080632367636F23F0EF
:102A5000806363676566C4F8905065652562C4F855
:102A60008450236F23F080432367636F23F08043F8
:102A70006367C4F8C060C4F8D460C4F8B060C4F838
:102A8000C050C4F8D450C4F8B050792304224FF099
:102A900020512A48DFF8B0B0D8470A22042127483D
:102AA000DFF8A8A0D047DFF8A890CDF800907923F0
:102AB000042209212148224FB847052209211F4835
:102AC000DFF89080C04704211C481E4B98477923AB
:102AD00032464FF020512046D8470A223146204640
:102AE000D047CDF80090792332460C212046B847D4
:102AF00005220C212046C04731462046114B9847FD
:102B000079232A464FF020512046D8470A222946E9
:102B10002046D047CDF8009079232A460C21204644
:102B2000B84705220C212046C04729462046054BC0
:102B3000984703B0BDE8F08F00140E40000E0E4021
:102B4000E50340004B024000D50240006F01400009
:102B5000A1294000B1044000012806D0022809D074
:102B6000074BD86BC0F380007047064BD86BC0F39F
:102B700080607047034BD86BC0F38070704700BF14
:102B8000000E0E4000140E4038B504680CE0224BD5
:102B90001B68002B25DD00221F4B1A6013461F49BE
:102BA000096820461E4DA84701201E4B9847012862
:102BB000EDD002201B4B9847012816D00020194B5E
:102BC00098470128F0D1144B1B68002B1FDD002211
:102BD000114B1A601346144909682046104DA84746
:102BE000E2E701330C4A1360DEE70B4B1B68002B56
:102BF00009DD0022084B1A6013460C49096820467B
:102C0000074DA847D0E70133034A1360CCE70133EF
:102C1000014A1360C8E700BF100C00201C00002010
:102C200001104000592B400024000020200000200B
:102C300008B50020034B98474FF47A70024B984731
:102C4000F7E700BF79294000951C400038B50546DC
:102C5000054C4FF0FF3221462846044B9847207818
:102C6000034B9847F4E700BF140C0020F912400012
:102C70007929400010B58EB044684FF0FF3201A9A9
:102C80002046044B9847322201A90348034B98473A
:102C9000F3E700BFF912400000060E40D12D4000BE
:102CA000F0B58FB04568066800248DF837402AE0FB
:102CB0000120244B984700231A4601A93046224F91
:102CC000B8471FE001201F4B984700231A4601A96F
:102CD00030461D4FB84715E001201A4B9847002396
:102CE0001A4601A93046184FB8470BE000231A4690
:102CF00001A93046144FB8470022144B19681448F4
:102D0000144B984701344FF0FF320DF1370128463C
:102D1000114B98479DF837308DF804300EAA2244A5
:102D200002F8343C312BC3D0322BCBD0332BD3D051
:102D3000752BDBD000231A4601A93046024FB84755
:102D4000E0E700BF79294000011040001800002092
:102D500000060E40D12D4000F912400010B5044687
:102D6000154B4FF4C0621A66C3F890205A655A6238
:102D7000C3F88020196F21F4C0611967596F21F4DD
:102D8000C06159675A6007200C4B9847AC232360F9
:102D9000342323624FF40063636040F20223C4F8DB
:102DA0002031502222600123A360054B83F80723C2
:102DB00080221A60002010BD000E0E40F92F400046
:102DC00000E100E0436913F0020FFBD0C1617047DE
:102DD00038B505460C4603E02846034B98470134B6
:102DE00021780029F8D138BDC52D400010B582B03A
:102DF00000238DF807300F4B5B6913F0010F01D1F1
:102E000002B010BD0B4B9B698DF8073000236A465A
:102E10000DF1070108480068084CA047009B002BF3
:102E2000EED04FF08052064B1A60BFF34F8FBFF3C6
:102E30006F8FE5E700060E40AC0C0020ED1140005E
:102E400004ED00E008B50E480E4B98473E210020E7
:102E50000D4B98470D4B98470028FBD00C4B9847DB
:102E60000C4A0D4B9A620D4B98470028FBD010205E
:102E70000B4B98470B4B98470B48024B984708BDA4
:102E8000000E27070D324000752F4000C92F40006B
:102E9000D92F4000013F0F2000040E40E92F4000D1
:102EA000212F4000FD30400000D8B80510B54FF488
:102EB0000042184B5A600920174CA0470A20A0472F
:102EC0000B20A0470C20A0470D20A047134B4FF428
:102ED00080021A61C3F8A0201A63A3F5C06304221C
:102EE0005A61C3F8A0205A66C3F890205A651A6246
:102EF000C3F88420196F21F004011967596F21F07C
:102F000004015967C3F8C020C3F8D420C3F8B02027
:102F100010BD00BF50180E40F92F400000140E40A5
:102F2000134A136B23F07003184310634FF40063CC
:102F30000F4A926E12F0080F02D1A3B1013BF7E7DE
:102F40000B4A136B23F0030343F0020313634FF4A4
:102F50000063074A926E12F0080F02D12BB1013BB9
:102F6000F7E700207047012070470120704700BF3D
:102F700000040E40D0B9114A136A23F45C1323F005
:102F80000303090289B20B4343F45C1343F00103CA
:102F900013620A4B9B6E13F0010FFAD0074A136AB3
:102FA00043F09B7343F480331362704703490B6A09
:102FB000034A1A40034B13430B62704700040E4050
:102FC000FCFFC8FE02003701024B986E00F480300F
:102FD000704700BF00040E404FF00052014B9A6250
:102FE000704700BF00040E40024B986E00F00200D4
:102FF000704700BF00040E402F281ED81F280CD891
:10300000114B9A6901238340934318D0012303FA9B
:1030100000F00D4B18610020704720380A4BD3F8A0
:1030200008210123834093430BD0012303FA00F0CE
:10303000054BC3F8000100207047012070470020B5
:1030400070470020704700BF00040E40FEE70000FC
:1030500000B583B01E4B1F4A9A4209D01C4B1D4A33
:1030600003E011681960043304321B498B42F8D322
:103070001A4B02E000221A600433194A9342F9D332
:10308000184A194B23F07F039360EFF31083B3FAD0
:1030900083F35B09019372B6BFF35F8F0022134B7A
:1030A0001A700199124A136843F470031360BFF356
:1030B0004F8FBFF36F8F29B101220C4B1A70BFF3F2
:1030C0005F8F62B60B4B98470B4B9847FEE700BFEC
:1030D000000000201C844000D8090020D8090020EE
:1030E000E80C002000ED00E000004000100000208F
:1030F00088ED00E0C93440003D3340003C4B1B6B81
:1031000003F00303012B20D083B1022B39D0384BBD
:103110001B6B03F07003702B62D0354B1A6BC2F33C
:10312000021234490B68D3400B607047324B5B6925
:1031300013F0800F04D04FF400422E4B1A60E6E7E4
:103140004FF4FA422B4B1A60E1E7294B1B6A13F04C
:10315000807F03D0294A274B1A60D8E7284A254B9D
:103160001A60234B1B6A03F07003102B05D0202B31
:10317000CDD1224A1F4B1A60C9E7224A1D4B1A6063
:10318000C5E71B4B1B6A13F0807F16D01B4A194BF7
:103190001A60174B1B6B03F00303022BB7D11448C3
:1031A000826AC2F30A4213490B6802FB0333826A44
:1031B000D2B2B3FBF2F30B60A9E7114A0D4B1A60D0
:1031C0000B4B1B6A03F07003102B05D0202BE0D1B2
:1031D0000A4A084B1A60DCE70A4A064B1A60D8E72D
:1031E000044A13680849A1FB03135B081360704786
:1031F00000040E401400002010180E40001BB70001
:1032000000093D0000127A00ABAAAAAA144B98420A
:103210000FD9144B984211D9134B984212D9134B22
:10322000984213D9124B984214D9124A124B1A6081
:1032300070474FF08062104B1A6070470F4A0E4B78
:103240001A6070470E4A0C4B1A6070470D4A0A4BC1
:103250001A6070474FF00422074B1A60704700BF96
:10326000FF2C3101FF596202FF869303FFB3C404B0
:10327000FFE0F50500050004000A0E40000100040F
:1032800000020004000300040A4B1B6853B1094B01
:103290001B681A180849914208DB1046054A10605D
:1032A00018467047054A034B1A60F0E74FF0FF30AD
:1032B000704700BF180C0020FCFF0120E83C0020F4
:1032C00000B589B0104BDA1D22F00702C3F100539C
:1032D00003F5003323F00703A3F580630092019305
:1032E0004FF0C24302934FF4002303934FF0C642C2
:1032F000049205930023069307936846034B98476F
:1033000009B05DF804FB00BFE83C0020090C400058
:1033100010B5064B9847064B9847064B984709202F
:10332000054CA0470A20A04710BD00BF452E400015
:10333000AD2E4000C1324000F92F40002DE9F04190
:1033400082B02E4B98472E4B98472E4B98472E4CC9
:1033500020462E4B984700222D4920462D4B98475A
:103360002D482E4B98470022322114202C4CA04788
:103370002C4D2860002201211420A0472A4F3860DC
:10338000002204210520A047DFF8E480C8F80000EF
:10339000264E3B6873602B68336000230193012243
:1033A0000092822222492348234CA047234B0193B9
:1033B000032700972B68822221492248A047224BED
:1033C0000193042300933346822220492048A047DA
:1033D000D8F800301F4A01920222009282221E4930
:1033E0001E48A0472B681E4A0192009782221D4961
:1033F0001D48A0471D4B9847FEE700BF1133400012
:1034000071284000112A400000060E405D2D40004A
:1034100048804000D12D400054814000C505400047
:10342000AD0F4000B40C0020AC0C0020A40C002018
:1034300058804000312C4000A1184000280C00208A
:1034400068804000752C4000240C002074804000EF
:10345000A12C4000200C0020808040004D2C40001A
:103460001C0C002090804000892B4000AD194000CA
:10347000B00C002082B0002301934FF0500383F37F
:103480001188BFF36F8FBFF34F8F00E000BF019B28
:10349000002BFBD0002383F3118802B0704700009B
:1034A00008B5A8210148024B984708BD4481400057
:1034B000753440004FF0500383F31188BFF36F8FD2
:1034C000BFF34F8FFEE7000070B50F4E0F4D761B18
:1034D000B61018BF002405D0013455F8043B9847B6
:1034E000A642F9D10A4E0B4D761B04F081FFB610AF
:1034F00018BF002406D0013455F8043B9847A64273
:10350000F9D170BD70BD00BFFC834000FC8340005A
:1035100004844000FC834000844641EA000313F029
:1035200003036DD1403A41D351F8043B40F8043BCA
:1035300051F8043B40F8043B51F8043B40F8043B8D
:1035400051F8043B40F8043B51F8043B40F8043B7D
:1035500051F8043B40F8043B51F8043B40F8043B6D
:1035600051F8043B40F8043B51F8043B40F8043B5D
:1035700051F8043B40F8043B51F8043B40F8043B4D
:1035800051F8043B40F8043B51F8043B40F8043B3D
:1035900051F8043B40F8043B51F8043B40F8043B2D
:1035A00051F8043B40F8043B403ABDD2303211D3CD
:1035B00051F8043B40F8043B51F8043B40F8043B0D
:1035C00051F8043B40F8043B51F8043B40F8043BFD
:1035D000103AEDD20C3205D351F8043B40F8043BCD
:1035E000043AF9D2043208D0D2071CBF11F8013BCB
:1035F00000F8013B01D30B8803806046704700BF91
:10360000082A13D38B078DD010F003038AD0C3F19F
:103610000403D21ADB071CBF11F8013B00F8013B81
:1036200080D331F8023B20F8023B7BE7043AD9D340
:10363000013A11F8013B00F8013BF9D20B78037015
:103640004B7843708B7883706046704770B4860700
:1036500046D0541E002A41D0CAB2034602E014F1FB
:10366000FF343BD303F8012B9D07F8D1032C2ED94F
:10367000CDB245EA05250F2C45EA054519D903F1D8
:1036800010022646103E0F2E42F8105C42F80C5CE9
:1036900042F8085C42F8045C02F11002F2D8A4F18E
:1036A000100222F00F0204F00F041032032C134416
:1036B0000DD91E462246043A032A46F8045BFAD87E
:1036C000221F22F003020432134404F003042CB13D
:1036D000C9B21C4403F8011B9C42FBD170BC70476B
:1036E00014460346C2E700BF0EB4F0B59CB021AB50
:1036F0000F4953F8042B019305466FF00044086806
:1037000002954FF402774FF6FF7602A90695ADF8C1
:10371000147004940794ADF8166000F011F9029B40
:1037200000221A701CB0BDE8F04003B0704700BF23
:103730002800002080EA0102844612F0030F4FD1D6
:1037400011F0030F32D14DF8044D11F0040F51F870
:10375000043B0BD0A3F101329A4312F0803F04BF27
:103760004CF8043B51F8043B16D100BF51F8044B10
:10377000A3F101329A4312F0803FA4F101320BD140
:103780004CF8043BA24312F0803F04BF51F8043BC5
:103790004CF8044BEAD023460CF8013B13F0FF0F22
:1037A0004FEA3323F8D15DF8044B704711F0010F55
:1037B00006D011F8012B0CF8012B002A08BF704726
:1037C00011F0020FBFD031F8022B12F0FF0F16BF1D
:1037D0002CF8022B8CF8002012F47F4FB3D17047E5
:1037E00011F8012B0CF8012B002AF9D1704700BF0A
:1037F00000000000000000000000000000000000C9
:1038000090F800F06DE9024520F007016FF0000C20
:1038100010F0070491F820F040F049804FF00004C8
:103820006FF00700D1E9002391F840F000F10800A3
:1038300082FA4CF2A4FA8CF283FA4CF3A2FA8CF3DB
:103840004BBBD1E9022382FA4CF200F10800A4FA42
:103850008CF283FA4CF3A2FA8CF3E3B9D1E9042396
:1038600082FA4CF200F10800A4FA8CF283FA4CF3CD
:10387000A2FA8CF37BB9D1E9062301F1200182FA87
:103880004CF200F10800A4FA8CF283FA4CF3A2FA8D
:103890008CF3002BC6D0002A04BF04301A4612BA9B
:1038A000B2FA82F2FDE8024500EBD2007047D1E99E
:1038B000002304F00305C4F100004FEAC50514F02D
:1038C000040F91F840F00CFA05F562EA05021CBFFE
:1038D00063EA050362464FF00004A9E740EA0103EA
:1038E00013F0030F70B4034624D0A2B10C781C70FF
:1038F000013A013301313CB16AB111F8014B03F8CF
:10390000014B013A002CF7D12AB11A44002103F8E7
:10391000011B9A42FBD170BC70470E4651F8045B04
:10392000A5F1013424EA050414F0803F05D143F8E1
:10393000045B043A032AF0D8D7E73146D6E700BF44
:103940002DE9F04FC3B00C460B9192460F930C90AB
:1039500002F00EFA03681A931846FFF751FFA38985
:103960001990190603D52369002B01F00380002369
:103970000DF1C80913931593149327932693189365
:103980001B930993CDF89490C846169317939AF811
:1039900000305446E3B1252B02D119E0252B03D08A
:1039A00014F8013F002BF9D1A4EB0A0585B1269B41
:1039B000279AC8F800A001332A44072BC8F80450FE
:1039C000279226937FDC08F10808099B2B44099372
:1039D0002378002B7FD000231A468DF877301946C4
:1039E0000D939B464FF0FF3063780A9004F1010A73
:1039F0000AF1010AA3F12000582800F2C183DFE890
:103A000010F03802BF03BF034002BF03BF03BF0370
:103A1000BF03BF03BF0345020302BF035D006B0288
:103A2000BF0386029D039D039D039D039D039D038C
:103A30009D039D039D03BF03BF03BF03BF03BF03DC
:103A4000BF03BF03BF03BF03BF0337035703BF0356
:103A50005703BF03BF03BF03BF039803BF03BF03E5
:103A6000AD03BF03BF03BF03BF03BF035902BF03BF
:103A7000BF031E03BF03BF03BF03BF03BF03BF03D7
:103A8000BF03BF03BF03BF03C602DB0257035703D5
:103A900057038B02DB02BF03BF039002BF039D02EB
:103AA000CC01B4020802BF03E101BF037E00BF03E3
:103AB000BF030D020D980F9340420D904BF0040B85
:103AC0009AF8003094E725AA0B990C9802F080FF31
:103AD00040B9C84679E7279B23B10C980B9925AAD2
:103AE00002F076FF0B9B9B8913F0400F099B18BFD8
:103AF0004FF0FF330993099843B0BDE8F08F1BF0F6
:103B0000200F119340F0DD810F9A1BF0100F134628
:103B100040F06E851BF0400F00F06A851488043277
:103B2000002501230F9200278DF877700A994A1C0F
:103B300000F065822BF08002079254EA050240F003
:103B40006482002940F03C84002B40F0D7841BF0B5
:103B500001030E9300F0048642AE302306F8413D87
:103B60000A9B0E9A9342B8BF134608930023129300
:103B700017B1089B01330893079B13F002031093BE
:103B800002D0089B02330893079B13F0840540F092
:103B90000E830D9B089AA3EB020BBBF1000F40F3C1
:103BA0000683BBF1100F279C269A29DD4346214648
:103BB000A84610270C9C0B9D06E0ABF1100BBBF147
:103BC000100F03F1080318DD0132B74826921031B7
:103BD000072A279183E88100EFDD25AA29462046A0
:103BE00002F0F6FE00287FF47DAFABF1100BBBF1C5
:103BF000100F2799269A4B46E6DC45460C46984618
:103C00000132A94B26925C44072A279488E80808C9
:103C100000F398849DF8777008F1080877B1269B27
:103C2000013301340DF177010122072B27942693EC
:103C300088E8060000F3DB8308F10808109B6BB1ED
:103C4000269B013302341EA90222072B27942693B8
:103C500088E8060000F3D68308F10808802D00F0FC
:103C600015830A9B0E9A9F1A002F36DD102F269B74
:103C70008E4D27DD42462146B0464FF0100B2E46B2
:103C80000C9C0B9D04E0103F102F02F1080215DD83
:103C900001331031072B2791269382E84008F2DD8B
:103CA00025AA2946204602F093FE00287FF41AAF89
:103CB000103F102F2799269B4A46E9DC35460C46D3
:103CC0004646904601333C44072B2794269388E8C8
:103CD000A00000F3818308F10808079BDF0500F1CD
:103CE0006882269B0E99C8F8006001330C44072BAC
:103CF0002794C8F80410269300F34D8308F10808B0
:103D0000079B5B073AD50D9B089A9D1A002D35DD60
:103D1000102D269B20DD10260C9FDDF82CB004E032
:103D2000103D102D08F1080816DD01335E4A269378
:103D30001034072B279488E84400F1DD25AA594662
:103D4000384602F045FE00287FF4CCAE103D102D21
:103D5000279C269BC846E8DC0133534A26932C4413
:103D6000072B279488E8240008DD25AA0B990C98D6
:103D700002F02EFE00287FF4B5AE279C099B0D9A19
:103D800008998A42ACBF9B185B180993002C40F03D
:103D90000D8300232693C846F9E511931BF02003F9
:103DA00040F0E3811BF0100240F02E841BF0400332
:103DB00000F02A840F9913460A4604320C880F92A9
:103DC0000025B0E60F9A1193166800248DF877400D
:103DD000151D002E00F0A7860A9A531C00F00986D4
:103DE0002146304602F08CFA002800F0E186831B61
:103DF0000E930A940F95CDF81CB023EAE373089351
:103E000012949DF87770B3E69AF8003001222B21C6
:103E1000EEE54BF0200B9AF80030E9E51193002A0B
:103E200040F09587224B18931BF0200F40F0118132
:103E30000F9A1BF0100F134640F0E1831BF0400F68
:103E400000F0DD83043314880F9300251BF0010F6D
:103E500000F00C8154EA050300F0088130239DF83E
:103E600044208DF878308DF879204BF0020B022336
:103E700059E69AF8003000297FF4BAAD01222021DA
:103E8000B6E54BF0010B9AF80030B1E50F9C2368C2
:103E90000D9318460028234603F10403FFF60AAEEB
:103EA0000F939AF80030A3E5AC814000BC8140003C
:103EB0008C8140004BF0100B1BF0200F11933FF44E
:103EC00023AE0F9D073525F0070303F10802D3E960
:103ED00000450F92012326E69AF800302A2B0AF1BA
:103EE000010400F02787A3F130000928A24600F260
:103EF000AD8600231C461AF8013B04EB840400EB5A
:103F00004404A3F130000928F5D90A9472E54BF076
:103F1000800B9AF800306BE54BF0400B9AF80030BC
:103F200066E59AF800306C2B03BF9AF801304BF02D
:103F3000200B0AF1010A4BF0100B59E5002A40F062
:103F400011871BF0200F40F0F9841BF0100F40F098
:103F5000AC841BF0400F00F0A8840F9A1368043261
:103F60000F92BDF824201A8011E50F99B34B0C680D
:103F700018933022782304318DF8793011934BF067
:103F8000020B0F9100258DF878200223CBE50F99C5
:103F900011930A688DF8A02000230A461F468DF869
:103FA0007730043201230893CDF81CB00A9712979A
:103FB0000F920E9328AEDFE51193002A40F0EA86B7
:103FC0001BF0200F5DD11BF0100F40F008831BF099
:103FD000400F00F004830F99B1F900400431E51758
:103FE00022462B460F91002A73F1000358DB0A99F1
:103FF0009DF877704A1C4FF001037FF49BAD54EAA3
:10400000050200F0DF81CDF81CB0012B00F07B82AF
:10401000022B40F0068218984E46230904F00F0147
:1040200043EA05732A091C461546435C06F8013D20
:1040300054EA0503F1D1A9EB06030E9390E5119321
:10404000002A40F0A3867E4B18931BF0200F3FF40C
:10405000EFAE0F9D073525F0070303F108021BF0B3
:10406000010F0F92D3E900457FF4F4AE02235AE525
:104070001193002A40F086864BF0100B1BF0200FA6
:10408000A1D00F9D073525F00705D5E90023002AAB
:1040900005F108011D4673F100030F911446A6DADD
:1040A0002D27644265EB45058DF8777001233DE5CA
:1040B0001193002A40F062860F9D073525F0070313
:1040C00003F108020F921A6815925B681493149B0F
:1040D000159D23F00044284621464FF0FF32594BEE
:1040E00003F03CFD002840F04A83284621464FF06B
:1040F000FF32544B03F014FD002840F0408315A814
:104100000DC8149903F002FD002840F030859DF899
:1041100077704D4E4D4B2BF0800007901198032285
:10412000002108920A914728D8BF1E460E9212918C
:104130001EE54BF0080B9AF8003059E4A3F130006B
:1041400000231C461AF8013B04EB840400EB4404F2
:10415000A3F130000928F5D90D944BE44BF0100B76
:1041600011931BF020033FF41DAE0F9D073525F082
:10417000070303F10802D3E900450F920023D2E4BC
:104180001193002A40F0E785119A002A3FF4A3AC6E
:10419000002301211F4608918DF8A020CDF81CB006
:1041A0008DF877300A9312930E9128AEE4E4279CA1
:1041B00034E5119B652B40F3A78015A80DC8149911
:1041C00003F09AFC002800F05081269B204AC8F892
:1041D0000020013301340122072B27942693C8F8CD
:1041E000042000F36A8308F108081F9B139A279C98
:1041F000934203DB079BDD077FF582AD269B199970
:104200001A9AC8F8002001330C44072BC8F8041090
:104210002794269300F39E8308F10808139B5E1EE3
:10422000002E7FF76DAD102E269B0A4D40F3F581D1
:1042300022461027DDF830B00B9C13E08C81400043
:1042400078814000FFFFEF7F6C8140006881400073
:10425000A8814000BC81400008F10808103E102EE3
:1042600040F3DA8101331032072B2792269388E836
:10427000A000F1DD25AA2146584602F0A9FB00283E
:104280007FF430AC279A269BC846E7E70D9B089A37
:104290009F1A002F7FF7E5AC102F269BB64D27DD28
:1042A00042462146B0464FF0100B2E460C9C0B9D0B
:1042B00004E0103F102F02F1080215DD0133103128
:1042C000072B2791269382E84008F2DD25AA29468C
:1042D000204602F07DFB00287FF404AC103F102F35
:1042E0002799269B4A46E9DC35460C4646469046C9
:1042F00001333C44072B2794269388E8A00000F361
:10430000328208F10808ACE4139B269F012B40F38E
:10431000FE81013701340123072F27942697C8F81F
:104320000060C8F8043000F3038208F10808199A05
:104330001A9BC8F8003001371444072F279426979A
:10434000C8F8042000F3008208F1080815A80DC879
:10435000149903F0D1FB139B002840F00181013B2D
:10436000013701361C44072F26972794C8F80060B0
:10437000C8F8043000F3278108F108081B9AC8F830
:1043800004200137144421AB072F27942697C8F83F
:1043900000307FF7B3AC25AA0B990C9802F018FBFC
:1043A00000287FF49FAB279CC846A9E425AA0B9957
:1043B0000C9802F00DFB00283FF4EBACFFF792BB2A
:1043C000DDF81CB0012B00F03481022B25D1CDF893
:1043D0001CB0002400251EE625AA0B990C9802F0BB
:1043E000F7FA00287FF47EAB279CC84675E425AA1F
:1043F0000B990C9802F0ECFA00287FF473AB279C21
:10440000C8461BE425AA0B990C9802F0E1FA002893
:104410007FF468AB279CC84620E4CDF81CB000248C
:104420000025494600E03146E20842EA4572E808C4
:1044300004F0070305461446303354EA050201F838
:10444000013C01F1FF36EED1079AD2077FF5F3ADBB
:10445000302B3FF4F0AD0239302306F8013CA9EBD4
:1044600001030E930E46FFF77BBB1F99002940F313
:104470002E82129B139A9342A8BF1346002B1F460D
:104480000DDD269BC8F8006001333C44072B2794C0
:10449000C8F80470269300F31F8308F10808129BE4
:1044A000002FA8BFDB1B002B1F4640F3D680102F28
:1044B000269B314D40F3ED8142462146B0464FF0F8
:1044C000100B2E460C9C0B9D04E00832103F102F61
:1044D00040F3DB8101331031072B2791269382E8CB
:1044E0004008F2DD25AA2946204602F071FA00288C
:1044F0007FF4F8AA2799269B4A46E7E70A9B0E9382
:104500004E46FFF72DBB002D08BF0A2CC0F08F8050
:104510004E46204629460A22002303F05DFB303236
:1045200006F8012D2046294600230A2203F054FBF9
:1045300004460D4654EA0503EBD1A9EB06030E939E
:10454000FFF70EBB25AA0B990C9802F041FA002840
:104550007FF4C8AA9DF87770279CC846FFF75EBB1A
:104560005E1E002E7FF70AAF102E034D22DD22467D
:104570004FF0100B0C9C06E0BC814000103E102E4A
:1045800008F1080815DD01371032072F279226970A
:1045900088E82008F2DD25AA0B99204602F018FAD7
:1045A00000287FF49FAA103E102E279A269FC84607
:1045B000E9DC144601373444072F2794269788E80E
:1045C00060007FF7D9AE25AA0B990C9802F000FA8B
:1045D00000287FF487AA279C269FC846CEE60F9A1C
:1045E000146813460433E5170F9322462B46FAE46A
:1045F00004321C680F9201230025FFF794BA1C684F
:1046000004330F93002521E40F990A4604320C6805
:104610000F920025FFF787BA144601333444072B65
:104620002794269388E860007FF768ABB3E6DDF84F
:104630001CB0CDF81CB042AE3034012306F8414D19
:104640000E93FFF78DBA25AA0B990C9802F0C0F9CA
:1046500000287FF447AA279CC8461F9A139B9A42BA
:1046600044DB079BD90741D4139B12989A1A1D1A51
:104670009542A8BF1546002D0EDD2699C8F80450B6
:10468000013106442C440729C8F80060279426917C
:1046900000F33B8208F10808002DACBF561B1646FC
:1046A000002E7FF72DAB102E269BB04DB5DD224698
:1046B0001027DDF830B00B9C04E008F10808103E2C
:1046C000102EA9DD01331032072B2792269388E89C
:1046D000A000F2DD25AA2146584602F079F900280B
:1046E0007FF400AA279A269BC846E8E7269B1998DC
:1046F0001A99C8F8001001330444072B2794C8F80E
:104700000400269300F3F58108F10808ACE7079B45
:10471000DA073FF5FEAD013701340123072F279457
:104720002697C8F80060C8F804307FF725AE4AE73E
:1047300025AA0B990C9802F04BF900287FF4D2A916
:10474000279C269FC846F2E525AA0B990C9802F0F3
:104750003FF900287FF4C6A9279C269FC846F5E5A7
:104760004E46FFF7FDB925AA0B990C9802F030F9D7
:1047700000287FF4B7A9279CC846FFF772BA159C9A
:1047800022462046149C2346214603F0E7F90028E0
:1047900040F086820A9B0133119B23F020030E9385
:1047A00000F0E281472B00F01E814BF480730793E9
:1047B000149B1F1E159B0893BBBF3B4603F100478C
:1047C00000232D231093119B662B00F0BB81462BF9
:1047D00000F0DF800E9B089A452B0CBF0A9B0A9DB8
:1047E00023A820A908BF5D1C049003911FA80221E3
:1047F0003B460290019500910C9800F075FB119BCF
:10480000672B064640F0E0811BF0010F00F0468266
:104810007419169A0898179B394603F06DF9002809
:1048200040F06581239BA34206D230215A1C23927B
:104830001970239B9C42F9D89B1B13930E9B472B0B
:1048400000F0E980119B652B40F3CD81119B662B15
:104850001F9B129300F09E81139B129A194691425E
:1048600000F38A811BF0010F40F0138222EAE27309
:10487000089367230E921193109B002B40F0C48085
:104880000A939DF87770FFF773B935460C46464694
:10489000904601333C44072B2794269388E8A000D8
:1048A0003FF7D1AE08F10808D7E60F9A1368043233
:1048B0000F92099A1A60FFF76AB825AA0B990C980B
:1048C00002F086F800287FF40DA9C8468DE4269BE7
:1048D000274AC8F80020013301340122072B27940E
:1048E0002693C8F8042072DC08F1080829B9139B44
:1048F0001BB9079BD8077FF503AA269B19981A9A1C
:10490000C8F80020013302462244072B2792C8F83A
:104910000400269300F38D8108F108080029C0F2F5
:1049200065811399C8F8006001338C18072B279410
:104930002693C8F804107FF7E1A92CE50F9A09998E
:104940001368CD170846043229460F92C3E90001C7
:10495000FFF71DB825AA0B990C9802F039F800282A
:104960007FF4C0A8279CC84658E400BFBC81400023
:10497000A881400040210C9801F00CFA0B9A1060BD
:104980001061002800F0F2810B9A40235361FEF77A
:10499000EEBF23A820A90A9C049003911FA803211D
:1049A0000290089A01943B4600910C9800F09CFA02
:1049B00025460646119B462B06EB05047FF429AFDE
:1049C0003378302B00F078811F9D2C4421E725AAF5
:1049D0000B990C9801F0FCFF00287FF483A81F9925
:1049E000279CC84682E70A9B002B08BF01230A9335
:1049F000DBE630460A94FEF703FF0F950E90CDF8E4
:104A00001CB00346FFF7F9B92D2700238DF8777006
:104A10000A93FFF7AEB81F9B12931A46033304DBC9
:104A20000A9B19469142BFF617AF119B023B1193A7
:104A30009DF844308DF88430129B013B002B1F936E
:104A4000BDBF129BC3F101032D222B22092B8DF830
:104A5000852040F316810DF193042046AB4D00E014
:104A6000104685FB0312D917C1EBA20101EB8102AD
:104A7000A3EB42023032092900F8012C0B4600F169
:104A8000FF32EDDC30330238D9B2844202F8011C27
:104A900040F265810DF18600134601E013F8011B19
:104AA00000F8011BA342F9D101339B1A0DF18602D4
:104AB000134421AA9B1A139A1B93012A13440E93A1
:104AC00040F319810E9B199A13440E9323EAE37362
:104AD000089300231293CFE625AA0B990C9801F0B6
:104AE00077FF00287EF4FEAF279CC846D7E4234614
:104AF000A2E625AA0B990C9801F06AFF00287EF423
:104B0000F1AF1F9A279CC846AEE525AA0B990C98D1
:104B100001F05EFF00287EF4E5AF1F9A139B279CEF
:104B20009A1AC846B8E50A9B1296062B28BF062398
:104B30000A96374608930F95CDF81CB00E93744E25
:104B4000FFF716B823A820A90A9D049003911FA877
:104B500003210290089A01953B4600910C9800F0C1
:104B6000C3F9064644192BE706230A931DE62D27B1
:104B70008DF87770FFF7CDBA199A139B1344129AE8
:104B80000E93002A40F3B08023EAE373089367236F
:104B9000119371E6002B40F3C3800A9A002A40F07B
:104BA00099801BF0010F40F0958008930E9363E607
:104BB0000A9B08930E930A900F95CDF81CB01290A3
:104BC0009DF87770FEF7D4BF119B472B7FF420AE82
:104BD0001BF0010F7FF4EEAE239B9B1B13930E9BE8
:104BE000472B3FF418AF1F9B129321E74F42103120
:104BF000484D2FDA1024DDF830B004E008F1080841
:104C0000103F102F26DD01331032072B27922693F9
:104C1000C8F80050C8F80440F0DD25AA0B995846A2
:104C200001F0D6FE00287EF45DAF279A269BC84689
:104C3000E6E725AA0B990C9801F0CAFE00287EF43D
:104C400051AF1F99279A269BC84667E600200A9015
:104C5000FEF7D0BE01333A44072B88E8A000279224
:104C6000269308F108087FF75CAE25AA0B990C98EB
:104C700001F0AEFE00287EF435AF279A269BC84689
:104C80004FE6303330228DF887308DF8862022AB06
:104C90000FE7129B199A13440E9375E7239BCBE5FC
:104CA000149B1D4E002BB6BF2D279DF877708DF8F5
:104CB00077701A4BFFF72FBA169A0898179B394648
:104CC00002F01AFF00287FF47FAEC5F101051F95A1
:104CD0002C449EE5129B199A13440A9A1A4422EA1C
:104CE000E2730E920893C7E5129B0E9AC3F101037B
:104CF0001A441346D0E71BF0010312937FF4E2AE8F
:104D00000E9B23EAE3730893B6E500BF6766666609
:104D1000A0814000BC81400074814000708140004F
:104D20000A9B13B91BF0010F02D0199B0133D4E782
:104D300001233AE70F9D9AF80130286840EAE070B5
:104D40000A9028460430A2460F90FEF751BE8DF817
:104D50007710FFF767B88DF87710FFF715BA0DF1E8
:104D60008603A6E68DF87710FFF7EBB80C9A0C23B4
:104D700013604FF0FF330993FEF7BDBE8DF8771037
:104D8000FFF79AB98DF87710FFF776B98DF877109D
:104D9000FFF759B98DF87710FFF712B9024B13B12D
:104DA000024800F005B87047000000003D5D40007B
:104DB000002301461A46184601F088BE02690B69B5
:104DC000934200F38D802DE9F04F03F1FF3801F19C
:104DD000140700F1140B57F828205BF828304FEA2D
:104DE000880483B00132B3FBF2F90BEB04030094A7
:104DF00007EB040A0193B9F1000F39D000252E46C4
:104E0000BC46DE465CF8044BDEF80030A2B209FB7B
:104E10000255220C2C0C09FB0242ADB2751B96B256
:104E2000C6EB134615FA83F306EB23469BB243EA1F
:104E30000643E2454FEA12454EF8043B4FEA264648
:104E4000E0D2009B5BF8033093B9019C231F9B4584
:104E50000CD254F8043C4BB9A4F1080302E01A68E0
:104E6000043B1AB99B4508F1FF38F8D3C0F810800D
:104E7000044601F09FFC00282EDB09F101095D4684
:104E8000002357F8041B28688AB29A1A0B0C12FAEE
:104E900080F2C3EB104303EB224392B242EA034297
:104EA000BA4545F8042B4FEA2343EAD25BF82820A1
:104EB0000BEB880382B91A1F93450BD253F8042CCD
:104EC00042B9083B02E01A68043B1AB99B4508F155
:104ED000FF38F8D3C4F81080484603B0BDE8F08F1F
:104EE00000207047000000002DE9F04F016C9BB0DE
:104EF0000446279E92469B4641B1426C4A6001237C
:104F000093408B6001F07EFA00232364BBF1000F15
:104F10005D4635DB002333609D4BAB4315D05046D7
:104F200059460022002302F0E7FD804600282DD0DC
:104F3000269A01231360289B002B00F0BD80954822
:104F4000186001381BB0BDE8F08F269A42F20F734B
:104F50001360BAF1000F0DD1C5F3130555B9289BA5
:104F60008D48002BEED000F10803289A13601BB087
:104F7000BDE8F08F289B8948002BE3D0C31CF4E7E1
:104F800001232BF000453360AB46C5E718AA19ABE7
:104F90000192009352465B46204601F0ABFC2B0D7C
:104FA000814671D0CBF3130242F07F51189FCDF8A8
:104FB00050805046A3F2FF3641F440110022784B56
:104FC00002F07EF96CA3D3E9002302F02DFB6CA361
:104FD000D3E9002302F076F9CDE90201304602F070
:104FE000BDFA69A3D3E9002302F01EFB02460B467B
:104FF000DDE9020102F066F9CDE9040102F0C4FD29
:10500000002202900023DDE9040102F07FFD002868
:1050100040F07381029D162D00F25D81614B03EB20
:10502000C503D3E9000152465B4602F08DFD00281E
:1050300000F0C5816B1E029300230E93BF1B7B1EE5
:10504000069300F1548100230893029B002BC0F2C9
:105050004581069A0D9311461944002306910C933D
:10506000249B092B2AD8052B40F35B86043B249311
:105070000025249B023B032B00F24286DFE813F05D
:10508000D403C902DF036104189F199E3E4406F24F
:105090003243202B40F38E81C3F1400306F21240CD
:1050A0009D402AFA00F0284302F048FA0123013E0D
:1050B000A1F1F871149381E73B4843E70021616453
:1050C0002046259101F078F94FF0FF330A93259A95
:1050D0000F9301230490206424920B93199B002BBF
:1050E000C0F2D980029A0E2A00F3D5802D4B03EB33
:1050F000C203D3E90023CDE90823259B002BC0F28E
:10510000BA83DDE9085650462A463346594602F02E
:10511000B5FB02F039FD804602F020FA2A463346FC
:1051200002F082FA0B4602465946504602F0C8F891
:10513000049D08F130032B700A9B012B06460F4695
:1051400005F1010568D00022184B02F06DFA00222B
:10515000002306460F4602F0CFFC002840F088806E
:10516000CDF82C904FF0000ADFF840B00C94DDE948
:10517000088928E0AFF3008061436F63A787D23FBF
:10518000B3C8608B288AC63FFB799F501344D33F36
:105190000000F07FA9814000CC814000D881400010
:1051A0000000F83F08824000A88140000000244031
:1051B00002F03AFA0022002306460F4602F09CFC59
:1051C000002840F0C18342464B463046394602F043
:1051D00055FB02F0D9FC044602F0C0F942464B46AA
:1051E00002F022FA02460B463046394602F068F8D1
:1051F00004F1300E049E05F801EBA5EB060E0A9EA5
:10520000B645CDE9060152465B46D1D1A046DDF850
:105210002C900C9C06460F4632463B46304639469B
:1052200002F050F806460F4602460B46DDE908013B
:1052300002F06CFC48B932463B46DDE9080102F059
:105240005BFCA8B118F0010F12D015F8018C049A7C
:105250006B1E04E09A4200F0018413F8018DB8F14E
:10526000390F03F10105F5D008F1010883F800803A
:105270004946204601F0C6F80022029B2A70269A71
:1052800001331360289B002B00F09E8304981D605F
:105290001BB0BDE8F08F0B9A002A3ED0249A012A59
:1052A00040F311830A9B0C9A5F1EBA42C0F28F83AF
:1052B000D71B0A9B002BC0F28B84089D0A9B089A7F
:1052C0001A440892069A01211A442046069201F0D7
:1052D00033F9064624E001230E93AFE6089A029BB9
:1052E000D21A5B420C93002308920D93B8E6C7F1E3
:1052F0000103089300230693A7E6029D284602F0C7
:105300002DF902460B46DDE9040102F0F5FB002809
:105310007FF480AE6B1E02937CE60C9F089D0B9E73
:10532000002D0CDD069900290B4608DDA942089ADC
:10533000A8BF2B46D21AED1ACB1A089206930C9BE3
:10534000D3B10B9B002B00F0B782002F10DD31464C
:105350003A46204601F08CF94A4601460646204668
:1053600001F0F4F849468046204601F04BF8C1466A
:105370000C9BDA1B40F0A1820121204601F0DCF8F1
:105380000D9B002B80461CDD01461A46204601F08D
:105390006FF9249B012B804640F3548200230C9329
:1053A000D8F8103008EB8303186901F075F8C0F1E4
:1053B000200010E0C3F120050AFA05F074E60E9013
:1053C0003CE6249B012B40F3878200230C930D9B2A
:1053D0000120002BE4D1069A104410F01F0000F0C9
:1053E000A180C0F12003042B40F39E84089BC0F1F0
:1053F0001C00034408931346034405440693089B8A
:10540000002B05DD49461A46204601F081F9814608
:10541000069B002B05DD41461A46204601F078F92F
:1054200080460E9B002B40F086800A9B002B40F3A9
:1054300066820B9B002B00F09880002D05DD314625
:105440002A46204601F064F906460C9B002B40F0EA
:10545000378306960A9B049ADDF818B0013BD318EF
:105460000B930AF001030C931746C2465146484677
:10547000FFF7A4FC31460546484601F09BF95A4621
:105480000A905146204601F0B1F9C268804605F104
:105490003003002A40F02B8201464846089301F071
:1054A00089F941460690204600F0ACFF069A089B19
:1054B00032B9249921B90C9A002A00F0EF83249A7A
:1054C0000A990029C0F29F8205D1249919B90C9933
:1054D000002900F09882002A00F306830B9A3B70A3
:1054E00007F101089742454600F00C834946002326
:1054F0000A22204600F090FF5E45814631464FF07B
:1055000000034FF00A02204600F0EB8100F084FF18
:105510005946064600230A22204600F07DFF4746F2
:105520008346A3E71C20089B03440893069B03447F
:105530000544069363E74146484601F03BF90028DD
:10554000BFF673AF029F494600230A222046013F5F
:10555000029700F061FF0B9B8146002B40F0B68361
:105560000F9B002B40F3BF830A93DDF810B00A9F16
:105570005D4602E000F050FF814641464846FFF795
:105580001DFC00F1300A05F801ABA5EB0B03BB4293
:105590004FF00A024FF0000349462046EADB049B25
:1055A0000A9A012AACBF9B1801331D464FF0000B2D
:1055B00049460122204601F0ABF84146814601F000
:1055C000F9F8002840F33D8215F8012C04996B1E70
:1055D00004E08B4200F0AE8113F8012D392A03F16B
:1055E0000105F6D001321A704146204600F00AFF4C
:1055F000002E3FF43DAEBBF1000F05D0B34503D004
:105600005946204600F0FEFE3146204600F0FAFEE4
:105610002EE600230B93029B259A13440F9301332C
:10562000012B1F461E460A93B8BF01270021172FE2
:1056300061640AD9012204235B0003F1140087424C
:10564000114602F10102F7D26164204600F0B4FE77
:105650000E2E049020643FF641AD002D3FF43EAD88
:1056600002990029CDE910AB40F30282B84B01F05A
:105670000F020D1103EBC203E906D3E9006740F105
:10568000AE81B44B50465946D3E9082302F0F6F8F0
:10569000CDE9120105F00F054FF0030A8DB1DFF8D7
:1056A000B482EA0709D530463946D8E9002301F02B
:1056B000BBFF0AF1010A06460F466D1008F1080803
:1056C000EFD13B463246DDE9120102F0D7F807463A
:1056D00088460E9B43B100229F4B3846414602F05C
:1056E00015FA002840F08682504601F037FF3A460E
:1056F000434601F099FF994B002201F0E3FD0A9B1C
:105700000546A1F15076002B00F03E81029B1593D7
:105710000A9B12930B9B002B00F0FA81129A8C4B80
:105720008F4903EBC20353E90223002002F0A6F8DD
:105730002A46334601F0C4FD82468B463846414630
:1057400002F022FA054601F009FF02460B463846F0
:10575000414601F0B5FD30355FFA85F8049D0646F7
:105760000F4685F8008002460B46504659460135E3
:1057700002F0EAF9002854D132463B46002076492F
:1057800001F09EFD02460B465046594602F0DCF9F8
:10579000002840F07082129A012A00F01181129BB9
:1057A000049ACDF84890134499460DE000206A49C8
:1057B00001F086FD52465B4602F0A8F9002840F051
:1057C00058824D4500F0FA80504659460022654BFC
:1057D00001F02AFF0022634B82468B463046394651
:1057E00001F022FF0F46064602F0CEF9804601F096
:1057F000B5FE02460B463046394601F061FD08F120
:1058000030085FFA88F852465B4605F8018B064679
:105810000F4602F07BF932463B460028C6D0DDF841
:105820004890159B029323E500230B93259B002BA7
:1058300040F3DC801F461E460F930A93F6E60123D1
:105840000B93F3E7BAF1000F7FF4A8ADCBF313038A
:10585000002B7FF4BAAD2BF000473F0D3F05002F22
:1058600000F00D82089B01330893069B01330693D9
:1058700001230C93ABE50A9B002B3FF742AC40F0B1
:1058800021820022384BDDE9080101F0CDFE5246AD
:105890005B4602F04FF9DDF828804646002841D0EB
:1058A000259B049DDB4302934146204600F0AAFD60
:1058B000002E3FF4DDACA7E60C9A4946204600F0E6
:1058C000D7FE814658E5149A002A00F0878103F23A
:1058D00033430C9F089DF2E4BAF1000F7FF475ADDD
:1058E000B4E700F099FD474606468346BEE501460B
:1058F0002046069300F086FD0122069BE0E5249BEE
:10590000022B7FF796AD0A9B002BC9D14146052299
:10591000204600F081FD01468046484600F04AFFDF
:105920000028BDDD029A04993123013202920B70E6
:105930004D1CB9E7029A01320292049A3123137086
:1059400052E601230B9366E6DDF82C900C9C8FE465
:1059500008824000E08140000000F03F00001C4051
:105960000000E03F0000244000001440504601F0D9
:10597000F5FD3A46434601F057FE0022C14B01F0C7
:10598000A1FC0546A1F1507641460022BE4B3846A7
:1059900001F096FC2A46334682468B4602F0D4F844
:1059A0008046002840F010812A4606F10043504608
:1059B000594602F0ABF818B1464671E7DDF8489059
:1059C000DDE910ABFFF78ABB0498FFF7BBBA0C9B6D
:1059D0000D9A0C97FB1A1A440D92002769E4DDE931
:1059E00010234FF0020ACDE9122357E600210123CC
:1059F00061642046259300F0DFFC259B0490206421
:105A00000A930F9329E6002AD046CDF818B09A469B
:105A100011DD49460122204600F07AFE41468146CA
:105A200000F0C8FE002840F34681BAF1390F00F0BB
:105A3000068105F1310AB34687F800A07D1C069E59
:105A4000D2E504D11AF0010F01D0BDE5154615F8D5
:105A5000013C302B05F1FF32F8D0C5E50499302226
:105A60000A70029A15F8018C01320292FFF7FCBB12
:105A700000F0BB80029B5D42844B05F00F0203EBFC
:105A8000C203D3E90023DDE9100101F0CDFD2D11A2
:105A90000746884600F02C817D4E4FF0020AEB0746
:105AA00009D538464146D6E9002301F0BDFD0AF18B
:105AB000010A074688466D1006F10806EFD108E690
:105AC0007168204600F078FC336902339A0005467D
:105AD00006F10C010C30FDF71FFD2946012220467E
