S00D00004C616230322E73726563A6
S21440000088360020FD234000F9234000F9234000B5
S214400010F9234000F9234000F92340000000000087
S214400020000000000000000000000000A1024000A8
S214400030F92340000000000041034000A5034000B3
S214400040F9234000F9234000F9234000F9234000FB
S214400050F9234000F9234000F9234000F9234000EB
S214400060F9234000F9234000F9234000F9234000DB
S214400070F9234000F9234000F9234000F9234000CB
S214400080F9234000F9234000F9234000F9234000BB
S214400090F9234000F9234000F9234000F9234000AB
S2144000A0F9234000F9234000F9234000F92340009B
S2144000B0F9234000F9234000F9234000F92340008B
S2144000C0F9234000F9234000F9234000F92340007B
S2144000D0F9234000F9234000F9234000F92340006B
S2144000E0F9234000F9234000F9234000F92340005B
S2144000F0F9234000F923400010B5054C237833B966
S214400100044B13B10448AFF300800123237010BDA5
S2144001103C04002000000000482C40000C4B43B13B
S2144001200C480D4910B5AFF300800C48036823B95E
S21440013010BD0A48036833B97047094B002BF7D007
S214400140BDE810401847064B002BF5D0184700BFB7
S21440015000000000482C400040040020482C40008E
S2144001600000000000F1080343604FF0FF32826059
S214400170C360036100230360704700230361704738
S21440018043684B609A688A609A68516099600861D3
S214400190036801330360704730B40D68B5F1FF3F24
S2144001A002D000F1080202E0026904E01A465368F1
S2144001B01C68A542FAD253684B6099608A605160C9
S2144001C0086103680133036030BC704703694268C6
S2144001D0816891608268416851605A68904204BF65
S2144001E082685A60002202611A68013A1A601868EA
S2144001F07047000008480068006880F308884FF0A1
S214400200000080F3148862B661B6BFF34F8FBFF329
S2144002106F8F00DF00BF000008ED00E0DFF80C0045
S214400220016841F4700101607047000088ED00E00D
S21440023000B583B0002301930B4B1B68B3F1FF3F1F
S21440024003D0E32109480A4B98474FF0500383F305
S2144002501188BFF36F8FBFF34F8F019B002BFCD0ED
S21440026003B05DF804FB00BF00000020102B4000E8
S2144002707D2740004FF0807340F8043C21F0010198
S21440028040F8081C054B40F80C3C40F8202C6FF01A
S214400290020340F8243C4438704700BF3102400017
S2144002A0074B19680868B0E8F04F80F30988BFF339
S2144002B06F8F4FF0000080F311887047AFF30080D7
S2144002C07804002008B54FF0500383F31188BFF33D
S2144002D06F8FBFF34F8F094A136801331360012BAA
S2144002E000D008BD064B1B6813F0FF0FF9D040F254
S2144002F09F110448044B9847F3E700BF00000020D6
S21440030004ED00E0102B40007D27400008B5084B68
S2144003101B683BB1064A1368013B13600BB983F375
S214400320118808BD4FF4D3710248034B9847F1E754
S21440033000000020102B40007D27400000000000F9
S214400340EFF30980BFF36F8F154B1A681EF0100F3E
S21440035008BF20ED108A20E9F04F10602DE9090013
S2144003604FF0500080F31188BFF34F8FBFF36F8F6D
S21440037001F038FA4FF0000080F3118809BC196884
S2144003800868B0E8F04F1EF0100F08BFB0EC108AB7
S21440039080F30988BFF36F8F704700BFAFF30080CC
S2144003A07804002008B54FF0500383F31188BFF35C
S2144003B06F8FBFF34F8F054B984718B14FF0805261
S2144003C0034B1A60002383F3118808BD351540009F
S2144003D004ED00E0084A0023136008490B60084B10
S2144003E01B680849A1FB03139B09013B06490B60A8
S2144003F007231360704700BF10E000E018E000E0FD
S21440040008000020D34D621014E000E010B582B022
S214400410364B1A68364B9A421ED0344B1A68354BC8
S2144004209A421FD0344B1A78D2B20192FF221A70E9
S2144004301B78DBB28DF803309DF8033003F0500391
S2144004402E4A137007222E4B1A609DF8033013F085
S214400450800F1ED006220CE04FF4947129482A4B98
S2144004609847DAE740F229112648274B9847D9E7BC
S2144004700A469DF803305B00DBB28DF803309DF8EA
S2144004800330511E13F0800FF2D11D4B1A60032A21
S21440049004D04FF4AD711B481B4B9847184A13685D
S2144004A01B0203F4E0631360019BDBB2124A137035
S2144004B0164B1A6842F470021A601A6842F070428C
S2144004C01A60134B98470024124B1C60124B9847F7
S2144004D0124A136843F040431360114B9847114B40
S2144004E09847114B9847204602B010BD00ED00E0FB
S2144004F071C20F4170C20F4100E400E05804002072
S2144005005C040020102B40007D27400020ED00E0DA
S214400510D5034000000000201D02400034EF00E0FC
S214400520F5014000E51740003102400008B5EFF302
S21440053005830F2B06D90E4A9B5CDBB20D4A127818
S2144005409A4208D80C4B1B6803F4E0630B4A1268C7
S214400550934206D808BD40F2F2210948094B984715
S214400560F0E740F202310648064B9847F2E700BFF4
S214400570F0E300E0580400200CED00E05C040020AE
S214400580102B40007D27400010B4134A00E01A4666
S21440059013688342FBD351685418A0420AD041687E
S2144005A04418A3420BD00360904218BF10605DF819
S2144005B0044B70474068014451601046EFE7074CD3
S2144005C02468A34206D05B681944416013681B68E0
S2144005D00360E9E70360E7E770040020600400205A
S2144005E0F8B504462B4B1B68C3B12B4B98472B4B97
S2144005F01D68254244D1002C45D004F1080212F073
S214400600070F1CBF22F007020832002A38D0244BBE
S2144006101E68B24234D823490C6806E08B21224833
S214400620224B9847E1E721461C4663689A4202D926
S2144006302368002BF7D1174B1B689C4220D00F68CD
S214400640083723680B6063689B1A102B12D86268C1
S214400650B61A13490E60164909688E423CBF1449C3
S2144006600E601543656000232360124B984767B1C0
S2144006703846F8BDA018436062600F4B9847E6E7DF
S2144006800C4B984701E00B4B98470C4B984700277C
S214400690EEE700BF60040020191540006404002007
S2144006A06804002070040020402B40007D27400056
S2144006B06C0400207116400089054000A9274000C0
S2144006C0002840D010B5044650F8042C1E4B1B683A
S2144006D01A4211D050F8083CF3B14FF490711B48C1
S2144006E01B4B984754F8043C174A1268134202D0F2
S2144006F054F8081CA1B110BD40F21F111348144B0A
S214400700984754F8083C002BE7D154F8043C0E4A6E
S21440071012681342EFD003E054F8043C0A4A1268C9
S21440072023EA020344F8043C0A4B98470A4A54F822
S214400730043C11680B441360A4F10800074B98472B
S214400740074B984710BD704764040020402B40007C
S2144007507D274000191540006804002089054000A8
S214400760711640002DE9F84F0546354B1B6823B1FE
S21440077040F293113348344B9847D5F804B0BBF158
S214400780000F52D008350026B0462D4FDFF8B4A0F3
S214400790DFF8B4901DE03B6873B33B68A34230D2A9
S2144007A039680BEB0403083B23F007033B60002249
S2144007B05A601A602246181B6060236001B10C60C4
S2144007C0536898440136083555F804BCBBF1000F11
S2144007D01CD055F8084C14F0070F06D0E21D22F046
S2144007E00702A344ABEB020B1446002ED3D1174BA3
S2144007F01C6000225A60D3E74FF4DA715046C8476F
S214400800CBE740F2B7115046C847C9E7104BC3F88C
S2144008100080104BC3F80080B8F1000F0AD04FF0AC
S21440082000420D4B1A60BDE8F88F0023084A13605B
S214400830084A13604FF4F0710248034B9847EEE7BE
S21440084060040020402B40007D27400070040020BC
S2144008506C040020680400206404002010B50446A0
S214400860044B9847A46B044B9847B4FA84F040096D
S21440087010BD00BFC50240000D03400070B50446E1
S2144008801646856B026C5AB90368002013B10135D1
S214400890A56370BDA068174B98470023A360F6E792
S2144008A06EB94068144B98476368226C1344636083
S2144008B0A268934219D3236863600020E7E7C068C4
S2144008C00D4B9847226C5242E3681344E36021681C
S2144008D08B4202D2A3681A44E260022E01D0002066
S2144008E0D5E725B1013D0020D1E70020CFE7002025
S2144008F0CDE700BF9D1A40002128400070B582B069
S21440090001900E46846C5CB1A26BE36B9A420DD2AA
S214400910A26BE36B9A420FD30026304602B070BDFE
S21440092040F645311248134B9847EDE740F64631BE
S2144009300F48104B9847EBE794F845506DB2324657
S21440094001A920460C4B98470646B5F1FF3F04D018
S21440095001356DB284F84550DFE7636A002BDCD082
S21440096004F12400054B9847002818BF0126D4E719
S2144009706C2B40007D2740007D0840003D1940001C
S214400980026C72B110B5C3681344C3608468A34256
S21440099024BF0368C3600C46C1682046014B984795
S2144009A010BD7047212840002DE9F0410546234BF5
S2144009B0984795F8454064B2002C19DD204EDFF884
S2144009C08C80204F08E06B6A93B105F12400B8474D
S2144009D060B9013C64B25CB1AB6C002BF3D0002133
S2144009E02846B0470028F4D0C047F2E7C047F0E7B3
S2144009F0FF2385F84530144B9847104B984795F899
S214400A00444064B2002C12DD2B6983B105F1100717
S214400A100C4EDFF8388004E0013C64B23CB12B69F0
S214400A202BB13846B0470028F6D0C047F4E7FF233E
S214400A3085F84430044B9847BDE8F081C502400035
S214400A40FD0840003D1940000D034000711A40006B
S214400A5038B50D460446D0B11B4B98472268216CEA
S214400A60E36B03FB01F3D018A0600020A063626034
S214400A705B1A1344E360FF2384F8443084F845301F
S214400A80D5B923694BB9114B9847012038BD40F280
S214400A9003110F480F4B9847DEE704F110000E4B4A
S214400AA098470028EFD04FF080520C4B1A60BFF3A7
S214400AB04F8FBFF36F8FE6E704F11000084DA8474D
S214400AC004F12400A847DEE7C50240000D034000BD
S214400AD06C2B40007D2740003D19400004ED00E0AF
S214400AE06501400070B50D460646A0B105FB06F010
S214400AF04C300D4B9847044658B195B100F14C0325
S214400B000360E663256401212046084B984700238E
S214400B10A364204670BD4FF4BB710548054B98470B
S214400B20E4E72060EDE700BFE1054000510A4000E1
S214400B306C2B40007D2740002DE9F04F85B089465C
S214400B4001921E460446A8B1B9F1000F18D0022EF5
S214400B501FD0674B984730B9019B23B140F2F6212E
S214400B606448654B98474FF0000A644D644FDFF881
S214400B709C815FE040F2F1215E485F4B9847E3E797
S214400B80236C002BE3D040F2F2215A485A4B984748
S214400B90DDE7E36B012BDCD040F2F3215548564BA2
S214400BA09847D6E7A56B324649462046554B984768
S214400BB0A36CABB1022E00F0978031462046524BD4
S214400BC0984738B14FF08052504B1A60BFF34F8F62
S214400BD0BFF36F8F4E4B9847012005B0BDE8F08FAE
S214400BE0636A53B90028F5D04FF08052474B1A60DD
S214400BF0BFF34F8FBFF36F8FECE704F12400454BF4
S214400C0098470028E6D04FF08052404B1A60BFF31A
S214400C104F8FBFF36F8FDDE73D4B98470020DCE7F3
S214400C2002A8B84713E020463B4B98473B4B9847B3
S214400C304FF0010AA847A26BE36B9A42B2D3022E4A
S214400C4048D0019B002BE7D0BAF1000FE8D0304BDC
S214400C509847334B9847A84794F844305BB2B3F173
S214400C60FF3F04BF002384F8443094F845305BB21D
S214400C70B3F1FF3F04BF002384F84530244B984728
S214400C8001A902A8274B9847E8B9A847D4F838B036
S214400C90D4F83CA01E4B9847D345C4D1019904F1E3
S214400CA01000214B984720461B4B98471B4B9847B4
S214400CB00028BDD14FF08053C8F80030BFF34F8FA7
S214400CC0BFF36F8FB4E72046134B9847134B9847B4
S214400CD0002082E7A56B022249462046094B9847EA
S214400CE0A36C002B3FF47CAF002D3FF466AF71E75A
S214400CF07D1A40006C2B40007D274000C502400016
S214400D00D11940007D084000FD08400004ED00E099
S214400D100D0340003D194000A909400071164000EF
S214400D2019154000E9194000B51840002DE9F84370
S214400D300F4691461E460446C8B1F7B1022E25D04E
S214400D40324B9847EFF311884FF0500383F31188E6
S214400D50BFF36F8FBFF34F8FA26BE36B9A421ED3E6
S214400D60022E1CD0002088F31188BDE8F88340F29C
S214400D70C3312748274B9847DFE7236C002BDDD04D
S214400D804FF471712248234B9847D7E7E36B012B0A
S214400D90D6D040F2C5311E481E4B9847D0E794F84F
S214400DA045506DB23246394620461B4B9847B5F102
S214400DB0FF3F05D001356DB284F845500120D2E79B
S214400DC0A36C5BB131462046144B9847B0B1B9F19D
S214400DD0000F15D00120C9F80000C4E7636A0BB9BC
S214400DE00120C0E704F124000D4B984750B1B9F1FB
S214400DF0000F09D00120C9F80000B4E70120B2E78F
S214400E000120B0E70120AEE70120ACE72D05400009
S214400E106C2B40007D2740007D084000FD084000C8
S214400E203D1940002DE9F04784B0884601920446BB
S214400E3098B1B8F1000F16D04D4B984730B9019B8A
S214400E4023B140F209514B484B4B98474FF0000AAC
S214400E504A4D4B4EDFF8389144E04FF4A061454888
S214400E60454B9847E5E7236C002BE5D040F204510C
S214400E704048414B9847DFE741462046414B98471C
S214400E807B1EA36323692BB93F4B9847012004B0D0
S214400E90BDE8F08704F110003C4B98470028F3D09B
S214400EA04FF080523A4B1A60BFF34F8FBFF36F8FAD
S214400EB0EAE7354B98470020E9E702A8B0471BE031
S214400EC02046344B9847344B984709E02046314BF0
S214400ED09847314B98472046304B9847002844D196
S214400EE04FF0010AA847A76B002FC5D1019B002BE6
S214400EF0DFD0BAF1000FE0D0234B9847284B9847F5
S214400F00A84794F844305BB2B3F1FF3F04BF0023D8
S214400F1084F8443094F845305BB2B3F1FF3F04BFE9
S214400F20002384F84530184B984701A902A81D4B6A
S214400F3098470028CAD12046184B98470028BFD06B
S214400F40019904F12400184B98472046114B9847C6
S214400F50114B98470028C3D14FF08053C9F8003052
S214400F60BFF34F8FBFF36F8FBAE700208FE700BF06
S214400F707D1A40006C2B40007D274000C502400093
S214400F80D1194000810940000D0340003D19400042
S214400F9004ED00E0A9094000711640005D084000DD
S214400FA019154000E9194000B518400010B40B4B25
S214400FB01B6853B10123094C54F8332032B1013336
S214400FC0082BF9D15DF8044B70470023034A42F8DA
S214400FD0331002EBC3035860F4E700BF0C06002052
S214400FE070B504460D461646114B984794F8443063
S214400FF05BB2B3F1FF3F04BF002384F8443094F85B
S21440100045305BB2B3F1FF3F04BF002384F8453060
S214401010084B9847A36B1BB12046074B984770BDBB
S2144010203246294604F12400044B9847F4E700BFB3
S214401030C50240000D034000A9094000F5184000D5
S214401040084B1B681B683BB1064B1B68DB68DB68BC
S2144010505A68054B1A6070474FF0FF32024B1A60D1
S214401060704700BF7C0400206805002080B5164D00
S214401070DFF86C80154FDFF86C902B68BBB1144ED0
S214401080C047FB68DC68201DB047124A1368013B26
S21440109013602B68013B2B600F4B9847206BDFF8A3
S2144010A048A0D0472046D0472B68002BE8D10B4BB2
S2144010B01B68012BE1D94FF08053C9F80030BFF3CD
S2144010C04F8FBFF36F8FD8E7280500209C05002080
S2144010D0CD014000240500200D034000840400207C
S2144010E0C502400004ED00E0C106400070B504466D
S2144010F00E461D4B1D681D4B186804301C4B984708
S21440110048B91A4B1A681B490B68D06A01228240BC
S21440111023EA02030B60B4F1FF3F13D02C44134B79
S2144011201B685C60A54216D8134B18680F4B1968AD
S2144011300431124B9847124B1B689C423CBF104BE5
S2144011401C6070BD002EE9D0084B196804310D486C
S2144011500D4B984770BD0D4B1868044B1968043109
S214401160064B984770BD00BFB005002078040020AD
S214401170CD014000380500207C0400209901400045
S214401180680500208805002081014000800400207A
S2144011902DE9F04F83B083460D460193DDF834A029
S2144011A097003846614B9847002800F092800646E4
S2144011B064205E4B98470446002800F0878006630C
S2144011C03A46A52130465A4B9847043F236B1F4466
S2144011D027F00707002D7FD02B7884F834302B7803
S2144011E063B12B4604F1340205F11301587802F836
S2144011F0010F13F8010F08B18B42F7D1002384F892
S21440120047300C9D072D28BF0725E562A5640026BC
S214401210E66404F104084046DFF86891C84704F1E4
S2144012201800C8472461C5F10805A56164622665B3
S2144012306665A665E66584F86060019A5946384654
S2144012403C4B98472060BAF1000F01D0CAF80040E6
S214401250394B9847394A136801331360384B1B683B
S214401260002B3DD0374B1B683BB9354B1B68DA6AC1
S214401270E36A9A429CBF324B1C60334A1368013380
S2144012801360E06A314A1168012383400B431360C0
S21440129000EB800041462E4B03EB80002D4B9847D9
S2144012A02D4B9847274B1B68002B39D0244B1B6887
S2144012B0DA6AE36A9A4237D24FF08052274B1A6076
S2144012C0BFF34F8FBFF36F8F01202AE03046244B89
S2144012D098474FF0FF3024E0002384F8343090E7FE
S2144012E0174B1C601368012BC7D1194D05F1A00799
S2144012F01C4E2846B0471435AF42FAD11A4F3846EE
S214401300184DA847194E3046A8471948A8471948C7
S214401310A8471948A847194B1F60194B1E60ACE7F1
S214401320012003B0BDE8F08F0120FAE7E105400058
S2144013305529400075024000C502400024050020A3
S214401340780400208405002034050020380500205D
S21440135084040020810140000D03400004ED00E0BD
S214401360C1064000650140003C05002050050020B5
S214401370700500209C050020880500207C04002085
S214401380800400207B01400038B504462C4B98472B
S214401390002C36D0251D28462A4B984770B9E26A5D
S2144013A002EB82039B002849CB583BB92748036889
S2144013B0012101FA02F223EA02020260A36A1BB18B
S2144013C004F118001F4B9847214A136801331360F5
S2144013D0204B1B689C4217D01F4A1368013B136082
S2144013E0206B1E4DA8472046A8471D4B98471D4BCF
S2144013F098471D4B1B681BB1164B1B689C420CD074
S21440140038BD144B1C68C5E729461848184B984702
S214401410184A136801331360E9E7174B1B6843B952
S2144014204FF08052154B1A60BFF34F8FBFF36F8F4C
S214401430E6E740F2D2411248124B9847F0E700BF29
S214401440C5024000CD01400084040020380500203D
S214401450340500207804002024050020C106400002
S214401460411040000D034000840500209C050020EC
S21440147081014000280500203005002004ED00E0F2
S214401480842B40007D27400010B582B0174B019357
S21440149000230093822216491648174CA04701287D
S2144014A004D0B0F1FF3F1AD002B010BD134B98479E
S2144014B00128F6D14FF0500383F31188BFF36F8FA6
S2144014C0BFF34F8F4FF0FF320D4B1A6001220D4B8A
S2144014D01A6000220C4B1A600C4B9847E4E74FF416
S2144014E002610B480B4B9847DEE700BF64050020BF
S2144014F09C2B40006D10400091114000111C400094
S2144015006805002084050020B00500200D0440003A
S214401510842B40007D274000024A13680133136045
S214401520704700BF30050020014B1868704700BF69
S214401530B00500202DE9F0473D4B1B68002B70D1CD
S2144015403C4B1A6802F10108C3F80080B8F1000F5E
S2144015500FD1394B1B681B681BBB374A1168374B8A
S214401560186810601960364A136801331360354BAB
S2144015709847354B1B68984519D20025334B1B6856
S214401580DB6A03EB83039B00314AD358022B28BF08
S2144015900125304B1B68002B0CBF28460120BDE8B8
S2144015A0F08740F67F212C482C4B9847D5E70025FE
S2144015B0214FDFF8B4A0DFF8B49021E04FF0FF32BF
S2144015C0214B1A60DAE7204A1360D7E704F1180087
S2144015D0D047E06AD9F80020012383401343C9F876
S2144015E0003000EB80003146194B03EB80001C4B6B
S2144015F09847164B1B68E26ADB6A9A4228BF012569
S2144016003B681B68002BD9D03B68DB68DC686368A6
S2144016109845D8D3261D3046D047A36A002BD5D14F
S214401620D7E7104A1368013313600025B1E700BFBF
S21440163030050020B00500207C04002080040020F7
S2144016406C0500204110400068050020780400200A
S21440165084040020B4050020842B40007D274000F1
S214401660810140002C050020CD01400038050020B7
S2144016702DE9F041344B1B68002B33D0334B984751
S214401680314B1A68013A1A601B68002B53D1304B15
S2144016901B68002B2CD000242E4EDFF8EC802E4FFB
S2144016A033683BB3F368DC6804F11800C047251D77
S2144016B02846C047E06A3A680123834013433B60AC
S2144016C000EB80002946254B03EB8000244B9847CF
S2144016D0244B1B68E26ADB6A9A42E1D30122224B22
S2144016E01A60DDE740F685012048214B9847C5E75C
S2144016F0002421E00CB11F4B98471F4B1C686CB16F
S2144017001E4D194F012601E0013C04D0A847002891
S214401710FAD03E60F8E70022174B1A60124B1B685F
S2144017207BB14FF08052164B1A60BFF34F8FBFF31A
S2144017306F8F012400E00024124B98472046BDE8F6
S214401740F0810024F8E700BF30050020C5024000C5
S2144017502405002070050020380500208404002061
S2144017608101400078040020B4050020842B40000E
S2144017707D274000411040002C05002035154000D4
S21440178004ED00E00D034000CD01400010B560B10F
S21440179004460D4B1B688BB90C4B984700212046DE
S2144017A00B4B98470B4B984738B94FF080520A4B33
S2144017B01A60BFF34F8FBFF36F8F10BD40F23C519E
S2144017C00648074B9847E7E73005002019154000C4
S2144017D0ED1040007116400004ED00E0842B400000
S2144017E07D2740002B4B1B68002B34D110B50022C0
S2144017F0294B1A60294B1B681B6B1A68B2F1A53F30
S2144018002DD0264B186819683431254B9847254B00
S2144018101C68B4FA84F4E4B2C4F11F0404EB8403F5
S2144018209B00214AD3583BB31F4BA200111903EB30
S214401830810148684068486022440B460833984215
S21440184020D004EB8404184B03EB84046368DA6806
S214401850124B1A6010BD01220F4B1A6070475A682F
S214401860B2F1A53FCDD19A68B2F1A53FC9D1DB68A8
S214401870B3F1A53FC5D1CAE740F6B7310B480C4B8C
S2144018809847D1E741681346074A02EB83035960FD
S214401890D7E700BF30050020B405002078040020BC
S2144018A0BD2740003805002084040020842B4000DB
S2144018B07D27400038B50C46054650B1084B1968A0
S2144018C018312846074B984701212046064B984733
S2144018D038BD40F6CE310548054B9847EEE700BF89
S2144018E07804002099014000ED104000842B400011
S2144018F07D27400070B50D461446064670B10A4B2B
S214401900196818313046094B9847002C21460CBFC1
S21440191028464FF0FF30064B984770BD40F6F931E9
S2144019200448054B9847EAE77804002081014000C8
S214401930ED104000842B40007D27400038B5C3683A
S214401940DC682CB304F118052846174B9847174B0C
S2144019501B681BBB251D2846134B9847E06A144A54
S2144019601168012383400B43136000EB8000294637
S214401970104B03EB8000104B9847104B1B68E26AF5
S214401980DB6A9A4283BF01200D4B1860002038BDA9
S21440199040F629410B480C4B9847D3E729460B485D
S2144019A0054B9847E9E700BFCD01400030050020D1
S2144019B0380500208404002081014000780400207F
S2144019C0B4050020842B40007D2740007005002091
S2144019D0034B1B680360034B1B684360704700BFA4
S2144019E06C050020B005002070B50C460546D0B109
S2144019F0FCB1184B9847184B1B682268B2F1FF3F62
S214401A0024D06968154800682E68864201D08B420B
S214401A101ED25B1A934212D3002323600124104B3C
S214401A209847204670BD40F694410E480E4B984766
S214401A30DEE740F695410B480B4B9847D9E7D31A5B
S214401A4023602846094B98470024E8E70024E6E749
S214401A500124E4E7C5024000B00500206C050020E4
S214401A600D034000842B40007D274000D1194000E4
S214401A700122014B1A607047B4050020054B1B68D5
S214401A8033B1054B1B68002B0CBF0220002070476B
S214401A90012070478405002030050020002846D0ED
S214401AA038B50446244B1B68984204D040F6D171A2
S214401AB02248234B9847E36C4BB1E36C013BE3640D
S214401AC0E16AA26C914234D03BB1002038BD40F66A
S214401AD0D2711A481A4B9847EFE7251D2846194BEE
S214401AE0984770B9E26A02EB82039B001649CB58CE
S214401AF03BB916480368012101FA02F223EA0202C2
S214401B000260A06CE062C0F10803A3610F4A11684E
S214401B10012404FA00F30B43136000EB80002946CF
S214401B20094B03EB80000A4B9847204638BD0020FF
S214401B307047002038BD00BF78040020842B40004A
S214401B407D274000CD014000840400203805002059
S214401B508101400008B54160006191420CD8D21A1C
S214401B6083699A4201D3012008BD011D094B1868BC
S214401B70094B9847002008BD9A4201D2994206D2A6
S214401B80011D064B1868044B9847002008BD0120ED
S214401B9008BD00BFBC05002099014000B8050020E4
S214401BA070B5104B9847104B1B6813B10F4B9847B6
S214401BB070BD0F4D28460F4EB0470F4C2046B047DD
S214401BC00E4B1D600E4B1C600022102105200D4B55
S214401BD09847054B18600028E8D00B490B4B9847B0
S214401BE0E4E700BFC5024000EC0500200D034000BE
S214401BF0C005002065014000D4050020B80500203F
S214401C00BC050020E50A4000A42B4000AD0F400074
S214401C1010B582B00D4B98470D4B1B687BB10D4BF2
S214401C2001930723009300234FF482720A490B481E
S214401C300B4CA047034610B1184602B010BD40F208
S214401C4013110848084B98470023F5E7A11B4000AE
S214401C50EC050020F0050020AC2B4000991D40000C
S214401C6091114000B42B40007D274000F0B585B070
S214401C700C4616461F460546B0B1124B1868F8B1DA
S214401C80009401960295052C14DC0F4B98470228C9
S214401C904FF000030CBF0A9A1A4669460948006886
S214401CA00A4CA04705B0F0BD4FF4C1710848094B37
S214401CB09847E2E700233A466946074CA047F1E7D3
S214401CC00020EFE7EC0500207D1A4000390B40006D
S214401CD0B42B40007D2740002D0D40002DE9F047F5
S214401CE082B08046234B98470746234B1B68984252
S214401CF016D30023C8F800301F4B1F60384602B08A
S214401D00BDE8F087002100910B46524620461B4C0A
S214401D10A04738B94FF4617119481A4B984701E00B
S214401D20194D1A4E2B681A68D2B1DB68D3F800A05A
S214401D30DC6804F104094846B047236A20469847C1
S214401D4094F8243013F0040FECD0A36953449A451A
S214401D50D8D263602461494628680D4B9847E1E72E
S214401D600C4A10680849086013600123C8F8003020
S214401D70C2E700BF29154000E80500206D1C400062
S214401D80B42B40007D274000B8050020CD01400020
S214401D9099014000BC0500202DE9F04F89B0754EF2
S214401DA0754F764DDFF80092DFF8008233681A6888
S214401DB01AB3DB68D3F800A0714B984704A8714B60
S214401DC098470446049A002A52D1504526D3B8472D
S214401DD03368DB68D3F80CB00BF10400C0479BF8BF
S214401DE0243013F0040F2AD123F001038BF824305B
S214401DF0DBF82030584698471FE0614B984704A8C8
S214401E00604B98470446049B002B31D15E4B1B68C1
S214401E101A68B2FA82F252094FF0000AAAEB04019D
S214401E2028685A4B9847B84738B94FF08053C9F896
S214401E300030BFF34F8FBFF36F8F554C21E0DBF878
S214401E4018105346224651445846524CA047002844
S214401E50CED0002100910B46524658464E4CA047E5
S214401E600028C5D14FF4FC714C484D4B9847BFE70E
S214401E70B847E2E707990698059B9847049B002BCE
S214401E8008DA002204A92868A04700288ED0049BC0
S214401E90002BEFDBDDF818A0DAF8143013B10AF1A6
S214401EA00400C04703A8374B98478346049B092B3A
S214401EB0E7D8DFE803F00505053138510505313828
S214401EC09AF8243043F001038AF824300599DAF86A
S214401ED018000B465A46014450462E4CA047002850
S214401EE0ABD0DAF82030504698479AF8243013F0B2
S214401EF0040FA2D0DAF81820002100910B4605986E
S214401F0002445046244CA047002896D140F2133154
S214401F102248234B984790E79AF8243023F0010351
S214401F208AF8243089E79AF8243043F001038AF887
S214401F302430059BCAF8183043B1DAF818105B46CF
S214401F405A4659445046134CA04776E740F22B3148
S214401F501248134B9847F0E79AF8243013F0020FD4
S214401F6004D023F001038AF8243066E750460D4B30
S214401F70984762E7B805002071164000EC0500203F
S214401F8019154000DD1C4000BC050020E10F400054
S214401F90250E4000551B40006D1C4000B42B4000F1
S214401FA07D274000C106400004ED00E0CD01400022
S214401FB010B509200E4CA0470A20A0470B20A0478A
S214401FC00C20A0470D20A0470A4B4FF080541C61C0
S214401FD0C3F8A0404FF400301861C3F8A000064A8A
S214401FE002211161C2F8A0105C635863516310BDB2
S214401FF0A523400000140E4000160E40012808D0CD
S21440200002280BD003280ED0094BD86BC0F3805063
S2144020107047074BD86BC0F300707047044BD86BC3
S214402020C0F340407047034BD86BC0F34000704746
S21440203000140E4000160E4008B501280CD00228A9
S21440204018D0032824D0002930D04FF480021A4BF1
S2144020501A631A4B984708BD39B14FF08052164B59
S2144020601A630120154B984708BD4FF08052124B1B
S2144020705A63F6E739B14FF400320F4B1A63022029
S2144020800E4B984708BD4FF400320B4B5A63F6E7A9
S21440209039B14FF08052084B1A630320074B9847DC
S2144020A008BD4FF08052044B5A63F6E74FF4800267
S2144020B0014B5A63CDE700BF00140E40FD1F4000A1
S2144020C010B50446044B984701280CBF0021012157
S2144020D02046024B984710BDFD1F40003920400067
S2144020E01A4B4FF080615961C3F8A0104FF0804200
S2144020F05A61C3F8A0205966C3F890105965196212
S214402100C3F88410186F20F080601867586F20F06E
S214402110806058675A66C3F890205A651A62C3F8BA
S2144021208420186F20F080401867586F20F0804059
S2144021305867C3F8C010C3F8D410C3F8B010C3F83B
S214402140C020C3F8D420C3F8B020704700140E4017
S214402150012806D0022809D0074BD86BC0F3800070
S2144021607047064BD86BC0F380607047034BD86B04
S214402170C0F38070704700BF000E0E4000140E4043
S21440218070B50B4C0B4E0C4D04E00C4B984764203E
S2144021900B4B98470120A0470128F6D00220A047C5
S2144021A0012802D00020A047F1E7F068A847EEE7F4
S2144021B051214000F405002089134000C120400012
S2144021C08D17400008B50026034D044C3046A847FE
S2144021D04FF47A70A047F9E7C12040008D174000C1
S2144021E010B50E480E4B98473E2100200D4B9847A1
S2144021F00D4CA0470028FCD00C4B98470C4A0D4B82
S2144022009A620D4CA0470028FCD010200B4B9847F4
S2144022100B4B98470B48024B984710BD000E2707BC
S214402220D1254000212340007523400085234000EF
S214402230013F0F2000040E4095234000BD22400081
S214402240C524400000D8B80510B54FF40042184BDE
S2144022505A600920174CA0470A20A0470B20A047E9
S2144022600C20A0470D20A047134B4FF480021A6164
S214402270C3F8A0201A63A3F5C06304225A61C3F8CA
S214402280A0205A66C3F890205A651A62C3F8842084
S214402290196F21F004011967596F21F0040159673D
S2144022A0C3F8C020C3F8D420C3F8B02010BD00BF88
S2144022B050180E40A523400000140E40174A136BDA
S2144022C023F0700318431063936E13F0080F0AD17F
S2144022D04FF4006311498A6E12F0080F03D1013B98
S2144022E0F9D1012070470D4A136B23F0030343F0E6
S2144022F002031363936E13F0080F0AD14FF4006382
S21440230006498A6E12F0080F05D1013BF9D101202B
S2144023107047002070470020704700BF00040E4002
S214402320C8B9114A136A090289B223F45C1323F030
S214402330030343F45C1343F001030B431362936EB1
S21440234013F0010FFBD0084A136A43F09B7343F423
S21440235080331362704704490B6A044A1A40044BA0
S21440236013430B62704700BF00040E40FCFFC8FEDC
S21440237002003701024B986E00F48030704700BF71
S21440238000040E404FF00052014B9A62704700BF67
S21440239000040E40024B986E00F00200704700BFEB
S2144023A000040E402F281ED81F280CD8114B9A69BF
S2144023B001238340934318D0012303FA00F00D4BCA
S2144023C018610020704720380A4BD3F808210123B3
S2144023D0834093430BD0012303FA00F0054BC3F828
S2144023E00001002070470120704700207047002001
S2144023F0704700BF00040E40FEE7000000B583B003
S214402400254B264A9A4210D0254B234A9A420CD254
S214402410013B9B1A23F00303043313441F4951F82E
S214402420040B42F8040B9A42F9D11E4B1E4A9A42BC
S2144024300AD2013B9B1A23F00303043313440021C2
S21440244042F8041B9342FBD1184A194B23F07F03F2
S2144024509360EFF31083B3FA83F35B09019372B68C
S214402460BFF35F8F0022134B1A700199124A13680C
S21440247043F470031360BFF34F8FBFF36F8F29B1E0
S21440248001220C4B1A70BFF35F8F62B60B4B984716
S2144024900B4B9847FEE700BF00000020482C40004A
S2144024A03C040020880600203C04002000ED00E0AC
S2144024B0000040000400002088ED00E0D1274000E6
S2144024C0452640003B4B1B6B03F00303012B1DD0FE
S2144024D083B1022B36D0374B1B6B03F07003702B47
S2144024E05FD0344B1A6B3449C2F302120B68D340A8
S2144024F00B607047314B5B6913F0800F14BF4FF48D
S21440250000424FF4FA422C4B1A60E4E7294B1B6A10
S21440251013F0807F03D02A4A274B1A60DBE7294A0C
S214402520254B1A60234B1B6A03F07003102B05D013
S214402530202BD0D1224A204B1A60CCE7224A1E4B91
S2144025401A60C8E71B4B1B6A13F0807F16D01C4AE4
S214402550194B1A60174B1B6B03F00303022BBAD1BF
S214402560144A916A926A1448C1F30A41036801FB0F
S2144025700333D2B2B3FBF2F30360ACE7114A0E4B1F
S2144025801A600C4B1B6A03F07003102B05D0202BEF
S214402590E0D10B4A084B1A60DCE70B4A064B1A6040
S2144025A0D8E7054A13680949A1FB03135B08136083
S2144025B0704700BF00040E400800002010180E4070
S2144025C0001BB70000093D0000127A00ABAAAAAA79
S2144025D0124B984211D9124B984213D9114B98423C
S2144025E014D9114B984215D9104B984294BF4FF0CE
S2144025F004220F4A0F4B1A6070474FF080620D4B13
S2144026001A6070470C4A0B4B1A6070470B4A094BCE
S2144026101A6070470A4A074B1A607047FF2C310110
S214402620FF596202FF869303FFB3C404FFE0F5053B
S21440263000050004000A0E400001000400020004E9
S214402640000300042DE980488BB0394B9847394B3E
S2144026509847394AC2F1005303F5003323F0070385
S214402660073222F007020292A3F5806303934FF0ED
S214402670C24304934FF4002305934FF0C64206929C
S214402680079300250895099502A82C4B98470920E2
S2144026902B4CA0470A20A0472A4B98472A4B9847DE
S2144026A0DFF8C8A0294B1A68CAF8002001248AF827
S2144026B00440DFF8BC905A68C9F80020022289F826
S2144026C00420DFF8B0809B68C8F80030032388F801
S2144026D00430019500942B4682221D491D481E4E0B
S2144026E0B0471E4F019500942B4682221C4938461F
S2144026F0B047DFF884B01B4D2B1D01930094534622
S214402700822259463846B04705F1080301930094A3
S2144027104B46822259463846B0470C3501950094C0
S2144027204346822259463846B0470F4B9847FEE705
S214402730E1214000492240008836002065074000DD
S214402740A5234000B11F4000E120400000060020C5
S214402750D02B4000C521400091114000812140000F
S214402760E02B4000F4050020891440004C06002071
S214402770540600205C060020F42B400082B0002364
S21440278001934FF0500383F31188BFF36F8FBFF36D
S2144027904F8F019B1BB900BF019B002BFBD0002332
S2144027A083F3118802B0704708B58C210148024B6C
S2144027B0984708BD102C40007D2740004FF050033E
S2144027C083F31188BFF36F8FBFF34F8FFEE7000090
S2144027D070B50F4E0F4D761BB61018BF002405D0AF
S2144027E0013455F8043B9847A642F9D10A4E0B4DA2
S2144027F0761B00F017FAB61018BF002406D0013436
S21440280055F8043B9847A642F9D170BD70BD00BF4D
S214402810302C4000302C4000382C4000302C4000FB
S214402820844641EA000313F003036DD1403A41D396
S21440283051F8043B40F8043B51F8043B40F8043B55
S21440284051F8043B40F8043B51F8043B40F8043B45
S21440285051F8043B40F8043B51F8043B40F8043B35
S21440286051F8043B40F8043B51F8043B40F8043B25
S21440287051F8043B40F8043B51F8043B40F8043B15
S21440288051F8043B40F8043B51F8043B40F8043B05
S21440289051F8043B40F8043B51F8043B40F8043BF5
S2144028A051F8043B40F8043B51F8043B40F8043BE5
S2144028B0403ABDD2303211D351F8043B40F8043B85
S2144028C051F8043B40F8043B51F8043B40F8043BC5
S2144028D051F8043B40F8043B103AEDD20C3205D395
S2144028E051F8043B40F8043B043AF9D2043208D08D
S2144028F0D2071CBF11F8013B00F8013B01D30B88FF
S21440290003806046704700BF082A13D38B078DD0DC
S21440291010F003038AD0C3F10403D21ADB071CBFAE
S21440292011F8013B00F8013B80D331F8023B20F818
S214402930023B7BE7043AD9D3013A11F8013B00F851
S214402940013BF9D20B7803704B7843708B788370D9
S2144029506046704770B4860746D0541E002A41D061
S214402960CAB2034602E014F1FF343BD303F8012B0E
S2144029709D07F8D1032C2ED9CDB245EA05250F2C5C
S21440298045EA054519D903F110022646103E0F2E9A
S21440299042F8105C42F80C5C42F8085C42F8045C72
S2144029A002F11002F2D8A4F1100222F00F0204F055
S2144029B00F041032032C13440DD91E462246043A07
S2144029C0032A46F8045BFAD8221F22F00302043298
S2144029D0134404F003042CB1C9B21C4403F8011B91
S2144029E09C42FBD170BC704714460346C2E700BF0A
S2144029F0024B13B1024800F005B8704700000000D3
S214402A00112A4000002301461A46184600F01EB818
S214402A1038B50A4C0A4D641BA4100AD004F1804312
S214402A20013B05EB8305013C55F804399847002CDB
S214402A30F9D1BDE8384000F0FFB800BF482C400050
S214402A40442C4000704700BF704700BF2DE9F84354
S214402A502C4D0646286898460F469146FFF7F2FFEB
S214402A60294B1C68D4F84831002B3ED05A681F2AA0
S214402A701CDC02F1010E76B103EB82010124C1F8A1
S214402A808890D3F8880194402043022EC3F88801EA
S214402A90C1F8088123D00232C3F804E0286843F81E
S214402AA02270FFF7D1FF0020BDE8F883174B0BB329
S214402AB04FF4C870AFF300800346D8B1D4F848212D
S214402AC00260002141600A46C4F848014FF0010EFA
S214402AD0C0F88811C0F88C11002EDCD0CCE7D3F8B3
S214402AE08C110C43C3F88C41D5E704F5A673C4F8A3
S214402AF04831BBE72868FFF7A7FF4FF0FF30BDE837
S214402B00F88300BF38040020202C4000000000005E
S214402B102E2E2F7372632F4672656552544F532F75
S214402B20706F727461626C652F4743432F41524DFC
S214402B305F434D34462F706F72742E630000000062
S214402B402E2E2F7372632F4672656552544F532F45
S214402B50706F727461626C652F4D656D4D616E6706
S214402B602F686561705F352E630000002E2E2F7330
S214402B7072632F4672656552544F532F7175657553
S214402B80652E63002E2E2F7372632F467265655234
S214402B90544F532F7461736B732E630049444C45F6
S214402BA000000000546D725100000000546D722009
S214402BB0537663002E2E2F7372632F4672656552CE
S214402BC0544F532F74696D6572732E630000000076
S214402BD04C454430204865617274204265617400FB
S214402BE04D61696E20436F6E74726F6C20546173D2
S214402BF06B0000004D61696E20436F6E74726F6C9F
S214402C00205461736B20666F72204C45443100003F
S214402C102E2E2F7372632F6D61696E2E6300000037
S214402C2010000020F8B500BFF8BC08BC9E467047B0
S214402C30F12940001D014000F8B500BFF8BC08BCB3
S20C402C409E467047F900400073
S214402C48AAAAAAAA0100000000093D000000000048
S214402C5800000000FC02002064030020CC03002093
S214402C680000000000000000000000000000000017
S214402C780000000000000000000000000000000007
S214402C8800000000000000000000000000000000F7
S214402C9800000000000000000000000000000000E7
S214402CA800000000000000000000000000000000D7
S214402CB800000000000000000000000000000000C7
S214402CC800000000000000000000000000000000B7
S214402CD800000000000000000000000000000000A7
S214402CE80000000000000000000000000000000097
S214402CF80000000000000000010000000000000086
S214402D080E33CDAB34126DE6ECDE05000B0000004A
S214402D180000000000000000000000000000000066
S214402D280000000000000000000000000000000056
S214402D380000000000000000000000000000000046
S214402D480000000000000000000000000000000036
S2104030780000000000000000640600207D
S8044023FD9B
